:040000005CEF00F0C1
:100008004082FACF1AF0FBCF1BF0E1CF1CF0E2CF11
:100018001DF0D9CF1EF0DACF1FF0F2A816EF00F0CE
:1000280018EF00F023EF00F0F2A21DEF00F01FEF31
:1000380000F023EF00F026EC0EF04EEF00F0F2ACEB
:1000480028EF00F02AEF00F04EEF00F076A02FEF37
:1000580000F031EF00F03CEF00F077A036EF00F051
:1000680038EF00F03CEF00F0E5EC0DF04EEF00F05B
:100078009DA041EF00F043EF00F04EEF00F09EA08E
:1000880048EF00F04AEF00F04EEF00F0F8EC0CF00B
:100098004EEF00F01FC0DAFF1EC0D9FF1DC0E2FFFF
:1000A8001CC0E1FF1BC0FBFF1AC0FAFF4092110001
:1000B80033EF0DF00001CF51800BD86FCF51CF2512
:1000C800DE6FCEAF6AEF00F06CEF00F06DEF00F07E
:1000D800DE81DE51D8B473EF00F075EF00F088EFE1
:1000E80000F0DE29D8A47BEF00F07DEF00F085EF6B
:1000F80000F0000ECC6F000ECD6F000ECE6F000E1C
:10010800CF6FCE8F90EF00F0000ECC6F000ECD6F4A
:10011800000ECE6F000ECF6FD351800BD81BD3517A
:10012800D325D96FD2AF9BEF00F09DEF00F09EEF83
:1001380000F0D981D951D8B4A4EF00F0A6EF00F0AF
:10014800B9EF00F0D929D8A4ACEF00F0AEEF00F079
:10015800B6EF00F0000ED06F000ED16F000ED26F18
:10016800000ED36FD28FC1EF00F0000ED06F000EDB
:10017800D16F000ED26F000ED36FD951D8B4C7EF2C
:1001880000F0C9EF00F0D1EF00F0DE51D8A4CFEFB6
:1001980000F0D1EF00F0DBEF00F0000ECC6F000EA6
:1001A800CD6F000ECE6F000ECF6F73EF02F0D251FD
:1001B800CC03F3CFE3F0F4CFE4F0E351DA6FDB6B79
:1001C800DC6BDD6BE451DF6FE06BE16BE26BD1510F
:1001D800CD03F3CFE3F0F4CFE4F0E351DA27000ED8
:1001E800DB23DC23DD23E451DF27000EE023E123BA
:1001F800E223D051CE03F3CFE3F0F4CFE4F0E351A0
:10020800DA27000EDB23DC23DD23E451DF27000E91
:10021800E023E123E223DCC0DDF0DBC0DCF0DAC060
:10022800DBF0DA6BD051CD03F3CFE3F0F4CFE4F099
:10023800E351DA27E451DB23000EDC23000EDD2333
:10024800D151CC03F3CFE3F0F4CFE4F0E351DA2754
:10025800E451DB23000EDC23000EDD23DCC0DDF0DF
:10026800DBC0DCF0DAC0DBF0DA6BD051CC03F3CFC3
:10027800E3F0F4CFE4F0E351DA27E451DB23000E96
:10028800DC23000EDD23D251CD03F3CFE3F0F4CF0E
:10029800E4F0E351DF27E451E023000EE123000EF0
:1002A800E223D151CE03F3CFE3F0F4CFE4F0E351EE
:1002B800DF27E451E023000EE123000EE223D251B0
:1002C800CE03F3CFE3F0F4CFE4F0E351D46FE4517D
:1002D800D56FD66BD76BD6C0D7F0D5C0D6F0D4C003
:1002E800D5F0D46BD451DF27D551E023D651E12383
:1002F800D751E223DAC0D4F0DBC0D5F0DCC0D6F0A9
:10030800DDC0D7F0190E8EEF01F0D890D733D63371
:10031800D533D433E82E89EF01F0D451DF27D551F6
:10032800E023D651E123D751E223DCC0DDF0DBC066
:10033800DCF0DAC0DBF0DA6BD951DEC0D4F0D56B73
:10034800D427000ED523820ED425E36FFF0ED521C6
:10035800E46FC4EF01F0D890DF37E037E137E237D8
:10036800DDAFB9EF01F0BBEF01F0BCEF01F0DF81C9
:10037800D890DA37DB37DC37DD37E307D8A0E40776
:10038800E1AFC9EF01F0CBEF01F0AFEF01F0000EE4
:10039800D96FDDAFD2EF01F0D4EF01F0F8EF01F043
:1003A800FF0EDA15D46FFF0EDB15D56FFF0EDC15C7
:1003B800D66F7F0EDD15D76FD451D511D611D71151
:1003C800D8B4E9EF01F0EBEF01F0EFEF01F0010E27
:1003D800D96FF8EF01F0DFA1F4EF01F0F6EF01F0CB
:1003E800F8EF01F0EBEF01F0D951D8B4FEEF01F0CE
:1003F80000EF02F024EF02F0010EDF27000EE023E9
:10040800E123E223E2A10BEF02F00DEF02F024EF6B
:1004180002F0DFC0D4F0E0C0D5F0E1C0D6F0E2C011
:10042800D7F0D735D733D633D533D433D4C0DFF06C
:10043800D5C0E0F0D6C0E1F0D7C0E2F0E34BE42B42
:10044800E4BF2FEF02F0E45108E1E329D8A02FEF31
:1004580002F031EF02F03BEF02F0000EDF6F000E0A
:10046800E06F800EE16F7F0EE26F69EF02F0E4BF8C
:1004780048EF02F0E45106E1E305D8B046EF02F098
:1004880048EF02F054EF02F0000EDF6F000EE06F4D
:10049800000EE16F000EE26F000ED86F69EF02F0F8
:1004A800E3C0DEF0FF0EDF17FF0EE0177F0EE11747
:1004B800000EE217DEA163EF02F065EF02F066EFCF
:1004C80002F0E18FD890DE31E26FD851E213DFC03D
:1004D800CCF0E0C0CDF0E1C0CEF0E2C0CFF0120029
:1004E8000001E851800BF56FE851E825FC6FE7AF94
:1004F80080EF02F082EF02F083EF02F0FC81FC5102
:10050800D8B489EF02F08BEF02F0A0EF02F0FC29DB
:10051800D8A491EF02F093EF02F09BEF02F0000EE7
:10052800E56F000EE66F000EE76F000EE86FE78FCD
:10053800000EE86FA8EF02F0000EE56F000EE66F00
:10054800000EE76F000EE86FEC51800BF51BEC51C5
:10055800EC25FD6FEBAFB3EF02F0B5EF02F0B6EFAD
:1005680002F0FD81FD51D8B4BCEF02F0BEEF02F0FD
:10057800D3EF02F0FD29D8A4C4EF02F0C6EF02F0D1
:10058800CEEF02F0000EE96F000EEA6F000EEB6F7F
:10059800000EEC6FEB8F000EEC6FDBEF02F0000E3D
:1005A800E96F000EEA6F000EEB6F000EEC6FE95179
:1005B800EA11EB11EC11D8A4E4EF02F0E6EF02F037
:1005C800FEEF02F0000EE56F000EE66F000EE76F1B
:1005D800000EE86F800EE7137F0EE813F551E8135D
:1005E800E5C0E5F0E6C0E6F0E7C0E7F0E8C0E8F00F
:1005F80041EF04F0FC51D8A404EF03F006EF03F038
:1006080010EF03F0000EE56F000EE66F000EE76FC7
:10061800000EE86F41EF04F0FD51FCC0EDF0EE6B09
:10062800ED5F000EEE5B7F0EED25F66F000EEE21FE
:10063800F76FE5C0F1F0E6C0F2F0E7C0F3F0E8C00C
:10064800F4F0000EE56F000EE66F000EE76F000E87
:10065800E86F000EF86F000EF96F000EFA6F000ECB
:10066800FB6F000EFD6F71EF03F0FD51D8B43FEF43
:1006780003F041EF03F058EF03F0D890F137F23769
:10068800F337F437D890E537E637E737E837FBAF85
:1006980050EF03F052EF03F053EF03F0E581D890E9
:1006A800F837F937FA37FB37E951F15DEA51F25972
:1006B800EB51F359EC51F459D8A065EF03F067EF0B
:1006C80003F070EF03F0FB8DE951F15FEA51F25B43
:1006D800EB51F35BEC51F45BFD2B190EFD6577EFE5
:1006E80003F079EF03F039EF03F0F151F211F31150
:1006F800F411D8B482EF03F084EF03F09CEF03F019
:10070800F8819CEF03F0D890E537E637E737E8370C
:10071800FBAF91EF03F093EF03F094EF03F0E58163
:10072800D890F837F937FA37FB37F607D8A0F70724
:10073800E7AFA1EF03F0A3EF03F087EF03F0000E9C
:10074800FD6FFBAFAAEF03F0ACEF03F0D0EF03F0BF
:10075800FF0EF815ED6FFF0EF915EE6FFF0EFA1587
:10076800EF6F7F0EFB15F06FED51EE11EF11F011E9
:10077800D8B4C1EF03F0C3EF03F0C7EF03F0010EE5
:10078800FD6FD0EF03F0E5A1CCEF03F0CEEF03F05F
:10079800D0EF03F0C3EF03F0FD51D8B4D6EF03F068
:1007A800D8EF03F0FCEF03F0010EE527000EE62377
:1007B800E723E823E8A1E3EF03F0E5EF03F0FCEF1C
:1007C80003F0E5C0EDF0E6C0EEF0E7C0EFF0E8C0FA
:1007D800F0F0F035F033EF33EE33ED33EDC0E5F004
:1007E800EEC0E6F0EFC0E7F0F0C0E8F0F64BF72B0C
:1007F800F7BF07EF04F0F75108E1F629D8A007EF93
:1008080004F009EF04F014EF04F0000EF76FF66936
:10081800000EE56F000EE66F000EE76F000EE86F42
:10082800F7BF21EF04F0F75106E1F605D8B01FEF46
:1008380004F021EF04F02FEF04F0000EF76F000E24
:10084800F66F000EE56F000EE66F000EE76F000E04
:10085800E86F000EF56FF6C0FCF0FCA136EF04F06F
:1008680038EF04F03BEF04F0E78F3CEF04F0E79F2C
:10087800D890FC31E86FF2EF02F01200000E000190
:10088800D16F000ED26F000ED36F000ED46F0F0120
:1008980020B751EF04F053EF04F0DFEF04F000014C
:1008A80020EE01F0CF51D926D051DA22DECFC2F0A6
:1008B800DECFC3F0DECFC4F0DECFC5F0CFC0D9FFA6
:1008C800D0C0DAFFDF50C66FD10EC76F000EC86FF9
:1008D800D20EC96F000ECA6FD30ECB6F000ECC6F4D
:1008E800D40ECD6F000ECE6FD9EC09F0D1C023FF26
:1008F800D2C024FFD3C021FFD4C022FF000120EEC4
:1009080005F0CF51D926D051DA22DF500F01256FDB
:10091800000120EE06F0CF51D926D051DA22DF505F
:100928000F01266F000120EE07F0CF51D926D051D4
:10093800DA22DF500F01276F000120EE08F0CF51B7
:10094800D926D051DA22DF500F01286F000120EE9E
:1009580009F0CF51D926D051DA22DF500F01296F83
:10096800000120EE0AF0CF51D926D051DA22DF500B
:100978000F012A6F000120EE0BF0CF51D926D0517C
:10098800DA22DF500F012B6F000120EE0CF0CF515F
:10099800D926D051DA22DF500F012C6F000120EE4A
:1009A8000DF0CF51D926D051DA22DF500F012D6F2B
:1009B800208705EF06F010B7E4EF04F0E6EF04F047
:1009C80072EF05F0000120EE01F0CF51D926D05189
:1009D800DA22DECFC2F0DECFC3F0DECFC4F0DECF46
:1009E800C5F0CFC0D9FFD0C0DAFFDF50C66FD10E37
:1009F800C76F000EC86FD20EC96F000ECA6FD30E34
:100A0800CB6F000ECC6FD40ECD6F000ECE6FD9EC2D
:100A180009F0D1C013FFD2C014FFD3C011FFD4C056
:100A280012FF000120EE05F0CF51D926D051DA226D
:100A3800DF500F01156F000120EE06F0CF51D926C7
:100A4800D051DA22DF500F01166F000120EE07F0B7
:100A5800CF51D926D051DA22DF500F01176F00018C
:100A680020EE08F0CF51D926D051DA22DF500F01FD
:100A7800186F000120EE09F0CF51D926D051DA22A3
:100A8800DF500F01196F000120EE0AF0CF51D9266F
:100A9800D051DA22DF500F011A6F000120EE0BF05F
:100AA800CF51D926D051DA22DF500F011B6F000138
:100AB80020EE0CF0CF51D926D051DA22DF500F01A9
:100AC8001C6F000120EE0DF0CF51D926D051DA224B
:100AD800DF500F011D6F1087DDEF04F000B777EFCF
:100AE80005F079EF05F005EF06F0000120EE01F0C2
:100AF800CF51D926D051DA22DECFC2F0DECFC3F0F3
:100B0800DECFC4F0DECFC5F0CFC0D9FFD0C0DAFF4A
:100B1800DF50C66FD10EC76F000EC86FD20EC96FF7
:100B2800000ECA6FD30ECB6F000ECC6FD40ECD6FF4
:100B3800000ECE6FD9EC09F0D1C003FFD2C004FF7C
:100B4800D3C001FFD4C002FF000120EE05F0CF5151
:100B5800D926D051DA22DF500F01056F000120EEAF
:100B680006F0CF51D926D051DA22DF500F01066F97
:100B7800000120EE07F0CF51D926D051DA22DF50FC
:100B88000F01076F000120EE08F0CF51D926D05190
:100B9800DA22DF500F01086F000120EE09F0CF5173
:100BA800D926D051DA22DF500F01096F000120EE5B
:100BB8000AF0CF51D926D051DA22DF500F010A6F3F
:100BC800000120EE0BF0CF51D926D051DA22DF50A8
:100BD8000F010B6F000120EE0CF0CF51D926D05138
:100BE800DA22DF500F010C6F000120EE0DF0CF511B
:100BF800D926D051DA22DF500F010D6F0087DDEFC3
:100C080004F0120060AE0BEF06F00DEF06F097EF60
:100C180006F062A612EF06F014EF06F033EF06F0C6
:100C280014C0D9FF15C0DAFF020EDF6E64CF01F0E1
:100C380061CF02F062CF03F0635094EC0AF020EE2B
:100C480001F01450D9261550DA2201C0DEFF02C087
:100C5800DEFF03C0DEFF04C0DEFF4CEF06F014C069
:100C6800D9FF15C0DAFF010EDF6E62CF01F06150C7
:100C780067EC0CF020EE01F01450D9261550DA225A
:100C880001C0DEFF02C0DEFF03C0DEFF04C0DEFFDE
:100C980020EE05F01450D9261550DA2265CFDFFF73
:100CA80020EE06F01450D9261550DA2266CFDFFF61
:100CB80020EE07F01450D9261550DA2267CFDFFF4F
:100CC80020EE08F01450D9261550DA2268CFDFFF3D
:100CD80020EE09F01450D9261550DA2269CFDFFF2B
:100CE80020EE0AF01450D9261550DA226ACFDFFF19
:100CF80020EE0BF01450D9261550DA226BCFDFFF07
:100D080020EE0CF01450D9261550DA226CCFDFFFF4
:100D180020EE0DF01450D9261550DA226DCFDFFFE2
:100D2800609E2AEF07F00F0130AF9DEF06F09FEFAE
:100D380006F02AEF07F032A7A4EF06F0A6EF06F0B8
:100D4800C5EF06F014C0D9FF15C0DAFF020EDF6E3A
:100D580034CF01F031CF02F032CF03F0335194ECAD
:100D68000AF020EE01F01450D9261550DA2201C0FD
:100D7800DEFF02C0DEFF03C0DEFF04C0DEFFDEEFE1
:100D880006F014C0D9FF15C0DAFF010EDF6E32CFAE
:100D980001F0315167EC0CF020EE01F01450D92627
:100DA8001550DA2201C0DEFF02C0DEFF03C0DEFFFD
:100DB80004C0DEFF20EE05F01450D9261550DA22C3
:100DC80035CFDFFF20EE06F01450D9261550DA2271
:100DD80036CFDFFF20EE07F01450D9261550DA225F
:100DE80037CFDFFF20EE08F01450D9261550DA224D
:100DF80038CFDFFF20EE09F01450D9261550DA223B
:100E080039CFDFFF20EE0AF01450D9261550DA2228
:100E18003ACFDFFF20EE0BF01450D9261550DA2216
:100E28003BCFDFFF20EE0CF01450D9261550DA2204
:100E38003CCFDFFF20EE0DF01450D9261550DA22F2
:100E48003DCFDFFF0F01309F95EF06F01200000E37
:100E580016EC0DF020C02AF021C02BF0000174051B
:100E6800D8A439EF07F03BEF07F01BEF08F0310487
:100E7800D8A441EF07F043EF07F047EF07F0010E62
:100E8800906F51EF07F03150D8A44DEF07F04FEFB6
:100E980007F051EF07F0000E906F000EE96F000E9B
:100EA800EA6F800EEB6F450EEC6F000ED06F000EF0
:100EB800D16FC80ED26F420ED36F2AC020F02BC05C
:100EC80021F0226A236A000EFDEC08F020C0CCF065
:100ED80021C0CDF022C0CEF023C0CFF05EEC00F0F0
:100EE800CCC0E5F0CDC0E6F0CEC0E7F0CFC0E8F06A
:100EF80074EC02F0E5C000F1E6C001F1E7C002F1D0
:100F0800E8C003F131EC0BF0010100510001AC6FB6
:100F18008251D8A492EF07F094EF07F0D1EF07F0D1
:100F2800000EE96F000EEA6FC80EEB6F420EEC6F11
:100F3800000ED06F000ED16FC80ED26F410ED36F66
:100F4800AC51206E216A226A236A000EFDEC08F07B
:100F580020C0CCF021C0CDF022C0CEF023C0CFF00D
:100F68005EEC00F0CCC0E5F0CDC0E6F0CEC0E7F016
:100F7800CFC0E8F074EC02F0E5C000F1E6C001F182
:100F8800E7C002F1E8C003F131EC0BF001010051B8
:100F9800326E32C0BAF01BEF08F08205D8A4D7EF42
:100FA80007F0D9EF07F019EF08F0000EE96F000E0F
:100FB800EA6FC80EEB6F420EEC6F000ED06F000E9A
:100FC800D16FC80ED26F410ED36FAC51206E216A1B
:100FD800226A236A000EFDEC08F020C0CCF021C084
:100FE800CDF022C0CEF023C0CFF05EEC00F0CCC034
:100FF800E5F0CDC0E6F0CEC0E7F0CFC0E8F074EC85
:1010080002F0E5C000F1E6C001F1E7C002F1E8C076
:1010180003F131EC0BF001010051326E3250010D39
:10102800F3500008326ECDEF07F0000EBA6F1200D1
:10103800D6EC0DF0D60E206E1A0E216E08EC0EF0CE
:10104800460E206E190E216E1CEC0EF0440E206E1A
:10105800180E216E21EC0EF0F28EF28CF90E0E01B4
:10106800F86FC30EF96F000EE06F000EE16F010E0E
:101078000001B96F310EB56F000EB66F000EB76F75
:10108800000EB86F010EAB6F320EA76F000EA86F7F
:10109800000EA96F000EAA6F010E8F6F330E8B6FB3
:1010A800000E8C6F000E8D6F000E8E6F400E656FF8
:1010B800000E616F000E626F000E636F000E646FAA
:1010C800D8EF08F099EC0DF00009D8B46EEF08F0ED
:1010D80070EF08F0D8EF08F089BA75EF08F078EFEC
:1010E80008F0010E79EF08F0000EFF0A0001FE6F0C
:1010F800FE3BFE478950FE19DF0BFE19896ED8EFBB
:1011080008F02BEC07F03F04D8A48DEF08F08FEF20
:1011180008F0D8EF08F0A60E0001CF6F000ED06FD0
:1011280042EC04F0000E3F6ED8EF08F02BEC07F00D
:101138003F04D8A4A2EF08F0A4EF08F0D8EF08F015
:10114800B40E0001CF6F000ED06F42EC04F096EFA2
:1011580008F02BEC07F03F04D8A4B5EF08F0B7EF80
:1011680008F0D8EF08F0A4EF08F099EC0DF00009AA
:10117800D8B4C1EF08F0C3EF08F0D8EF08F089BA87
:10118800C8EF08F0CBEF08F0010ECCEF08F0000E26
:10119800FF0A0001FE6FFE3BFE478950FE19DF0B78
:1011A800FE19896ED8EF08F026C0FEF027C0FFF0C0
:1011B8000001FF51000AD8B4E4EF08F0D8EF08F0B6
:1011C800FE51040AD8B466EF08F00C0AD8B485EFCB
:1011D80008F0010AD8B49AEF08F0180AD8B4ADEFAD
:1011E80008F0020AD8B4B9EF08F0D8EF08F05CEFBD
:1011F80000F00001C66F0001C651D8B406EF09F02F
:1012080008EF09F02AEF09F023BE0FEF09F00DEF00
:1012180009F02AEF09F020C0C2F021C0C3F022C0B3
:10122800C4F023C0C5F0C21FC31FC41FC51FC22BF3
:10123800000EC323C423C523C2C0C8F0C3C0C9F06D
:10124800C4C0CAF0C5C0CBF032EF09F020C0C8F066
:1012580021C0C9F022C0CAF023C0CBF02050211011
:1012680022102310D8A43BEF09F03DEF09F047EF17
:1012780009F0000E206E000E216E000E226E000E88
:10128800236ED8EF09F0960EC76F51EF09F0C72B00
:10129800D890CB33CA33C933C833000EC815C26FD0
:1012A800000EC915C36F000ECA15C46FFE0ECB150C
:1012B800C56FC251C311C411C511D8A466EF09F096
:1012C80068EF09F04BEF09F076EF09F0C72B010E34
:1012D800C827000EC923CA23CB23D890CB33CA33DF
:1012E800C933C833000EC815C26F000EC915C36FC5
:1012F800000ECA15C46FFF0ECB15C56FC251C311BE
:10130800C411C511D8A48BEF09F08DEF09F06AEF6D
:1013180009F095EF09F0C707D890C837C937CA3719
:10132800CB37CABF9AEF09F09CEF09F0A4EF09F098
:10133800020EC761A2EF09F0A4EF09F08FEF09F0E0
:10134800C7B1A9EF09F0ABEF09F0ACEF09F0CA9FFC
:10135800D890C733C7C0C2F0C36BC46BC56BC2C0DB
:10136800C5F0C46BC36BC26BC251C813C351C91358
:10137800C451CA13C551CB13C651D8B4C6EF09F02E
:10138800C8EF09F0D0EF09F023BECFEF09F0CDEF99
:1013980009F0D0EF09F0CB8FC8C020F0C9C021F008
:1013A800CAC022F0CBC023F01200020E0001C619F9
:1013B800D8A4E1EF09F0E3EF09F066EF0AF0C9C03D
:1013C800D9FFCAC0DAFFC2C0DFFFC2C020F0C3C065
:1013D80021F0C4C022F0C5C023F021C020F022C0F3
:1013E80021F023C022F0236A20C0C2F021C0C3F03C
:1013F80022C0C4F023C0C5F0C7C0D9FFC8C0DAFFF7
:10140800C2C0DFFFC2C020F0C3C021F0C4C022F0B8
:10141800C5C023F021C020F022C021F023C022F053
:10142800236A20C0C2F021C0C3F022C0C4F023C088
:10143800C5F0C251030B246EC2C020F0C3C021F016
:10144800C4C022F0C5C023F0030ED8902036213640
:1014580022362336E82E29EF0AF020C0C2F021C038
:10146800C3F022C0C4F023C0C5F0C251E00B24244D
:10147800246E2450080F246E2450EB0BCDC0D9FFE6
:10148800CEC0DAFFDF6EC2C020F0C3C021F0C4C0F6
:1014980022F0C5C023F021C020F022C021F023C0D3
:1014A80022F0236A20C0C2F021C0C3F022C0C4F0D9
:1014B80023C0C5F0CBC0D9FFCCC0DAFFC2C0DFFF64
:1014C80093EF0AF0C7C0D9FFC8C0DAFF000EDF6E7D
:1014D800C9C0D9FFCAC0DAFF000EDF6EC2C020F053
:1014E800C3C021F0C4C022F0C5C023F0050ED890B7
:1014F8002036213622362336E82E7BEF0AF020C02C
:10150800C2F021C0C3F022C0C4F023C0C5F0CDC0D2
:10151800D9FFCEC0DAFFC2C0DFFF47EF0AF01200E2
:10152800096E000E106E000E116E000E126E000E87
:10153800136E0350030B0E6E0338E842070B0F6E51
:101548000250056E066AD89005360636D8900536DC
:101558000636D8900536063605C010F006C011F0DC
:10156800000E11BEFF0E126E136E0F501024106E77
:10157800000E1120116E000E1220126E000E1320A4
:10158800136E10C005F011C006F012C007F013C0AA
:1015980008F0020ED8900536063607360836E82ECB
:1015A800CEEF0AF005C010F006C011F007C012F027
:1015B80008C013F00E501024106E000E1120116E8A
:1015C800000E1220126E000E1320136E10C006F0CB
:1015D80011C007F012C008F0056A05C010F006C077
:1015E80011F007C012F008C013F009501024106E53
:1015F800000E1120116E000E1220126E000E132024
:10160800136E10C006F011C007F012C008F0056A8A
:1016180005C010F006C011F007C012F008C013F0A2
:1016280001501024106E000E1120116E000E1220B1
:10163800126E000E1320136E10C00AF011C00BF0CA
:1016480012C00CF013C00DF00AC001F00BC002F07C
:101658000CC003F00DC004F012000101023503357F
:10166800256E2550D8A43BEF0BF03DEF0BF047EF6C
:101678000BF0000E006F000E016F000E026F000EDF
:10168800036FB4EF0BF000C104F101C105F102C111
:1016980006F103C107F1200E57EF0BF0D89007337E
:1016A800063305330433E82E52EF0BF00451246E51
:1016B800028FFF0E0017FF0E0117FF0E0217000E14
:1016C8000317960E255E25BE6EEF0BF06CEF0BF040
:1016D80084EF0BF02550800A970FD8B076EF0BF007
:1016E80078EF0BF07AEF0BF03DEF0BF0D890033367
:1016F800023301330033253E7AEF0BF09CEF0BF0F9
:101708001F0E25648AEF0BF08CEF0BF094EF0BF0B3
:101718003DEF0BF0D8900037013702370337250625
:101728002550D8A49AEF0BF09CEF0BF08EEF0BF03E
:101738002450D8B4A2EF0BF0A4EF0BF0ACEF0BF0F1
:10174800031F021F011F006D000E01230223032344
:1017580000C100F101C101F102C102F103C103F1AD
:101768001200800E6F6E6E50E00B800AD8A4BFEF97
:101778000BF0C1EF0BF0B7EF0BF0000E726E200EFE
:10178800706E000E0E01FA6F000EFB6F000EF86F00
:10179800000EF96F000EFE6F000EFF6F000EFC6F5B
:1017A800000EFD6F000EE26F000EE36F000EE06F9B
:1017B800000EE16F000EE66F000EE76F000EE46F9B
:1017C800000EE56F000EEA6F000EEB6F000EE86F7B
:1017D800000EE96F000EEE6F000EEF6F000EEC6F5B
:1017E800000EED6F000EF26F000EF36F000EF06F3B
:1017F800000EF16F000EF66F000EF76F000EF46F1B
:10180800000EF56F310E436FA80E446F810E456FC1
:101818005C0E206E1C0E216E21EC0EF07790768007
:10182800000E6F6E6ECF22F0E00E2216D8A41FEFC6
:101838000CF021EF0CF016EF0CF01200980E146E5D
:10184800000E156E06EC06F03EEF0CF020EE98F058
:1018580010EE6EF00D0EDBCFE3FFE806FCE220EEA3
:1018680098F010EE7CF00D0EDBCFE3FFE806FCE20B
:1018780066EF0CF099C016F09AC017F09BC018F0EC
:101888009CC019F01950000AD8B45FEF0CF066EF4D
:101898000CF01750000AD8B454EF0CF066EF0CF0B7
:1018A8001650110AD8B42AEF0CF0300AD8B433EF26
:1018B8000CF066EF0CF01850000AD8B44DEF0CF09D
:1018C80066EF0CF01200076E0750056E066AD89096
:1018D80005360636D89005360636D89005360636CB
:1018E80005C00CF006C00DF0000E0DBEFF0E0E6E0A
:1018F8000F6E01C005F0050E066ED8900532062E53
:1019080081EF0CF005500C240C6E000E0D200D6EAE
:10191800000E0E200E6E000E0F200F6E0CC008F089
:101928000DC009F00EC00AF00FC00BF008C001F09E
:1019380009C002F00AC003F00BC004F0120089BA13
:10194800A8EF0CF0ABEF0CF0010EACEF0CF0000EB2
:10195800FF0A016E013A014689500118DF0B011890
:10196800896E28502910D8A4BCEF0CF0BEEF0CF0FB
:10197800C6EF0CF0010E316E000E296E010E286EB6
:10198800D5EF0CF028042910D8A4CDEF0CF0CFEF38
:101998000CF0D5EF0CF0000E316E000E296E000E23
:1019A800286E1200F292F18C5A0E206E1C0E216ED7
:1019B8001CEC0EF0F288F090F18A000E206E000EFA
:1019C800216E17EC0EF0F092F188000E206E000EDA
:1019D800216E12EC0EF0F094F186000E206E000ECF
:1019E800216E0DEC0EF012009E9035C001F036C04D
:1019F80002F0C2EC0DF033503410D8B406EF0DF0FD
:101A080008EF0DF015EF0DF002D815EF0DF00500F9
:101A1800FA6E3350FD6E3450FE6EF850FF6EFA5079
:101A280012001200246E24C022F022462246C25020
:101A38002218830B2218C26EC280C282C2B227EF5C
:101A48000DF029EF0DF022EF0DF0C450236E226A3D
:101A5800C3502224206E000E2320216E12005E0E39
:101A6800F66E1C0EF76E000EF86E0900F5CF3FF00B
:101A780000EE60F0620EEE6AE806FDE100EE26F088
:101A88000D0EEE6AE806FDE140904092000EF86EF9
:101A980000011CEF08F0000EAA6E3C0ECF6EB00ECF
:101AA800CE6E9E90CE50CFCF22F0236A22C023F074
:101AB800226A2210356E2350366E9D80580E206E95
:101AC8001C0E216E08EC0EF0110ECD6E1200010EE8
:101AD8003F6E264A272A27BE7BEF0DF0275009E1E3
:101AE800140E265CD8A07BEF0DF07DEF0DF081EF92
:101AF8000DF0000E276E000E266E12003D503E10AF
:101B0800D8B489EF0DF08BEF0DF098EF0DF002D8F7
:101B180098EF0DF00500FA6E3D50FD6E3E50FE6EDA
:101B2800F850FF6EFA5012001200000E206E60AEE0
:101B3800A0EF0DF0A2EF0DF0A3EF0DF0202A0F019A
:101B480030AFA9EF0DF0ABEF0DF0ACEF0DF0202AA0
:101B580020501200000E896E000E8A6E000E8B6EE9
:101B6800CF0E926E9368BF0E946E1F0E0F015D6FBD
:101B7800030E5C6F000E5B6FF18E1200CDA4C7EFF1
:101B88000DF0C9EF0DF0D1EF0DF0CD900250CF6EF2
:101B980001C0CEFFCD80D5EF0DF00250CF6E01C051
:101BA800CEFF12002AEC0EF0AEEC0DF0FFEC0DF0BB
:101BB800D6EC0CF04FEC0DF0F4EC0DF0B5EC0BF0AE
:101BC800120002D8F2EF0DF00500FA6E2E50FD6EED
:101BD8002F50FE6EF850FF6EFA50120077901200E8
:101BE800010EC26E000EC16EB80EC06E000EC46E3D
:101BF800000EC36E1200600ED36E000ED26E000E81
:101C08009B6E000E9A6E120020C033F021C034F093
:101C1800120020C037F021C038F0120020C039F07F
:101C280021C03AF0120020C03BF021C03CF0120065
:101C380020C03DF021C03EF0120020C02EF021C08F
:101C48002FF01200F29282EC0DF01200D09E1200DA
:071C5800120012001200014E
:020000040020DA
:08000000FFFFFFFFFFFFFFFF00
:020000040030CA
:0E00000015027F7CFF8891FF0FC00FE00F40BC
:00000001FF
