:0400000026EF00F0F7
:100008005D82FACF01F0FBCF02F0F2AC0EEF00F008
:1000180010EF00F020EF00F076AC15EF00F017EFCE
:1000280000F020EF00F077AC1CEF00F01EEF00F0BE
:1000380020EF00F074EC0DF002C0FBFF01C0FAFFE6
:080048005D92110084EF0DF040
:10100000002578200A0D0000000E186E60AE0BEF70
:1010100008F00DEF08F099EF08F062A612EF08F063
:1010200014EF08F033EF08F016C0D9FF17C0DAFF4D
:10103000020EDF6E64CF03F061CF04F062CF05F0E3
:101040006350AAEC0AF020EE01F01650D926175092
:10105000DA2203C0DEFF04C0DEFF05C0DEFF06C0EB
:10106000DEFF4CEF08F016C0D9FF17C0DAFF010E03
:10107000DF6E62CF03F06150A6EC0CF020EE01F0C1
:101080001650D9261750DA2203C0DEFF04C0DEFF57
:1010900005C0DEFF06C0DEFF20EE05F01650D926A3
:1010A0001750DA2265CFDFFF20EE06F01650D92662
:1010B0001750DA2266CFDFFF20EE07F01650D92650
:1010C0001750DA2267CFDFFF20EE08F01650D9263E
:1010D0001750DA2268CFDFFF20EE09F01650D9262C
:1010E0001750DA2269CFDFFF20EE0AF01650D9261A
:1010F0001750DA226ACFDFFF20EE0BF01650D92608
:101100001750DA226BCFDFFF20EE0CF01650D926F5
:101110001750DA226CCFDFFF20EE0DF01650D926E3
:101120001750DA226DCFDFFF609E010E186E2CEF94
:1011300009F00F0130AF9FEF08F0A1EF08F02CEF9E
:1011400009F032A7A6EF08F0A8EF08F0C7EF08F003
:1011500016C0D9FF17C0DAFF020EDF6E34CF03F0DE
:1011600031CF04F032CF05F03351AAEC0AF020EE73
:1011700001F01650D9261750DA2203C0DEFF04C052
:10118000DEFF05C0DEFF06C0DEFFE0EF08F016C0A0
:10119000D9FF17C0DAFF010EDF6E32CF03F03151F5
:1011A000A6EC0CF020EE01F01650D9261750DA22EA
:1011B00003C0DEFF04C0DEFF05C0DEFF06C0DEFFA9
:1011C00020EE05F01650D9261750DA2235CFDFFF72
:1011D00020EE06F01650D9261750DA2236CFDFFF60
:1011E00020EE07F01650D9261750DA2237CFDFFF4E
:1011F00020EE08F01650D9261750DA2238CFDFFF3C
:1012000020EE09F01650D9261750DA2239CFDFFF29
:1012100020EE0AF01650D9261750DA223ACFDFFF17
:1012200020EE0BF01650D9261750DA223BCFDFFF05
:1012300020EE0CF01650D9261750DA223CCFDFFFF3
:1012400020EE0DF01650D9261750DA223DCFDFFFE1
:101250000F01309F95EF08F018501200000163BF96
:101260003CEF09F0635106E16205D8B03AEF09F0AE
:101270003CEF09F042EF09F0000E376E010E366EBA
:1012800046EF09F062C036F063C037F060C032F05C
:1012900061C033F022C038F023C039F024C03AF0E6
:1012A00025C03BF026C03CF027C03DF028C03EF0F2
:1012B00029C03FF0000E416E1F0E406E000E856F7C
:1012C000BDEF09F04006D8A0410638500F0B426E22
:1012D000090E42646EEF09F070EF09F078EF09F043
:1012E000570E4224346E356A000E35227EEF09F027
:1012F000300E4224346E356A000E352234C042F07E
:10130000660E4024D96E000E4120DA6E42C0DFFF27
:101310003606D8A037063206D8A0330638C02AF0E1
:1013200039C02BF03AC02CF03BC02DF03CC02EF061
:101330003DC02FF03EC030F03FC031F0050EAAEFA7
:1013400009F0D890313230322F322E322D322C32F9
:101350002B322A32E82EA1EF09F02AC038F02BC038
:1013600039F02CC03AF02DC03BF02EC03CF02FC01D
:101370003DF030C03EF031C03FF041BEC9EF09F052
:10138000415009E1020E405CD8A0C9EF09F0CBEF53
:1013900009F0E7EF09F0385039103A103B103C10D3
:1013A0003D103E103F10D8A4D8EF09F0DAEF09F055
:1013B00062EF09F037BEE7EF09F0375006E1360477
:1013C000D8B0E5EF09F0E7EF09F062EF09F020C0CF
:1013D00015F021C016F0660E4024176E000E412055
:1013E000186E32C019F033C01AF069EC0CF012001C
:1013F00045C0D9FF46C0DAFFDECFF6FFDDCFF7FFED
:101400000800F550250AD8A408EF0AF00AEF0AF000
:1014100095EF0AF045C0D9FF46C0DAFFDE2A000E7C
:10142000DD22000E0001616F000E606F60C05BF096
:101430006269636945C0D9FF46C0DAFFDECF55F067
:10144000DDCF56F055C0F6FF56C0F7FF0800F55047
:10145000780AD8A42EEF0AF030EF0AF08CEF0AF0E9
:1014600047C0D9FF48C0DAFFDFCF49F0020EDE26C1
:10147000DFCF4AF0000EDD2249C0D9FF4AC0DAFFB3
:10148000DECF4BF0DDCF4CF04BC04DF04CC04EF0FA
:101490004F6A506A516A526A536A546A010E55245F
:1014A000496E000E56204A6E45C0D9FF46C0DAFF8D
:1014B00049C0DEFF4AC0DDFF76EF0AF043C020F0EE
:1014C00044C021F04DC022F04EC023F04FC024F0A4
:1014D00050C025F051C026F052C027F053C028F06C
:1014E00054C029F02EEC09F0A9EF0AF055C0F6FF20
:1014F00056C0F7FF0800F550496E4A6A4A50000A84
:10150000D8B485EF0AF08CEF0AF04950780AD8B4C5
:101510005EEF0AF08CEF0AF045C0D9FF46C0DAFF53
:10152000DE2A000EDD22A9EF0AF045C0D9FF46C031
:10153000DAFFDECFF6FFDDCFF7FF0800F550056ECE
:10154000066A43C007F044C008F01EEC0CF08CEFB4
:101550000AF012000B6E000E126E000E136E000EDB
:10156000146E000E156E0550030B106E0538E84220
:10157000070B116E0450076E086AD89007360836BC
:10158000D89007360836D8900736083607C012F0CC
:1015900008C013F0000E13BEFF0E146E156E11502E
:1015A0001224126E000E1320136E000E1420146EFF
:1015B000000E1520156E12C007F013C008F014C0FD
:1015C00009F015C00AF0020ED89007360836093621
:1015D0000A36E82EE4EF0AF007C012F008C013F054
:1015E00009C014F00AC015F010501224126E000E3B
:1015F0001320136E000E1420146E000E1520156EAD
:1016000012C008F013C009F014C00AF0076A07C03E
:1016100012F008C013F009C014F00AC015F00B5006
:101620001224126E000E1320136E000E1420146E7E
:10163000000E1520156E12C008F013C009F014C07A
:101640000AF0076A07C012F008C013F009C014F0CE
:101650000AC015F003501224126E000E1320136EF0
:10166000000E1420146E000E1520156E12C00CF022
:1016700013C00DF014C00EF015C00FF00CC003F035
:101680000DC004F00EC005F00FC006F01200800E71
:101690006F6E6E50E00B800AD8A451EF0BF053EF41
:1016A0000BF049EF0BF0000E726E200E706E000E04
:1016B0000E01FA6F000EFB6F000EF86F000EF96F4F
:1016C000000EFE6F000EFF6F000EFC6F000EFD6F30
:1016D000000EE26F000EE36F000EE06F000EE16F90
:1016E000000EE66F000EE76F000EE46F000EE56F70
:1016F000000EEA6F000EEB6F000EE86F000EE96F50
:10170000000EEE6F000EEF6F000EEC6F000EED6F2F
:10171000000EF26F000EF36F000EF06F000EF16F0F
:10172000000EF66F000EF76F000EF46F000EF56FEF
:10173000180E436F980E446F010E456F9A0E036E9C
:101740001B0E046EC6EC0DF0779C768C000E6F6E4F
:101750006ECF05F0E00E0516D8A4B1EF0BF0B3EF95
:101760000BF0A8EF0BF012009EEC0DF0860E166E3B
:10177000000E176E04EC08F00009D8B4C2EF0BF0AD
:10178000C4EF0BF0B6EF0BF089BAC9EF0BF0CCEF5A
:101790000BF0010ECDEF0BF0000EFF0A00019E6F63
:1017A0009E3B9E4789509E19DF0B9E19896E210E24
:1017B0008719881189118A11D8A4E1EF0BF0E3EFA2
:1017C0000BF0B6EF0BF0010E9A6F100E9B6F8CC0F2
:1017D0009CF09D6B60EC0DF0FEEF0BF08994899608
:1017E000B6EF0BF089848996B6EF0BF08994898661
:1017F000B6EF0BF089848986B6EF0BF000018C51AF
:101800009E6F9F6B9F51000AD8B409EF0CF0B6EFA2
:101810000BF09E51000AD8B4EEEF0BF0010AD8B4D9
:10182000F2EF0BF0030AD8B4F6EF0BF0010AD8B4CC
:10183000FAEF0BF0B6EF0BF026EF00F007500810B0
:10184000D8B425EF0CF027EF0CF030EF0CF0075078
:101850000810D8A42EEF0CF030EF0CF035EF0CF0A0
:101860000550B2EC0DF068EF0CF020EE09F00750D7
:10187000D9260850DA22DE50DE10D8B442EF0CF040
:1018800044EF0CF05FEF0CF020EE09F00750D92682
:101890000850DA2210EE03F00750E1260850E22249
:1018A000DE50E65CE650800A0D6EDE50800A0D5870
:1018B000D8B05DEF0CF05FEF0CF068EF0CF020EEAD
:1018C00003F00750D9260850DA22DE2A000EDD2266
:1018D00012001ABE6EEF0CF070EF0CF076EF0CF009
:1018E00019C01EF01AC01FF07AEF0CF0000E1F6E28
:1018F000000E1E6E000E1D6E000E1C6E8CEF0CF0A6
:10190000000E066E200E056E15C007F016C008F01A
:101910001EEC0CF01C4A1D2A1E501C5C1D50800A37
:101920001B6E1F50800A1B58D8A099EF0CF09BEF3C
:101930000CF080EF0CF017C00EF018C00FF015C0BF
:1019400010F016C011F00AEC0DF01200096E0950EB
:10195000076E086AD89007360836D89007360836DA
:10196000D8900736083607C00EF008C00FF0000EFA
:101970000FBEFF0E106E116E03C007F0050E086E4D
:10198000D8900732082EC0EF0CF007500E240E6ED0
:10199000000E0F200F6E000E1020106E000E112092
:1019A000116E0EC00AF00FC00BF010C00CF011C089
:1019B0000DF00AC003F00BC004F00CC005F00DC020
:1019C00006F0120096C057F097C058F0F6EF0CF0F2
:1019D00094C043F095C044F0570E456E000E466E1D
:1019E00098C047F099C048F0F8EC09F057C0F6FFEE
:1019F00058C0F7FF0800F5500009D8A402EF0DF019
:101A000004EF0DF0E8EF0CF0000E0001956F000EF2
:101A1000946F1200000E146E000E136E1BEF0DF08B
:101A200012C005F0066A10C007F011C008F01EECE5
:101A30000CF0134A142A13500E24D96E14500F20A0
:101A4000DA6EDF50126E1250D8A429EF0DF02BEF92
:101A50000DF010EF0DF01200080EA76E900EAB6E99
:101A6000240EAC6ECF0EAF6E000E7D6E000E036EB8
:101A7000000E046EBCEC0DF0000E036E000E046E42
:101A8000B7EC0DF0000E036E000E046EC1EC0DF00D
:101A9000000E5C6E1200000E896E000E8A6E000E43
:101AA0008B6EC30E926EFB0E936EBF0E946E1F0E66
:101AB0000F015D6F030E5C6F000E5B6FF18E120005
:101AC0009C0E596E000E5A6E000E0001946F000EAF
:101AD000956F9AC096F09BC097F0590E986F000EC4
:101AE000996FE2EC0CF0120002D882EF0DF00500C5
:101AF0000001FA6E6451FD6E6551FE6EF850FF6E86
:101B0000FA501200779C120000EE60F0340EEE6A7C
:101B1000E806FDE15C6A5B6A5D905D92000EF86E1E
:101B20000001B4EF0BF0036E9EA899EF0DF09BEF50
:101B30000DF094EF0DF003C0ADFF1200CBEC0DF0F3
:101B40004BEC0DF0A9EC0DF02CEC0DF047EC0BF08C
:101B50001200600ED36E000ED26E000E9B6E000E51
:101B60009A6E1200046E045093EC0DF0120003C044
:101B7000A2F004C0A3F0120003C0A4F004C0A5F0BA
:101B8000120003C0A0F004C0A1F0120003C064F072
:0C1B900004C065F01200D09E120012008C
:020000040020DA
:08000000FFFFFFFFFFFFFFFF00
:020000040030CA
:0E00000015087F7CFF8991FF0FC00FE00F40B5
:00000001FF
