:0400000080EF00F09D
:100008004882FACF25F0FBCF26F0E1CF27F0E2CFE8
:1000180028F0D9CF29F0DACF2AF0F2AA16EF00F0AB
:1000280018EF00F023EF00F0F2A41DEF00F01FEF2F
:1000380000F023EF00F0D5EC15F072EF00F0F2AC11
:1000480028EF00F02AEF00F072EF00F076AC2FEF07
:1000580000F031EF00F03CEF00F077AC36EF00F045
:1000680038EF00F03CEF00F09EEC16F072EF00F075
:1000780076A041EF00F043EF00F04EEF00F077A0DC
:1000880048EF00F04AEF00F04EEF00F0ADEC16F04C
:1000980072EF00F09DA253EF00F055EF00F060EF13
:1000A80000F09EA25AEF00F05CEF00F060EF00F065
:1000B80018EC16F072EF00F09DA065EF00F067EF06
:1000C80000F072EF00F09EA06CEF00F06EEF00F011
:1000D80072EF00F0D3EC16F072EF00F02AC0DAFFEE
:1000E80029C0D9FF28C0E2FF27C0E1FF26C0FBFFD7
:0C00F80025C0FAFF48921100A3EF14F09D
:101000000045746174206C756D696572652061724C
:1010100072696572653A20414354495645200A0A6F
:101020000D0045746174206C756D69657265206191
:101030007272696572653A20455252455552200ACE
:101040000D0045746174206C756D69657265206171
:1010500076616E74203A20455252455552200A0D51
:101060000045746174206C756D69657265206176E8
:10107000616E743A20414354495645200A0D000AD6
:101080000D44454D414E4445204445205645524966
:101090004649434154494F4E0A0A0D004572726554
:1010A0007572733A20253464202534640D0A0A00D1
:0110B000003F
:1010B200000E0001746F000E756F000E766F000E49
:1010C200776F0F0120B768EF08F06AEF08F0F6EFCC
:1010D20008F0000120EE01F07251D9267351DA2294
:1010E200DECF60F0DECF61F0DECF62F0DECF63F004
:1010F20072C0D9FF73C0DAFFDF50646F740E656F80
:10110200000E666F750E676F000E686F760E696F60
:10111200000E6A6F770E6B6F000E6C6F95EC0FF01E
:1011220074C023FF75C024FF76C021FF77C022FF61
:10113200000120EE05F07251D9267351DA22DF50F8
:101142000F01256F000120EE06F07251D92673516E
:10115200DA22DF500F01266F000120EE07F07251F4
:10116200D9267351DA22DF500F01276F000120EEDA
:1011720008F07251D9267351DA22DF500F01286F1D
:10118200000120EE09F07251D9267351DA22DF50A4
:101192000F01296F000120EE0AF07251D926735116
:1011A200DA22DF500F012A6F000120EE0BF072519C
:1011B200D9267351DA22DF500F012B6F000120EE86
:1011C2000CF07251D9267351DA22DF500F012C6FC5
:1011D200000120EE0DF07251D9267351DA22DF5050
:1011E2000F012D6F20871CEF0AF010B7FBEF08F0FC
:1011F200FDEF08F089EF09F0000120EE01F07251D5
:10120200D9267351DA22DECF60F0DECF61F0DECF75
:1012120062F0DECF63F072C0D9FF73C0DAFFDF5035
:10122200646F740E656F000E666F750E676F000E49
:10123200686F760E696F000E6A6F770E6B6F000E25
:101242006C6F95EC0FF074C013FF75C014FF76C07D
:1012520011FF77C012FF000120EE05F07251D9266E
:101262007351DA22DF500F01156F000120EE06F0F4
:101272007251D9267351DA22DF500F01166F000125
:1012820020EE07F07251D9267351DA22DF500F0196
:10129200176F000120EE08F07251D9267351DA223D
:1012A200DF500F01186F000120EE09F07251D926AC
:1012B2007351DA22DF500F01196F000120EE0AF09C
:1012C2007251D9267351DA22DF500F011A6F0001D1
:1012D20020EE0BF07251D9267351DA22DF500F0142
:1012E2001B6F000120EE0CF07251D9267351DA22E5
:1012F200DF500F011C6F000120EE0DF07251D92654
:101302007351DA22DF500F011D6F1087F4EF08F0DE
:1013120000B78EEF09F090EF09F01CEF0AF0000120
:1013220020EE01F07251D9267351DA22DECF60F03D
:10133200DECF61F0DECF62F0DECF63F072C0D9FFA4
:1013420073C0DAFFDF50646F740E656F000E666F54
:10135200750E676F000E686F760E696F000E6A6F0A
:10136200770E6B6F000E6C6F95EC0FF074C003FF7D
:1013720075C004FF76C001FF77C002FF000120EEB6
:1013820005F07251D9267351DA22DF500F01056F31
:10139200000120EE06F07251D9267351DA22DF5095
:1013A2000F01066F000120EE07F07251D92673512A
:1013B200DA22DF500F01076F000120EE08F07251B0
:1013C200D9267351DA22DF500F01086F000120EE97
:1013D20009F07251D9267351DA22DF500F01096FD9
:1013E200000120EE0AF07251D9267351DA22DF5041
:1013F2000F010A6F000120EE0BF07251D9267351D2
:10140200DA22DF500F010B6F000120EE0CF0725157
:10141200D9267351DA22DF500F010C6F000120EE42
:101422000DF07251D9267351DA22DF500F010D6F80
:101432000087F4EF08F012007FC095F080C096F0AC
:1014420081C097F082C098F083C099F084C09AF06E
:1014520085C09BF086C09CF000019CBF33EF0AF070
:1014620036EF0AF0010E37EF0AF0000E9D6F9D5124
:10147200D8B43EEF0AF040EF0AF050EF0AF09C1F9A
:101482009B1F9A1F991F981F971F961F956D000EFD
:1014920096239723982399239A239B239C23D8BF8F
:1014A2005DEF0AF0D85106E1D705D8B05BEF0AF03C
:1014B2005DEF0AF063EF0AF0000E926F010E916F7A
:1014C20067EF0AF0D7C091F0D8C092F0D5C093F080
:1014D200D6C094F09D51D8B471EF0AF073EF0AF0C0
:1014E2008AEF0AF09307D8A094079D51D8A47CEF05
:1014F2000AF07EEF0AF084EF0AF0000E906F2B0ED6
:101502008F6F88EF0AF0000E906F2D0E8F6F8FC0D5
:101512009DF0000E9F6F1F0E9E6F000E01011F6F48
:1015220010EF0BF09E07D8A09F07000E9E25D96EE4
:10153200010E9F21DA6E95C060F096C061F097C0EF
:1015420062F098C063F099C064F09AC065F09BC0E5
:1015520066F09CC067F00A0E686F000E696F000E9D
:101562006A6F000E6B6F000E6C6F000E6D6F000ED7
:101572006E6F000E6F6F50EC10F060C087F061C0AC
:1015820088F062C089F063C08AF064C08BF065C0E5
:101592008CF066C08DF067C08EF087C072F088C094
:1015A20073F032EC15F000017251300FDF6E9107CB
:1015B200D8A092079307D8A0940795C060F096C070
:1015C20061F097C062F098C063F099C064F09AC06D
:1015D20065F09BC066F09CC067F00A0E686F000E53
:1015E200696F000E6A6F000E6B6F000E6C6F000E5B
:1015F2006D6F000E6E6F000E6F6FD0EC0EF060C05C
:1016020095F061C096F062C097F063C098F064C034
:1016120099F065C09AF066C09BF067C09CF000012B
:101622009FBF1CEF0BF09F5108E19E05D8A01CEF55
:101632000BF01EEF0BF03AEF0BF09551961197114C
:10164200981199119A119B119C11D8A42BEF0BF0B0
:101652002DEF0BF093EF0AF092BF3AEF0BF092519D
:1016620006E19105D8B038EF0BF03AEF0BF093EFAB
:101672000AF09D51D8B440EF0BF042EF0BF04DEF62
:101682000BF09E07D8A09F07000E9E25D96E010E73
:101692009F21DA6E9DC0DFFF7DC072F07EC073F0C5
:1016A200000E9E25746F010E9F21756F93C076F018
:1016B20094C077F033EC13F0120069EC16F0600E70
:1016C200606E4C0E0001606F2E0E616FFEEC16F024
:1016D200540E0001606F2E0E616F03EC17F0BA0E0C
:1016E2000001606F2D0E616F08EC17F0260E0001ED
:1016F200606F280E616F21EC17F0F28EF28C610E92
:101702000001E46F000EE56F000EE66F000EE76F5A
:10171200CCEF0BF0DABF97EF0BF0DA5109E10A0ECA
:10172200D95DD8A097EF0BF099EF0BF0A7EF0BF074
:10173200BFEC12F0E30E0001726F000E736F59ECF2
:1017420008F0000E0001DA6F000ED96F610EC819A1
:10175200C911CA11CB11D8A4B1EF0BF0B3EF0BF042
:10176200DFEF0BF0CC51D8A4B9EF0BF0BBEF0BF0CD
:10177200C1EF0BF07F0EBB6F100EBC6F2DEC16F09D
:10178200BFEC12F0E30E0001726F000E736F59ECA2
:1017920008F0DFEF0BF0DFC0C3F0E0C0C4F00001DF
:1017A200C451000AD8B4D8EF0BF0DFEF0BF0C351ED
:1017B200100AD8B48BEF0BF0DFEF0BF00001E2510F
:1017C200D8A4E6EF0BF0E8EF0BF03EEF0CF016EFCB
:1017D2000CF0CD51D8A4F0EF0BF0F2EF0BF0F6EFD6
:1017E2000BF0010EF26FCCEF0BF0000EF26FCCEFAC
:1017F2000BF0CD51D8A400EF0CF002EF0CF012EF79
:101802000CF0F251D8B408EF0CF00AEF0CF012EF22
:101812000CF089848996010EF16F000EE26FCCEF15
:101822000BF0010EE26FCCEF0BF0C8C0C3F0C9C0E1
:10183200C4F0CAC0C5F0CBC0C6F0C651000AD8B4C5
:1018420037EF0CF0CCEF0BF0C451000AD8B42CEFF8
:101852000CF0CCEF0BF0C351120AD8B4FAEF0BF034
:10186200010AD8B4EAEF0BF0CCEF0BF0C551000A35
:10187200D8B425EF0CF0CCEF0BF0F151D8B444EF13
:101882000CF046EF0CF06AEF0CF0150E0001C46F7D
:101892004B0EC36FBE0EE82EFED7C32FFCD7C42F4C
:1018A200FAD700F0000E0001F16F899489966AEF71
:1018B2000CF0CD51D8A460EF0CF062EF0CF012EFF7
:1018C2000CF0000EE26FCCEF0BF049EC14F0CCEF11
:1018D2000BF0C8C0C3F0C9C0C4F0CAC0C5F0CBC0C9
:1018E200C6F0C651000AD8B48BEF0CF0CCEF0BF067
:1018F200C451000AD8B480EF0CF0CCEF0BF0C35106
:10190200120AD8B45AEF0CF0410AD8B466EF0CF0C0
:10191200CCEF0BF0C551000AD8B479EF0CF0CCEF44
:101922000BF080EF00F060AE99EF0CF09BEF0CF043
:1019320025EF0DF062A6A0EF0CF0A2EF0CF0C1EFC4
:101942000CF014C0D9FF15C0DAFF020EDF6E64CFAF
:1019520001F061CF02F062CF03F06350AAEC11F004
:1019620020EE01F01450D9261550DA2201C0DEFF14
:1019720002C0DEFF03C0DEFF04C0DEFFDAEF0CF0C0
:1019820014C0D9FF15C0DAFF010EDF6E62CF01F07D
:101992006150D7EC13F020EE01F01450D926155007
:1019A200DA2201C0DEFF02C0DEFF03C0DEFF04C098
:1019B200DEFF20EE05F01450D9261550DA2265CF4D
:1019C200DFFF20EE06F01450D9261550DA2266CF3A
:1019D200DFFF20EE07F01450D9261550DA2267CF28
:1019E200DFFF20EE08F01450D9261550DA2268CF16
:1019F200DFFF20EE09F01450D9261550DA2269CF04
:101A0200DFFF20EE0AF01450D9261550DA226ACFF1
:101A1200DFFF20EE0BF01450D9261550DA226BCFDF
:101A2200DFFF20EE0CF01450D9261550DA226CCFCD
:101A3200DFFF20EE0DF01450D9261550DA226DCFBB
:101A4200DFFF609EB8EF0DF00F0130AF2BEF0DF00E
:101A52002DEF0DF0B8EF0DF032A732EF0DF034EFAD
:101A62000DF053EF0DF014C0D9FF15C0DAFF020ECE
:101A7200DF6E34CF01F031CF02F032CF03F03351B9
:101A8200AAEC11F020EE01F01450D9261550DA22FA
:101A920001C0DEFF02C0DEFF03C0DEFF04C0DEFFC6
:101AA2006CEF0DF014C0D9FF15C0DAFF010EDF6E26
:101AB20032CF01F03151D7EC13F020EE01F0145087
:101AC200D9261550DA2201C0DEFF02C0DEFF03C0B4
:101AD200DEFF04C0DEFF20EE05F01450D9261550BB
:101AE200DA2235CFDFFF20EE06F01450D92615504A
:101AF200DA2236CFDFFF20EE07F01450D926155038
:101B0200DA2237CFDFFF20EE08F01450D926155025
:101B1200DA2238CFDFFF20EE09F01450D926155013
:101B2200DA2239CFDFFF20EE0AF01450D926155001
:101B3200DA223ACFDFFF20EE0BF01450D9261550EF
:101B4200DA223BCFDFFF20EE0CF01450D9261550DD
:101B5200DA223CCFDFFF20EE0DF01450D9261550CB
:101B6200DA223DCFDFFF0F01309F23EF0DF012008D
:101B7200A2C0D9FFA3C0DAFFDECFF6FFDDCFF7FFA9
:101B82000800F550250AD8A4C9EF0DF0CBEF0DF0EF
:101B9200BAEF0EF0A2C0D9FFA3C0DAFFDE2A000E10
:101BA200DD22000E0001D66F000ED56FD5C0E1F028
:101BB200D769D869A2C0D9FFA3C0DAFFDECFF6FF8A
:101BC200DDCFF7FF0800F5502A0AD8A4EBEF0DF09D
:101BD200EDEF0DF016EF0EF0A2C0D9FFA3C0DAFFB1
:101BE200DE2A000EDD22A4C0D9FFA5C0DAFFDFCFB6
:101BF200A6F0020EDE26DFCFA7F0000EDD22A6C081
:101C0200D9FFA7C0DAFFDECFD5F0DDCFD6F0D6BF41
:101C12000FEF0EF00DEF0EF04AEF0EF0E181D56DF1
:101C2200D61FD8B0D62B4AEF0EF0A2C0D9FFA3C060
:101C3200DAFFDECF66F0DDCF67F003EC11F066C0AD
:101C4200D5F067C0D6F02DEF0EF0A2C0D9FFA3C029
:101C5200DAFFDE2A000EDD22A2C0D9FFA3C0DAFF1E
:101C6200DECFF6FFDDCFF7FF0800F5CFA6F0D00EEE
:101C72000001A625A76FA86BFF0EA823A85109E1B2
:101C82000A0EA75DD8A048EF0EF04AEF0EF026EF3D
:101C92000EF0A2C0D9FFA3C0DAFFDECFB1F0DDCFD4
:101CA200B2F0B1C0F6FFB2C0F7FF0800F550640A07
:101CB200D8B45EEF0EF060EF0EF06EEF0EF0B1C032
:101CC200F6FFB2C0F7FF0800F550690AD8A46CEF1E
:101CD2000EF06EEF0EF0B1EF0EF0A4C0D9FFA5C06A
:101CE200DAFFDFCFA6F0020EDE26DFCFA7F0000E6E
:101CF200DD22A6C0D9FFA7C0DAFFDECFA9F0DDCF73
:101D0200AAF0000EAABFFF0EAB6FAC6FAD6FAE6F45
:101D1200AF6FB06F010EB125A66F000EB221A76F93
:101D2200A2C0D9FFA3C0DAFFA6C0DEFFA7C0DDFFB5
:101D3200A0C07DF0A1C07EF0A9C07FF0AAC080F053
:101D4200ABC081F0ACC082F0ADC083F0AEC084F015
:101D5200AFC085F0B0C086F01DEC0AF0CFEF0EF0F8
:101D6200A2C0D9FFA3C0DAFFDE2A000EDD22CFEF28
:101D72000EF0A2C0D9FFA3C0DAFFDECFF6FFDDCF9F
:101D8200F7FF0800F5500001626F636BA0C064F0BA
:101D9200A1C065F08BEC13F0B1EF0EF01200000E53
:101DA2000001716F6FBFDAEF0EF0D8EF0EF0ECEFBB
:101DB2000EF06F1F6E1F6D1F6C1F6B1F6A1F691F56
:101DC200686D000E69236A236B236C236D236E23D7
:101DD2006F23010E716F67BFF3EF0EF0F1EF0EF09C
:101DE20005EF0FF0671F661F651F641F631F621FE9
:101DF200611F606D000E61236223632364236523E8
:101E020066236723010E711B20EE72F0070EDE6A55
:101E1200E806FDE2685169116A116B116C116D11CE
:101E22006E116F11D8B418EF0FF01AEF0FF06CEFBC
:101E32000FF0010E706F28EF0FF0D89068376937F6
:101E42006A376B376C376D376E376F37702B6FAF02
:101E52002DEF0FF02FEF0FF01EEF0FF0D89072372B
:101E620073377437753776377737783779376851FC
:101E7200605D695161596A5162596B5163596C5184
:101E820064596D5165596E5166596F516759D8A0A1
:101E92004DEF0FF04FEF0FF060EF0FF06851605F02
:101EA2006951615B6A51625B6B51635B6C51645B4C
:101EB2006D51655B6E51665B6F51675B7281D89045
:101EC2006F336E336D336C336B336A33693368331C
:101ED200702F2FEF0FF07151D8B472EF0FF074EF33
:101EE2000FF084EF0FF0791F781F771F761F751F91
:101EF200741F731F726D000E732374237523762370
:101F020077237823792372C060F073C061F074C0C4
:101F120062F075C063F076C064F077C065F078C097
:101F220066F079C067F01200020E00016419D8A4AD
:101F32009DEF0FF09FEF0FF022EF10F067C0D9FF77
:101F420068C0DAFF60C0DFFF60C06DF061C06EF094
:101F520062C06FF063C070F06EC06DF06FC06EF063
:101F620070C06FF0706B6DC060F06EC061F06FC0DA
:101F720062F070C063F065C0D9FF66C0DAFF60C06E
:101F8200DFFF60C06DF061C06EF062C06FF063C0D1
:101F920070F06EC06DF06FC06EF070C06FF0706B5D
:101FA2006DC060F06EC061F06FC062F070C063F02F
:101FB2006051030B716F60C06DF061C06EF062C062
:101FC2006FF063C070F0030ED8906D376E376F37C5
:101FD2007037E82EE5EF0FF06DC060F06EC061F073
:101FE2006FC062F070C063F06051E00B7125716FD9
:101FF2007151080F716F7151EB0B6BC0D9FF6CC03F
:10200200DAFFDF6E60C06DF061C06EF062C06FF02B
:1020120063C070F06EC06DF06FC06EF070C06FF094
:10202200706B6DC060F06EC061F06FC062F070C026
:1020320063F069C0D9FF6AC0DAFF60C0DFFF4FEF0B
:1020420010F065C0D9FF66C0DAFF000EDF6E67C010
:10205200D9FF68C0DAFF000EDF6E60C06DF061C0AC
:102062006EF062C06FF063C070F0050ED8906D37ED
:102072006E376F377037E82E37EF10F06DC060F0B3
:102082006EC061F06FC062F070C063F06BC0D9FFC8
:102092006CC0DAFF60C0DFFF03EF10F01200000E29
:1020A2000001716F67BF5AEF10F058EF10F06CEF3C
:1020B20010F0671F661F651F641F631F621F611F89
:1020C200606D000E6123622363236423652366230C
:1020D2006723010E716F6FBF73EF10F071EF10F095
:1020E20083EF10F06F1F6E1F6D1F6C1F6B1F6A1F37
:1020F200691F686D000E69236A236B236C236D23AD
:102102006E236F23685169116A116B116C116D1185
:102112006E116F11D8B490EF10F092EF10F0DAEF69
:1021220010F0010E706FA0EF10F0D8906837693789
:102132006A376B376C376D376E376F37702B6FAF0F
:10214200A5EF10F0A7EF10F096EF10F06851605D68
:10215200695161596A5162596B5163596C516459A1
:102162006D5165596E5166596F516759D8A0BCEFD0
:1021720010F0BEEF10F0CEEF10F06851605F6951C1
:10218200615B6A51625B6B51635B6C51645B6D5165
:10219200655B6E51665B6F51675BD8906F336E33D0
:1021A2006D336C336B336A3369336833702FA7EF47
:1021B20010F07151D8B4E0EF10F0E2EF10F0F2EF4E
:1021C20010F0671F661F651F641F631F621F611F78
:1021D200606D000E612362236323642365236623FB
:1021E200672360C060F061C061F062C062F063C0EA
:1021F20063F064C064F065C065F066C066F067C0F5
:1022020067F01200000E00016E6F000E6D6F000E7F
:102212006C6F000E6B6F10EF11F0664B672B66C090
:10222200F6FF67C0F7FF0800F550200AD8B41CEF8C
:1022320011F01EEF11F00EEF11F066C0F6FF67C04D
:10224200F7FF0800F5CF68F0F70E6825696F6A6B33
:10225200FF0E6A236A5109E1050E695DD8A034EFC9
:1022620011F036EF11F00EEF11F040EF11F0000E09
:102272006C6F010E6B6F664B672B76EF11F066C0C9
:10228200F6FF67C0F7FF0800F550686F696B695188
:10229200000AD8B44FEF11F076EF11F068512B0A13
:1022A200D8B43CEF11F0060AD8B438EF11F076EF4B
:1022B20011F06DC060F06EC061F0000E636F0A0E27
:1022C200626F41EC16F066C0F6FF67C0F7FF0800C8
:1022D200F5500001605F000E615B300E60256D6F8E
:1022E200000E61216E6F3CEF11F066C0F6FF67C011
:1022F200F7FF0800F5CF68F0D00E6825696F6A6BAA
:10230200FF0E6A236A5109E10A0E695DD8A08CEFBB
:1023120011F08EEF11F05AEF11F06B516C11D8A43D
:1023220095EF11F097EF11F0A5EF11F06DC068F085
:102332006EC069F0681F691F684B692B68C066F040
:1023420069C067F0A9EF11F06DC066F06EC067F06A
:102352001200096E000E106E000E116E000E126E4B
:10236200000E136E0350030B0E6E0338E842070B88
:102372000F6E0250056E066AD89005360636D89062
:1023820005360636D8900536063605C010F006C06A
:1023920011F0000E11BEFF0E126E136E0F501024BC
:1023A200106E000E1120116E000E1220126E000E21
:1023B2001320136E10C005F011C006F012C007F012
:1023C20013C008F0020ED8900536063607360836D6
:1023D200E82EE4EF11F005C010F006C011F007C0BE
:1023E20012F008C013F00E501024106E000E1120CF
:1023F200116E000E1220126E000E1320136E10C00A
:1024020006F011C007F012C008F0056A05C010F00E
:1024120006C011F007C012F008C013F009501024D2
:10242200106E000E1120116E000E1220126E000EA0
:102432001320136E10C006F011C007F012C008F08E
:10244200056A05C010F006C011F007C012F008C0FE
:1024520013F001501024106E000E1120116E000EA8
:102462001220126E000E1320136E10C00AF011C05B
:102472000BF012C00CF013C00DF00AC001F00BC03B
:1024820002F00CC003F00DC004F01200800E6F6E5B
:102492006E50E00B800AD8A451EF12F053EF12F005
:1024A20049EF12F0000E726E200E706E000E0E01D9
:1024B200FA6F000EFB6F000EF86F000EF96F000E40
:1024C200FE6F000EFF6F000EFC6F000EFD6F000E20
:1024D200E26F000EE36F000EE06F000EE16F000E80
:1024E200E66F000EE76F000EE46F000EE56F000E60
:1024F200EA6F000EEB6F000EE86F000EE96F000E40
:10250200EE6F000EEF6F000EEC6F000EED6F000E1F
:10251200F26F000EF36F000EF06F000EF16F000EFF
:10252200F66F000EF76F000EF46F000EF56F180EC7
:10253200436F980E446F010E456F760E0001606F77
:102542002E0E616F21EC17F077907680740E0001E9
:10255200606F2E0E616F1CEC17F0779C768C000E6C
:102562006F6E6ECF62F0E00E00016217D8A4BCEF6E
:1025720012F0BEEF12F0B2EF12F012008984000ED8
:1025820053EC15F060C0DDF061C0DEF089948986FD
:10259200010E53EC15F060C0DBF061C0DCF08996EF
:1025A2009C0E0001BB6F100EBC6FDDC0BDF0DEC023
:1025B200BEF0DBC0BFF0DCC0C0F02DEC16F0670E41
:1025C2000001DD5D060EDE59D8A0EAEF12F0ECEF55
:1025D20012F0F7EF12F0AE0EDD5D070EDE59D8A055
:1025E200F5EF12F0F7EF12F001EF13F0010EE96FC1
:1025F200420EBB6F100EBC6F2DEC16F009EF13F0FC
:10260200000EE96F610EBB6F100EBC6F2DEC16F061
:10261200660E0001DB5D060EDC59D8A013EF13F045
:1026220015EF13F020EF13F0AF0EDB5D070EDC5950
:10263200D8A01EEF13F020EF13F02AEF13F0010ED3
:10264200EA6F220EBB6F100EBC6F2DEC16F032EF4C
:1026520013F0000EEA6F010EBB6F100EBC6F2DEC73
:1026620016F012000001E1A139EF13F03BEF13F075
:1026720045EF13F074C06BF075C06CF072C06DF072
:1026820073C06EF0C8EC14F0000177BF4BEF13F08B
:102692004DEF13F053EF13F076C07BF077C07CF070
:1026A20057EF13F0000E7C6F000E7B6F000E7A6FF7
:1026B200000E796F6AEF13F0000E636F200E626FE7
:1026C20072C064F073C065F08BEC13F00001794BBB
:1026D2007A2B7B51795D7A51800A786F7C51800A1E
:1026E2007859D8A077EF13F079EF13F05DEF13F07C
:1026F200E1B17EEF13F080EF13F08AEF13F074C0B4
:102702006BF075C06CF072C06DF073C06EF0C8EC07
:1027120014F01200000164516511D8B493EF13F064
:1027220095EF13F09EEF13F064516511D8A49CEF5E
:1027320013F09EEF13F0A3EF13F06251F0EC16F0DA
:10274200D6EF13F020EE09F06451D9266551DA2252
:10275200DE50DE10D8B4B0EF13F0B2EF13F0CDEFCD
:1027620013F020EE09F06451D9266551DA2210EEF9
:1027720003F06451E1266551E222DE50E65CE65048
:10278200800A6A6FDE50800A6A59D8B0CBEF13F024
:10279200CDEF13F0D6EF13F020EE03F06451D926FB
:1027A2006551DA22DE2A000EDD221200076E075082
:1027B200056E066AD89005360636D8900536063676
:1027C200D8900536063605C00CF006C00DF0000E96
:1027D2000DBEFF0E0E6E0F6E01C005F0050E066EE9
:1027E200D8900532062EF1EF13F005500C240C6E32
:1027F200000E0D200D6E000E0E200E6E000E0F202C
:102802000F6E0CC008F00DC009F00EC00AF00FC028
:102812000BF008C001F009C002F00AC003F00BC0BF
:1028220004F01200170E146E000E156E94EC0CF0EC
:10283200185019101A101B10D8A422EF14F024EF0C
:1028420014F02DEF14F0F7EC16F0000E0001E06F1B
:10285200000EDF6F48EF14F020EE17F010EEC7F015
:102862000D0EDBCFE3FFE806FCE289BA3BEF14F082
:102872003EEF14F0010E3FEF14F0000EFF0A166E49
:10288200163A164689501618DF0B1618896E120072
:102892005BEF14F08994899679EF14F08984899614
:1028A20079EF14F08994898679EF14F08984898606
:1028B20079EF14F00001CD51606F616B6151000A34
:1028C200D8B466EF14F079EF14F06051000AD8B46E
:1028D2004BEF14F0010AD8B44FEF14F0030AD8B446
:1028E20053EF14F0010AD8B457EF14F079EF14F053
:1028F2001200B5C0B9F0B6C0BAF08FEF14F0B3C091
:10290200A0F0B4C0A1F0B90E0001A26F000EA36F37
:10291200B7C0A4F0B8C0A5F0B9EC0DF0B9C0F6FF8D
:10292200BAC0F7FF0800F5500009D8A49BEF14F0D5
:102932009DEF14F080EF14F0000E0001B46F000E52
:10294200B36F12006C0EF66E2E0EF76E000EF86E5E
:102952000900F5CFF1F00900F5CFF2F001EE00F039
:10296200200EEE6AE806FDE100EEC7F02A0EEE6ADE
:10297200E806FDE100EE3AF00E0EEE6AE806FDE131
:1029820048904892000EF86E00015EEF0BF0000EC8
:102992000001716F000E706FDBEF14F06FC062F018
:1029A200636B6DC064F06EC065F08BEC13F00001D8
:1029B200704B712B70516B25D96E71516C21DA6E8F
:1029C200DF506F6F6F51D8A4E9EF14F0EBEF14F002
:1029D200CFEF14F01200010E0001646F200E601997
:1029E2006111D8B4F7EF14F0F9EF14F00CEF15F011
:1029F200F70E6025626FFF0E6121636F635109E17B
:102A0200050E625DD8A008EF15F00AEF15F00CEF85
:102A120015F0000E646F64C060F0616B1200080E66
:102A2200A76E900EAB6E240EAC6ECF0EAF6E000E84
:102A32007D6E000E0001606F000E616F12EC17F0E8
:102A4200000E0001606F000E616F0DEC17F0000EBA
:102A52000001606F000E616F17EC17F0000E476EF9
:102A62001200000173BF40EF15F0735106E17205C9
:102A7200D8B03EEF15F040EF15F04EEF15F072C0F2
:102A820074F073C075F0741F751F744B752B74C08E
:102A920072F075C073F052EF15F072C072F073C02D
:102AA20073F012000001646F64C062F000016247BB
:102AB2006247C2506219830B6219C26EC280C2821F
:102AC200C2B266EF15F068EF15F061EF15F0C45071
:102AD2000001636F626BC3506225606F000E632159
:102AE200616F1200000EAA6EB10ECF6EE00ECE6EB6
:102AF2009E90CE50CFCF62F00001636B62C063F054
:102B0200626B6211316E6351326E9D80700E606F26
:102B12002E0E616F03EC17F0110ECD6E1200D00E67
:102B220000016025626FFF0E6121636F63510AE14C
:102B32000A0E625DD8A0A0EF15F0A3EF15F0010E0A
:102B4200A4EF15F0000E606F616B12002B502C1079
:102B5200D8B4AEEF15F0B0EF15F0BDEF15F002D816
:102B6200BDEF15F00500FA6E2B50FD6E2C50FE6E77
:102B7200F850FF6EFA50120012002F503010D8B4E5
:102B8200C5EF15F0C7EF15F0D4EF15F002D8D4EF6A
:102B920015F00500FA6E2F50FD6E3050FE6EF850A3
:102BA200FF6EFA5012001200F29439C0D6FF3E4A6C
:102BB2003F2A3F5009E1040E3E5CD8A0E3EF15F036
:102BC200E5EF15F0EBEF15F0ECEC15F0000E3F6EB3
:102BD200000E3E6E12002D502E10D8B4F3EF15F0F9
:102BE200F5EF15F002EF16F002D802EF16F005002D
:102BF200FA6E2D50FD6E2E50FE6EF850FF6EFA509A
:102C020012001200000E896E000E8A6E000E8B6E8C
:102C1200C30E926EFB0E936EBF0E946E1F0E0F01CB
:102C22005D6F030E5C6F000E5B6FF18E12009E9261
:102C32003A4A3B2AB80E3A5C0B0E3B58D8A024EF16
:102C420016F026EF16F02CEF16F0A7EC15F0000E9A
:102C52003B6E000E3A6E1200BD0E0001C16F000EF7
:102C6200C26F000EB36F000EB46FBBC0B5F0BCC034
:102C7200B6F0C10EB76F000EB86F7AEC14F0120006
:102C8200000160516203F3CF64F0F4CF65F060514C
:102C92006303F350652761516203F350652764C0F3
:102CA20060F065C061F01200CDA45AEF16F05CEF3F
:102CB20016F064EF16F0CD900250CF6E01C0CEFF39
:102CC200CD8068EF16F00250CF6E01C0CEFF120029
:102CD20032EC17F003EC16F0E7EC16F0C8EC16F045
:102CE2008EEC16F073EC15F07CEC16F010EC15F08F
:102CF20047EC12F01200000ED76E3D0ED66E3D0E5E
:102D0200396EF294F28A720E0001606F2E0E616FBC
:102D120008EC17F0F70ED56E1200F90ECB6E000E0E
:102D2200CC6E9E929D826E0E0001606F2E0E616FC0
:102D3200FEEC16F04E0ECA6E120002D8ABEF16F081
:102D42000500FA6E4250FD6E4350FE6EF850FF6E63
:102D5200FA501200779C120002D8BAEF16F0050062
:102D6200FA6E4450FD6E4550FE6EF850FF6EFA50FA
:102D72001200779012000001606F9EA8C3EF16F058
:102D8200C5EF16F0BEEF16F060C0ADFF1200010EE7
:102D9200C26E000EC16EB00EC06E000EC46E000E8A
:102DA200C36E12009E9031C001F032C002F055ECA9
:102DB20016F0BEEC15F01200000E466E899489964C
:102DC20034EC17F0000E2EEC17F01200600ED36EEA
:102DD200000ED26E000E9B6E000E9A6E1200000163
:102DE200616F00016151BCEC16F0120031C001F0BC
:102DF20032C002F055EC16F0120060C02BF061C038
:102E02002CF0120060C02FF061C030F0120060C0E0
:102E12002DF061C02EF0120060C035F061C036F0B6
:102E2200120060C037F061C038F0120060C033F0A9
:102E320061C034F0120060C042F061C043F0120081
:102E420060C044F061C045F012000001D94BDA2B9A
:102E520012000001DF4BE02B1200016E01C0D6FF11
:102E62001200D09E1200D59E120001011200120023
:062E720012001200120024
:020000040020DA
:08000000FFFFFFFFFFFFFFFF00
:020000040030CA
:0E00000015087F7CFF8991FF0FC00FE00F40B5
:00000001FF
