:04000000A4EF00F079
:100008004E82FACF25F0FBCF26F0E1CF27F0E2CFE2
:1000180028F0D9CF29F0DACF2AF0F2A816EF00F0AD
:1000280018EF00F023EF00F0F2A21DEF00F01FEF31
:1000380000F023EF00F0F5EC17F096EF00F0F2A6D1
:1000480028EF00F02AEF00F035EF00F0F2A02FEFD4
:1000580000F031EF00F035EF00F0FFEC17F096EF0D
:1000680000F0F2AC3AEF00F03CEF00F096EF00F051
:1000780076AC41EF00F043EF00F04EEF00F077ACC4
:1000880048EF00F04AEF00F04EEF00F066EC17F092
:1000980096EF00F076A053EF00F055EF00F060EF18
:1000A80000F077A05AEF00F05CEF00F060EF00F08E
:1000B80075EC17F096EF00F0A0A265EF00F067EF7F
:1000C80000F072EF00F0A1A26CEF00F06EEF00F00C
:1000D80072EF00F011EC16F096EF00F09DA277EFAA
:1000E80000F079EF00F084EF00F09EA27EEF00F0C0
:1000F80080EF00F084EF00F0CBEC16F096EF00F004
:100108009DA089EF00F08BEF00F096EF00F09EA025
:1001180090EF00F092EF00F096EF00F0A7EC17F0E8
:1001280096EF00F02AC0DAFF29C0D9FF28C0E2FF05
:1001380027C0E1FF26C0FBFF25C0FAFF4E92110041
:0401480045EF15F07A
:10100000000A205472616D652043414E203A6964A4
:1010100020202020203A20253032752020202064F6
:101020006174612030203A20253032752020202044
:10103000646174612031203A202530327520200A05
:101040000D000A204C757820696E746572696575AB
:1010500072203A646174612030203A202530327564
:1010600020202020646174612031203A2025303214
:101070007520200A0D000A2069643A202530326C60
:101080007520202020202020646174613A202530C2
:101090003275202020200A0D0000000E0001756F1F
:1010A000000E766F000E776F000E786F000E746F73
:1010B0000F0120B75EEF08F060EF08F0EFEF08F0E7
:1010C000000120EE01F07251D9267351DA22DECFF1
:1010D00060F0DECF61F0DECF62F0DECF63F072C091
:1010E000D9FF73C0DAFFDF50646F750E656F000EB5
:1010F000666F760E676F000E686F770E696F000E71
:101100006A6F780E6B6F000E6C6FABEC0FF075C0F2
:1011100023FF76C024FF77C021FF78C022FF0001A3
:1011200020EE05F07251D9267351DA22DF500F01FB
:10113000256F000120EE06F07251D9267351DA2294
:10114000DF500F01266F000120EE07F07251D92603
:101150007351DA22DF500F01276F000120EE08F0F3
:101160007251D9267351DA22DF500F01286F000126
:1011700020EE09F07251D9267351DA22DF500F01A7
:10118000296F000120EE0AF07251D9267351DA223C
:10119000DF500F012A6F000120EE0BF07251D926AB
:1011A0007351DA22DF500F012B6F000120EE0CF09B
:1011B0007251D9267351DA22DF500F012C6F0001D2
:1011C00020EE0DF07251D9267351DA22DF500F0153
:1011D0002D6F2087010E0001746F15EF0AF010B714
:1011E000F4EF08F0F6EF08F082EF09F0000120EECE
:1011F00001F07251D9267351DA22DECF60F0DECFD2
:1012000061F0DECF62F0DECF63F072C0D9FF73C051
:10121000DAFFDF50646F750E656F000E666F760E35
:10122000676F000E686F770E696F000E6A6F780E39
:101230006B6F000E6C6FABEC0FF075C013FF76C0D8
:1012400014FF77C011FF78C012FF000120EE05F0F7
:101250007251D9267351DA22DF500F01156F000148
:1012600020EE06F07251D9267351DA22DF500F01B9
:10127000166F000120EE07F07251D9267351DA2261
:10128000DF500F01176F000120EE08F07251D926D0
:101290007351DA22DF500F01186F000120EE09F0C0
:1012A0007251D9267351DA22DF500F01196F0001F4
:1012B00020EE0AF07251D9267351DA22DF500F0165
:1012C0001A6F000120EE0BF07251D9267351DA2209
:1012D000DF500F011B6F000120EE0CF07251D92678
:1012E0007351DA22DF500F011C6F000120EE0DF068
:1012F0007251D9267351DA22DF500F011D6F10870A
:10130000EAEF08F000B787EF09F089EF09F015EF71
:101310000AF0000120EE01F07251D9267351DA2251
:10132000DECF60F0DECF61F0DECF62F0DECF63F0C3
:1013300072C0D9FF73C0DAFFDF50646F750E656F3E
:10134000000E666F760E676F000E686F770E696F1E
:10135000000E6A6F780E6B6F000E6C6FABEC0FF0C7
:1013600075C003FF76C004FF77C001FF78C002FF9D
:10137000000120EE05F07251D9267351DA22DF50B8
:101380000F01056F000120EE06F07251D92673514E
:10139000DA22DF500F01066F000120EE07F07251D4
:1013A000D9267351DA22DF500F01076F000120EEBA
:1013B00008F07251D9267351DA22DF500F01086FFD
:1013C000000120EE09F07251D9267351DA22DF5064
:1013D0000F01096F000120EE0AF07251D9267351F6
:1013E000DA22DF500F010A6F000120EE0BF072517C
:1013F000D9267351DA22DF500F010B6F000120EE66
:101400000CF07251D9267351DA22DF500F010C6FA4
:10141000000120EE0DF07251D9267351DA22DF500F
:101420000F010D6F0087EAEF08F000017451120000
:101430009FC0D9FFA0C0DAFFDECFF6FFDDCFF7FFF8
:101440000800F550250AD8A428EF0AF02AEF0AF080
:10145000C6EF0BF09FC0D9FFA0C0DAFFDE2A000E56
:10146000DD22000E0001E16F000EE06FE0C0E6F04B
:10147000E269E369000EB26F000EB16F6AEF0AF025
:10148000E6839FC0D9FFA0C0DAFFDE2A000EDD226E
:101490006AEF0AF0000EB26F010EB16F6AEF0AF048
:1014A0009FC0D9FFA0C0DAFFDECFF6FFDDCFF7FF88
:1014B0000800F550A36FA46BA451000AD8B463EFE1
:1014C0000AF04AEF0AF0A351300AD8B440EF0AF00C
:1014D0004AEF0AF0B151B211D8B471EF0AF073EFCC
:1014E0000AF050EF0AF09FC0D9FFA0C0DAFFDECFAC
:1014F000F6FFDDCFF7FF0800F5502A0AD8A483EFE6
:101500000AF085EF0AF0AEEF0AF09FC0D9FFA0C045
:10151000DAFFDE2A000EDD22A1C0D9FFA2C0DAFF69
:10152000DFCFA3F0020EDE26DFCFA4F0000EDD2217
:10153000A3C0D9FFA4C0DAFFDECFE0F0DDCFE1F039
:10154000E1BFA7EF0AF0A5EF0AF0E2EF0AF0E681AB
:10155000E06DE11FD8B0E12BE2EF0AF09FC0D9FFA8
:10156000A0C0DAFFDECF66F0DDCF67F066EC10F0EA
:1015700066C0E0F067C0E1F0C5EF0AF09FC0D9FF98
:10158000A0C0DAFFDE2A000EDD229FC0D9FFA0C076
:10159000DAFFDECFF6FFDDCFF7FF0800F5CFA3F0CF
:1015A000D00E0001A325A46FA56BFF0EA523A551A6
:1015B00009E10A0EA45DD8A0E0EF0AF0E2EF0AF01C
:1015C000BEEF0AF09FC0D9FFA0C0DAFFDECFB4F0B3
:1015D000DDCFB5F0B4C0F6FFB5C0F7FF0800F5CF1A
:1015E000B3F0FFEF0AF0B44BB52B14EF0BF0690E1C
:1015F000B36F14EF0BF0000EB36F14EF0BF0B35199
:10160000A36FA46BA451000AD8B409EF0BF0FBEF51
:101610000AF0A3516C0AD8B4F3EF0AF0190AD8B44F
:10162000F7EF0AF0FBEF0AF0B4C0F6FFB5C0F7FF22
:101630000800F550750AD8A420EF0BF022EF0BF04C
:10164000BDEF0BF06AEF0BF0A1C0D9FFA2C0DAFF2B
:10165000DFCFA3F0020EDE26DFCFA4F0000EDD22E6
:10166000A3C0D9FFA4C0DAFFDECFA5F0DDCFA6F07E
:10167000A5C0A9F0A6C0AAF0AB6BAC6BAD6BAE6B0E
:10168000AF6BB06B7FEF0BF0A1C0D9FFA2C0DAFF48
:10169000DFCFA3F0040EDE26DFCFA4F0000EDD22A4
:1016A000A3C0D9FFA4C0DAFFDECFA5F0DECFA6F03D
:1016B000DECFA7F0DECFA8F0A551A96FA651AA6F83
:1016C000A751AB6FA851AC6FAD6BAE6BAF6BB06B8E
:1016D0007FEF0BF0B351A36FA46BA451000AD8B4F1
:1016E00074EF0BF07FEF0BF0A351690AD8B424EF2D
:1016F0000BF0050AD8B444EF0BF07FEF0BF0010EAE
:10170000B425A36F000EB521A46F9FC0D9FFA0C060
:10171000DAFFA3C0DEFFA4C0DDFFA7EF0BF09DC082
:101720007DF09EC07EF0A9C07FF0AAC080F0ABC063
:1017300081F0ACC082F0ADC083F0AEC084F0AFC029
:1017400085F0B0C086F0ACEC0EF0DBEF0BF0B4C06F
:10175000F6FFB5C0F7FF0800F550A36FA46BA451C6
:10176000000AD8B4B6EF0BF0BDEF0BF0A351750A29
:10177000D8B48FEF0BF0BDEF0BF09FC0D9FFA0C026
:10178000DAFFDE2A000EDD22DBEF0BF09FC0D9FF6F
:10179000A0C0DAFFDECFF6FFDDCFF7FF0800F5507F
:1017A0000001626F636B9DC064F09EC065F05CECED
:1017B00013F0BDEF0BF0120043EC17F06A0E0001BE
:1017C000606F2D0E616FD2EC17F04A0E0001606F52
:1017D000280E616FF0EC17F0500E0001606F270EBD
:1017E000616FCDEC17F0200E0001606F2F0E616F5E
:1017F000C8EC17F0F20E0001606F2F0E616FD7EC8E
:1018000017F0F28EF28C600E606E610E0001F16FC7
:10181000000EF26F000EF36F000EF46F000EF56F06
:10182000EFEC14F0CFC0DCF0D0C0DDF0D1C0DEF0C2
:10183000D2C0DFF0D4C0EFF0D5C0EEF0010E000151
:10184000BE6F100EBF6FDCC0C0F0DDC0C1F0DEC0E7
:10185000C2F0DFC0C3F0EFC0C4F0C56BEEC0C6F08D
:10186000C76BE0EC16F00001EC51D8A43AEF0CF095
:101870003CEF0CF01CEF0DF096EF0CF0420EBE6F3B
:10188000100EBF6FEFC0C0F0C16BEEC0C2F0C36BF3
:10189000E0EC16F072EF0DF0EF05D8A452EF0CF06B
:1018A00054EF0CF058EF0CF0010EEC6F62EF0CF0FF
:1018B000EF51D8A45EEF0CF060EF0CF062EF0CF08B
:1018C000000EEC6F30EC17F072EF0DF0EF05D8A4BE
:1018D0006CEF0CF06EEF0CF072EF0CF0010EEA6F93
:1018E00062EF0CF0EF51D8A478EF0CF07AEF0CF027
:1018F00062EF0CF0000EEA6F62EF0CF0EF05D8A477
:1019000084EF0CF086EF0CF08AEF0CF0000EEB6F1A
:1019100062EF0CF0EF51D8A490EF0CF092EF0CF0C6
:1019200062EF0CF0010EEB6F62EF0CF0DCC0CAF05E
:10193000DDC0CBF0DEC0CCF0DFC0CDF0CD51000A71
:10194000D8B4BFEF0CF072EF0DF0CB51000AD8B451
:10195000ACEF0CF072EF0DF0CA51110AD8B44CEF95
:101960000CF0030AD8B466EF0CF0010AD8B47EEF8D
:101970000CF0720AD8B43EEF0CF072EF0DF0CC51BF
:10198000000AD8B4A5EF0CF072EF0DF0420EBE6F56
:10199000100EBF6FEFC0C0F0C16BEEC0C2F0C36BE2
:1019A000E0EC16F050EF0DF0EF05D8A4DAEF0CF0F4
:1019B000DCEF0CF0E0EF0CF0010EEC6FEAEF0CF056
:1019C000EF51D8A4E6EF0CF0E8EF0CF0EAEF0CF0E2
:1019D000000EEC6F30EC17F050EF0DF0EF05D8A4CF
:1019E000F4EF0CF0F6EF0CF0FAEF0CF0010EE96FEB
:1019F000EAEF0CF0EF51D8A400EF0DF002EF0DF07C
:101A0000EAEF0CF0000EE96FEAEF0CF0EF05D8A456
:101A10000CEF0DF00EEF0DF012EF0DF0010EE86F70
:101A2000EAEF0CF0000EE86FEAEF0CF0EFC0EDF01B
:101A30008DEC14F0EAEF0CF0DCC0CAF0DDC0CBF0A6
:101A4000DEC0CCF0DFC0CDF0CD51000AD8B449EFF4
:101A50000DF050EF0DF0CB51000AD8B432EF0DF07D
:101A600050EF0DF0CA51110AD8B4D4EF0CF0400A6F
:101A7000D8B4EEEF0CF0030AD8B406EF0DF0060A66
:101A8000D8B416EF0DF0350AD8B4C6EF0CF050EF0D
:101A90000DF0CC51000AD8B42BEF0DF050EF0DF043
:101AA000BEEC14F05BEC14F072EF0DF0E751D8B41B
:101AB0005CEF0DF05EEF0DF012EF0CF0F00E000198
:101AC000726F000E736F4DEC08F00009D8A46BEF35
:101AD0000DF06DEF0DF05EEF0DF0000E0001E76F01
:101AE00012EF0CF0E4C0CAF0E5C0CBF00001CB511E
:101AF000000AD8B47EEF0DF012EF0CF0CA51100AB4
:101B0000D8B456EF0DF012EF0CF0A4EF00F060AE79
:101B10008CEF0DF08EEF0DF018EF0EF062A693EF44
:101B20000DF095EF0DF0B4EF0DF014C0D9FF15C016
:101B3000DAFF020EDF6E64CF01F061CF02F062CFF8
:101B400003F063500DEC11F020EE01F01450D92693
:101B50001550DA2201C0DEFF02C0DEFF03C0DEFF47
:101B600004C0DEFFCDEF0DF014C0D9FF15C0DAFFC1
:101B7000010EDF6E62CF01F06150E9EC13F020EE50
:101B800001F01450D9261550DA2201C0DEFF02C040
:101B9000DEFF03C0DEFF04C0DEFF20EE05F01450C0
:101BA000D9261550DA2265CFDFFF20EE06F014505B
:101BB000D9261550DA2266CFDFFF20EE07F0145049
:101BC000D9261550DA2267CFDFFF20EE08F0145037
:101BD000D9261550DA2268CFDFFF20EE09F0145025
:101BE000D9261550DA2269CFDFFF20EE0AF0145013
:101BF000D9261550DA226ACFDFFF20EE0BF0145001
:101C0000D9261550DA226BCFDFFF20EE0CF01450EE
:101C1000D9261550DA226CCFDFFF20EE0DF01450DC
:101C2000D9261550DA226DCFDFFF609EABEF0EF0A4
:101C30000F0130AF1EEF0EF020EF0EF0ABEF0EF005
:101C400032A725EF0EF027EF0EF046EF0EF014C08E
:101C5000D9FF15C0DAFF020EDF6E34CF01F031CFAD
:101C600002F032CF03F033510DEC11F020EE01F011
:101C70001450D9261550DA2201C0DEFF02C0DEFF63
:101C800003C0DEFF04C0DEFF5FEF0EF014C0D9FF1B
:101C900015C0DAFF010EDF6E32CF01F03151E9ECF1
:101CA00013F020EE01F01450D9261550DA2201C0AD
:101CB000DEFF02C0DEFF03C0DEFF04C0DEFF20EE59
:101CC00005F01450D9261550DA2235CFDFFF20EE6B
:101CD00006F01450D9261550DA2236CFDFFF20EE59
:101CE00007F01450D9261550DA2237CFDFFF20EE47
:101CF00008F01450D9261550DA2238CFDFFF20EE35
:101D000009F01450D9261550DA2239CFDFFF20EE22
:101D10000AF01450D9261550DA223ACFDFFF20EE10
:101D20000BF01450D9261550DA223BCFDFFF20EEFE
:101D30000CF01450D9261550DA223CCFDFFF20EEEC
:101D40000DF01450D9261550DA223DCFDFFF0F01D8
:101D5000309F16EF0EF012000001E3BFB2EF0EF05D
:101D6000B4EF0EF0B5EF0EF0E693E3BFC2EF0EF066
:101D7000E35106E1E205D8B0C0EF0EF0C2EF0EF07D
:101D8000C8EF0EF0000E906F010E8F6FCCEF0EF0CB
:101D9000E2C08FF0E3C090F0E0C091F0E1C092F0BB
:101DA0007FC093F080C094F081C095F082C096F01F
:101DB00083C097F084C098F085C099F086C09AF0EF
:101DC000000E9C6F1F0E9B6F000E01011F6F60EFD6
:101DD0000FF09B07D8A09C07000E9B25D96E010E23
:101DE0009C21DA6E93C060F094C061F095C062F0FF
:101DF00096C063F097C064F098C065F099C066F033
:101E00009AC067F00A0E686F000E696F000E6A6F65
:101E1000000E6B6F000E6C6F000E6D6F000E6E6F1C
:101E2000000E6F6F9BEC12F060C087F061C088F00D
:101E300062C089F063C08AF064C08BF065C08CF02A
:101E400066C08DF067C08EF000018751300FDF6EE5
:101E50008F07D8A090079107D8A0920793C060F091
:101E600094C061F095C062F096C063F097C064F0D2
:101E700098C065F099C066F09AC067F00A0E686F66
:101E8000000E696F000E6A6F000E6B6F000E6C6FB4
:101E9000000E6D6F000E6E6F000E6F6FAAEC11F0EA
:101EA00060C093F061C094F062C095F063C096F09A
:101EB00064C097F065C098F066C099F067C09AF06A
:101EC00000019B519C11D8B468EF0FF06AEF0FF03E
:101ED0009AEF0FF093519411951196119711981153
:101EE00099119A11D8A477EF0FF079EF0FF0E9EF7D
:101EF0000EF090BF86EF0FF0905106E18F05D8B03D
:101F000084EF0FF086EF0FF0E9EF0EF092BF91EF44
:101F10000FF0925108E19105D8A091EF0FF093EFE7
:101F20000FF09AEF0FF0E6B398EF0FF09AEF0FF083
:101F3000E9EF0EF07DC072F07EC073F0000E9B25BD
:101F4000746F010E9C21756F91C076F092C077F08E
:101F500004EC13F01200020E00016419D8A4B3EFD0
:101F60000FF0B5EF0FF038EF10F067C0D9FF68C081
:101F7000DAFF60C0DFFF60C06DF061C06EF062C06C
:101F80006FF063C070F06EC06DF06FC06EF070C027
:101F90006FF0706B6DC060F06EC061F06FC062F08A
:101FA00070C063F065C0D9FF66C0DAFF60C0DFFFB4
:101FB00060C06DF061C06EF062C06FF063C070F021
:101FC0006EC06DF06FC06EF070C06FF0706B6DC062
:101FD00060F06EC061F06FC062F070C063F060517D
:101FE000030B716F60C06DF061C06EF062C06FF086
:101FF00063C070F0030ED8906D376E376F3770374F
:10200000E82EFBEF0FF06DC060F06EC061F06FC0A6
:1020100062F070C063F06051E00B7125716F715117
:10202000080F716F7151EB0B6BC0D9FF6CC0DAFFF9
:10203000DF6E60C06DF061C06EF062C06FF063C0B3
:1020400070F06EC06DF06FC06EF070C06FF0706BAE
:102050006DC060F06EC061F06FC062F070C063F080
:1020600069C0D9FF6AC0DAFF60C0DFFF65EF10F01A
:1020700065C0D9FF66C0DAFF000EDF6E67C0D9FF0A
:1020800068C0DAFF000EDF6E60C06DF061C06EF0F8
:1020900062C06FF063C070F0050ED8906D376E3778
:1020A0006F377037E82E4DEF10F06DC060F06EC0E6
:1020B00061F06FC062F070C063F06BC0D9FF6CC09C
:1020C000DAFF60C0DFFF19EF10F01200000E000110
:1020D0006E6F000E6D6F000E6C6F000E6B6F73EF06
:1020E00010F0664B672B66C0F6FF67C0F7FF08006D
:1020F000F550200AD8B47FEF10F081EF10F071EFA7
:1021000010F066C0F6FF67C0F7FF0800F5CF68F073
:10211000F70E6825696F6A6BFF0E6A236A5109E141
:10212000050E695DD8A097EF10F099EF10F071EFF0
:1021300010F0A3EF10F0000E6C6F010E6B6F664B8A
:10214000672BD9EF10F066C0F6FF67C0F7FF0800F5
:10215000F550686F696B6951000AD8B4B2EF10F09E
:10216000D9EF10F068512B0AD8B49FEF10F0060A8F
:10217000D8B49BEF10F0D9EF10F06DC060F06EC0D6
:1021800061F0000E636F0A0E626FF4EC16F066C029
:10219000F6FF67C0F7FF0800F5500001605F000E12
:1021A000615B300E60256D6F000E61216E6F9FEFD9
:1021B00010F066C0F6FF67C0F7FF0800F5CF68F0C3
:1021C000D00E6825696F6A6BFF0E6A236A5109E1B8
:1021D0000A0E695DD8A0EFEF10F0F1EF10F0BDEF3F
:1021E00010F06B516C11D8A4F8EF10F0FAEF10F06A
:1021F00008EF11F06DC068F06EC069F0681F691FCC
:10220000684B692B68C066F069C067F00CEF11F08D
:102210006DC066F06EC067F01200096E000E106EA1
:10222000000E116E000E126E000E136E0350030BA3
:102230000E6E0338E842070B0F6E0250056E066AF9
:10224000D89005360636D89005360636D89005362D
:10225000063605C010F006C011F0000E11BEFF0ECC
:10226000126E136E0F501024106E000E1120116E9E
:10227000000E1220126E000E1320136E10C005F017
:1022800011C006F012C007F013C008F0020ED8907B
:102290000536063607360836E82E47EF11F005C03A
:1022A00010F006C011F007C012F008C013F00E5075
:1022B0001024106E000E1120116E000E1220126EEE
:1022C000000E1320136E10C006F011C007F012C0EC
:1022D00008F0056A05C010F006C011F007C012F042
:1022E00008C013F009501024106E000E1120116E5A
:1022F000000E1220126E000E1320136E10C006F096
:1023000011C007F012C008F0056A05C010F006C041
:1023100011F007C012F008C013F001501024106E25
:10232000000E1120116E000E1220126E000E1320EE
:10233000136E10C00AF011C00BF012C00CF013C0E5
:102340000DF00AC001F00BC002F00CC003F00DC08C
:1023500004F0120020EE70F0070EDE6AE806FDE2DF
:102360000001685169116A116B116C116D116E11C8
:102370006F11D8B4BEEF11F0C0EF11F012EF12F0F0
:10238000010E786FCEEF11F0D890683769376A3751
:102390006B376C376D376E376F37782B6FAFD3EF86
:1023A00011F0D5EF11F0C4EF11F0D89070377137FC
:1023B0007237733774377537763777376851605DA2
:1023C000695161596A5162596B5163596C51645931
:1023D0006D5165596E5166596F516759D8A0F3EF29
:1023E00011F0F5EF11F006EF12F06851605F6951DE
:1023F000615B6A51625B6B51635B6C51645B6D51F5
:10240000655B6E51665B6F51675B7081D8906F330F
:102410006E336D336C336B336A3369336833782FC3
:10242000D5EF11F070C060F071C061F072C062F061
:1024300073C063F074C064F075C065F076C066F078
:1024400077C067F01200800E6F6E6E50E00B800A4E
:10245000D8A42DEF12F02FEF12F025EF12F0000E9E
:10246000726E200E706E000E0E01FA6F000EFB6F82
:10247000000EF86F000EF96F000EFE6F000EFF6F7A
:10248000000EFC6F000EFD6F000EE26F000EE36F9A
:10249000000EE06F000EE16F000EE66F000EE76FBA
:1024A000000EE46F000EE56F000EEA6F000EEB6F9A
:1024B000000EE86F000EE96F000EEE6F000EEF6F7A
:1024C000000EEC6F000EED6F000EF26F000EF36F5A
:1024D000000EF06F000EF16F000EF66F000EF76F3A
:1024E000000EF46F000EF56F130E436FBF0E446FB6
:1024F000070E456F100E0001606F300E616FF0EC3B
:1025000017F0779076800E0E0001606F300E616FCD
:10251000EBEC17F0779C768C000E6F6E6ECF62F04E
:10252000E00E00016217D8A498EF12F09AEF12F0B3
:102530008EEF12F012000001685169116A116B11DF
:102540006C116D116E116F11D8B4A9EF12F0ABEFD1
:1025500012F0F3EF12F0010E706FB9EF12F0D89095
:10256000683769376A376B376C376D376E376F3757
:10257000702B6FAFBEEF12F0C0EF12F0AFEF12F0A2
:102580006851605D695161596A5162596B51635973
:102590006C5164596D5165596E5166596F51675947
:1025A000D8A0D5EF12F0D7EF12F0E7EF12F0685194
:1025B000605F6951615B6A51625B6B51635B6C5137
:1025C000645B6D51655B6E51665B6F51675BD89064
:1025D0006F336E336D336C336B336A336933683307
:1025E000702FC0EF12F060C060F061C061F062C097
:1025F00062F063C063F064C064F065C065F066C0FB
:1026000066F067C067F012000001E6A10AEF13F060
:102610000CEF13F016EF13F074C06BF075C06CF094
:1026200072C06DF073C06EF06DEC15F0000177BFF5
:102630001CEF13F01EEF13F024EF13F076C07BF0C5
:1026400077C07CF028EF13F0000E7C6F000E7B6FDC
:10265000000E7A6F000E796F3BEF13F0000E636F80
:10266000200E626F72C064F073C065F05CEC13F012
:102670000001794B7A2B7B51795D7A51800A786F12
:102680007C51800A7859D8A048EF13F04AEF13F034
:102690002EEF13F0E6B14FEF13F051EF13F05BEFB5
:1026A00013F074C06BF075C06CF072C06DF073C045
:1026B0006EF06DEC15F01200000164516511D8B494
:1026C00064EF13F066EF13F06FEF13F064516511D0
:1026D000D8A46DEF13F06FEF13F074EF13F06251A5
:1026E000BAEC17F0A7EF13F020EE09F06451D926E9
:1026F0006551DA22DE50DE10D8B481EF13F083EF9B
:1027000013F09EEF13F020EE09F06451D9266551C5
:10271000DA2210EE03F06451E1266551E222DE5028
:10272000E65CE650800A6A6FDE50800A6A59D8B0CB
:102730009CEF13F09EEF13F0A7EF13F020EE03F0E1
:102740006451D9266551DA22DE2A000EDD221200FC
:102750000001EB514D18D8B4B0EF13F0B2EF13F005
:10276000B6EF13F0060E4C6EEBC04DF04C50D8B4E3
:10277000BCEF13F0BEEF13F0E6EF13F04C068BB492
:10278000C4EF13F0C7EF13F0010EC8EF13F0000E03
:10279000FF0A016E014601468B500118FB0B011820
:1027A0008B6E8BB6D6EF13F0D9EF13F0010EDAEF84
:1027B00013F0000EFF0A016E0146014601468B50E0
:1027C0000118F70B01188B6EE8EF13F08B948B96C2
:1027D0001200076E0750056E066AD8900536063659
:1027E000D89005360636D8900536063605C00CF06A
:1027F00006C00DF0000E0DBEFF0E0E6E0F6E01C076
:1028000005F0050E066ED8900532062E03EF14F083
:1028100005500C240C6E000E0D200D6E000E0E20C7
:102820000E6E000E0F200F6E0CC008F00DC009F0E8
:102830000EC00AF00FC00BF008C001F009C002F092
:102840000AC003F00BC004F01200170E146E000E45
:10285000156E87EC0DF0185019101A101B10D8A423
:1028600034EF14F036EF14F051EF14F0000E0001C5
:10287000E56F000EE46F89BA40EF14F043EF14F0F7
:10288000010E44EF14F0000EFF0A166E163A1646BB
:1028900089501618DF0B1618896EC1EC17F05AEF25
:1028A00014F020EE17F010EECEF00D0EDBCFE3FFAC
:1028B000E806FCE212004950D8B461EF14F063EF6F
:1028C00014F072EF14F00001E851D8B46AEF14F07C
:1028D0006CEF14F06FEF14F08B8673EF14F08B969F
:1028E00073EF14F08B9646500001E819D8B47BEFD3
:1028F00014F07DEF14F081EF14F0E8C046F08CEF97
:1029000014F045504618D8B488EF14F08AEF14F04C
:102910008CEF14F046C045F012009FEF14F08B903E
:102920008B92BDEF14F08B808B92BDEF14F08B90E7
:102930008B82BDEF14F08B808B82BDEF14F0000111
:10294000ED51606F616B6151000AD8B4AAEF14F0C9
:10295000BDEF14F06051000AD8B48FEF14F0010AF3
:10296000D8B493EF14F0030AD8B497EF14F0010A27
:10297000D8B49BEF14F0BDEF14F012004950D8B456
:10298000C4EF14F0C6EF14F0D4EF14F04750D8B4ED
:10299000CCEF14F0CEEF14F0D1EF14F08B84D5EF20
:1029A00014F08B94D5EF14F08B9448500001E91982
:1029B000D8B4DDEF14F0DFEF14F0E3EF14F0E9C06A
:1029C00048F0EEEF14F047504818D8B4EAEF14F08E
:1029D000ECEF14F0EEEF14F048C047F012008B90CB
:1029E0008B928B948B968B98000E0001EC6F000EEF
:1029F000EB6F000EEA6F000E4D6E000E496E000E7A
:102A0000E96F000E486E000E476E000EE86F000E74
:102A1000466E000E456E000EDC6F000EDD6F000E80
:102A2000DE6F000EDF6F000EEF6F000EEE6F000E18
:102A3000ED6F000EE76F1200B8C0BCF0B9C0BDF07A
:102A400031EF15F0B6C09DF0B7C09EF0BC0E00018E
:102A50009F6F000EA06FBAC0A1F0BBC0A2F018EC2F
:102A60000AF0BCC0F6FFBDC0F7FF0800F550000932
:102A7000D8A43DEF15F03FEF15F022EF15F0000E52
:102A80000001B76F000EB66F1200020EF66E300E28
:102A9000F76E000EF86E0900F5CF4BF00900F5CF88
:102AA0004CF00900F5CF4DF001EE00F0200EEE6A7B
:102AB000E806FDE100EECEF0300EEE6AE806FDE13C
:102AC00000EE3DF00E0EEE6AE806FDE14E904E92ED
:102AD000000EF86E0001DCEF0BF0000E0001716FCC
:102AE000000E706F80EF15F06FC062F0636B6DC009
:102AF00064F06EC065F05CEC13F00001704B712B5C
:102B000070516B25D96E71516C21DA6EDF506F6F89
:102B10006F51D8A48EEF15F090EF15F074EF15F00B
:102B20001200010E0001646F200E60196111D8B40B
:102B30009CEF15F09EEF15F0B1EF15F0F70E602544
:102B4000626FFF0E6121636F635109E1050E625DE3
:102B5000D8A0ADEF15F0AFEF15F0B1EF15F0000E06
:102B6000646F64C060F0616B1200080EA76E900E77
:102B7000AB6E240EAC6E080EAF6E020E7D6E000EB4
:102B80000001606F000E616FE1EC17F0000E0001B4
:102B9000606F000E616FDCEC17F0000E0001606FDB
:102BA000000E616FE6EC17F0000E4A6E1200000E88
:102BB000B06E3C0EB36EB00EB26EA192B250B3CFF7
:102BC00062F00001636B62C063F0626B62113B6E86
:102BD00063513C6EA082060E606F300E616FC8ECD0
:102BE00017F0710EB16E1200000EAA6E3C0ECF6E81
:102BF000B00ECE6E9E90CE50CFCF62F00001636BD0
:102C000062C063F0626B6211376E6351386E9D80F3
:102C10000A0E606F300E616FD2EC17F0110ECD6EA0
:102C20001200A1923BC001F03CC002F008EC17F08A
:102C30003F4A402A405009E10B0E3F5CD8A023EFE9
:102C400016F025EF16F02BEF16F043EC16F0000E01
:102C5000406E000E3F6E1200D00E00016025626FC4
:102C6000FF0E6121636F63510AE10A0E625DD8A015
:102C70003CEF16F03FEF16F0010E40EF16F0000E9D
:102C8000606F616B120039503A10D8B44AEF16F0F9
:102C90004CEF16F059EF16F002D859EF16F0050078
:102CA000FA6E3950FD6E3A50FE6EF850FF6EFA50D3
:102CB000120012002B502C10D8B461EF16F063EF05
:102CC00016F070EF16F002D870EF16F00500FA6EED
:102CD0002B50FD6E2C50FE6EF850FF6EFA50120015
:102CE000120035503610D8B478EF16F07AEF16F09F
:102CF00087EF16F002D887EF16F00500FA6E355010
:102D0000FD6E3650FE6EF850FF6EFA501200120043
:102D10002D502E10D8B48FEF16F091EF16F09EEFD5
:102D200016F002D89EEF16F00500FA6E2D50FD6EDB
:102D30002E50FE6EF850FF6EFA5012001200000E78
:102D4000896E000E8A6E000E8B6ECF0E926EFB0E99
:102D5000936EA00E946E1F0E0F015D6F030E5C6FDD
:102D6000000E5B6FF18EF28612000001E44BE52B42
:102D700089BABDEF16F0C0EF16F0010EC1EF16F0E4
:102D8000000EFF0A016E013A014689500118DF0B5F
:102D90000118896E12009E923D4A3E2A3E5009E17A
:102DA000260E3D5CD8A0D7EF16F0D9EF16F0DFEF76
:102DB00016F05AEC16F0000E3E6E000E3D6E12003C
:102DC000C00E0001C86F000EC96F000EB66F000E76
:102DD000B76FBEC0B8F0BFC0B9F0C80EBA6F000E72
:102DE000BB6F1CEC15F01200000160516203F3CFC1
:102DF00064F0F4CF65F060516303F35065276151CF
:102E00006203F350652764C060F065C061F0120092
:102E1000B1A40DEF17F00FEF17F017EF17F0B19007
:102E20000250B36E01C0B2FFB1801BEF17F0025029
:102E3000B36E01C0B2FF1200CDA421EF17F023EF53
:102E400017F02BEF17F0CD900250CF6E01C0CEFFE0
:102E5000CD802FEF17F00250CF6E01C0CEFF1200D1
:102E6000760E0001BE6F100EBF6FDCC0C0F0DDC07B
:102E7000C1F0DEC0C2F0DFC0C3F0EFC0C4F0C56B6C
:102E8000E0EC16F01200FDEC17F09FEC16F0B1EC40
:102E900017F0D7EC15F056EC17F09CEC17F0F4ECAB
:102EA00015F0B5EC15F023EC12F01200C20ECB6E4B
:102EB000000ECC6E9E929D82080E0001606F300E57
:102EC000616FCDEC17F07E0ECA6E120002D873EF60
:102ED00017F00500FA6E4150FD6E4250FE6EF8503C
:102EE000FF6EFA501200779C120002D882EF17F0A2
:102EF0000500FA6E4350FD6E4450FE6EF850FF6EB2
:102F0000FA501200779012000001606F9EA88BEFBC
:102F100017F08DEF17F086EF17F060C0ADFF1200CD
:102F20004950D8B496EF17F099EF17F0010E9AEFC9
:102F300017F0000E496E1200F292F19C0C0E000187
:102F4000606F300E616FD7EC17F0F28812009E9020
:102F500037C001F038C002F01CEC17F071EC16F02D
:102F60001200600ED36E000ED26E000E9B6E000E2D
:102F70009A6E12000001616F0001615184EC17F03C
:102F8000120037C001F038C002F01CEC17F012003C
:102F900060C039F061C03AF0120060C02BF061C02F
:102FA0002CF0120060C035F061C036F0120060C035
:102FB0002DF061C02EF0120060C031F061C032F01F
:102FC000120060C033F061C034F0120060C02FF016
:102FD00061C030F0120060C041F061C042F01200E8
:102FE00060C043F061C044F01200F29288EC16F029
:102FF0001200010E0001E76F1200D09E1200F29045
:0530000012002603018F
:0C30060012001200120012001200120052
:020000040020DA
:08000000FFFFFFFFFFFFFFFF00
:020000040030CA
:0E00000015027F7CFF8991FF0FC00FE00F40BB
:00000001FF
