:0400000069EF00F0B4
:100008005B82FACF02F0FBCF03F0F2AA0EEF00F00A
:1000180010EF00F01BEF00F0F2A415EF00F017EF5F
:1000280000F01BEF00F069EC0CF063EF00F0F2A8B1
:1000380020EF00F022EF00F02DEF00F0F2A227EF02
:1000480000F029EF00F02DEF00F096EC0DF063EFD3
:1000580000F0F0AA32EF00F034EF00F03FEF00F0CC
:10006800F0A439EF00F03BEF00F03FEF00F08AEC2E
:100078000DF063EF00F0F0A644EF00F046EF00F05B
:1000880051EF00F0F0A04BEF00F04DEF00F051EF12
:1000980000F092EC0DF063EF00F0F0A856EF00F0DE
:1000A80058EF00F063EF00F0F0A25DEF00F05FEFB3
:1000B80000F063EF00F08EEC0DF063EF00F003C08A
:1000C800FBFF02C0FAFF5B9211002AEF0DF01550FA
:1000D800800B1E6E15501524246E14AE76EF00F0BA
:1000E80078EF00F079EF00F024802450D8B47FEF47
:1000F80000F081EF00F094EF00F02428D8A487EFF7
:1001080000F089EF00F091EF00F0000E126E000E83
:10011800136E000E146E000E156E148E9CEF00F018
:10012800000E126E000E136E000E146E000E156E89
:100138001950800B1E1A19501924236E18AEA7EFF8
:1001480000F0A9EF00F0AAEF00F023802350D8B404
:10015800B0EF00F0B2EF00F0C5EF00F02328D8A40C
:10016800B8EF00F0BAEF00F0C2EF00F0000E166E24
:10017800000E176E000E186E000E196E188ECDEF59
:1001880000F0000E166E000E176E000E186E000EB0
:10019800196E2350D8B4D3EF00F0D5EF00F0DDEF9F
:1001A80000F02450D8A4DBEF00F0DDEF00F0E7EF1B
:1001B80000F0000E126E000E136E000E146E000E8C
:1001C800156E7FEF02F018501202F3CF29F0F4CF2A
:1001D8002AF029501F6E206A216A226A2A50256E49
:1001E800266A276A286A17501302F3CF29F0F4CF3A
:1001F8002AF029501F26000E2022212222222A50CE
:100208002526000E26222722282216501402F3CF74
:1002180029F0F4CF2AF029501F26000E202221228F
:1002280022222A502526000E26222722282221C0F3
:1002380022F020C021F01FC020F01F6A16501302C0
:10024800F3CF29F0F4CF2AF029501F262A50202274
:10025800000E2122000E222217501202F3CF29F09D
:10026800F4CF2AF029501F262A502022000E2122DE
:10027800000E222221C022F020C021F01FC020F051
:100288001F6A16501202F3CF29F0F4CF2AF0295032
:100298001F262A502022000E2122000E222218504A
:1002A8001302F3CF29F0F4CF2AF0295025262A503B
:1002B8002622000E2722000E282217501402F3CF00
:1002C80029F0F4CF2AF0295025262A502622000E9C
:1002D8002722000E282218501402F3CF29F0F4CF59
:1002E8002AF029501A6E2A501B6E1C6A1D6A1CC0FF
:1002F8001DF01BC01CF01AC01BF01A6A1A502526E4
:100308001B5026221C5027221D5028221FC01AF0DD
:1003180020C01BF021C01CF022C01DF0190E9AEF5E
:1003280001F0D8901D321C321B321A32E82E95EF9C
:1003380001F01A5025261B5026221C5027221D503A
:10034800282221C022F020C021F01FC020F01F6AFF
:10035800235024C01AF01B6A1A26000E1B22820E94
:100368001A24296EFF0E1B202A6ED0EF01F0D890B8
:10037800253626362736283622AEC5EF01F0C7EFD8
:1003880001F0C8EF01F02580D8901F3620362136BD
:1003980022362906D8A02A0627AED5EF01F0D7EFD6
:1003A80001F0BBEF01F0000E236E22AEDEEF01F08C
:1003B800E0EF01F004EF02F0FF0E1F141A6EFF0EBB
:1003C80020141B6EFF0E21141C6E7F0E22141D6E4E
:1003D8001A501B101C101D10D8B4F5EF01F0F7EFE0
:1003E80001F0FBEF01F0010E236E04EF02F025A0EF
:1003F80000EF02F002EF02F004EF02F0F7EF01F075
:100408002350D8B40AEF02F00CEF02F030EF02F0FC
:10041800010E2526000E26222722282228A017EFC3
:1004280002F019EF02F030EF02F025C01AF026C0F2
:100438001BF027C01CF028C01DF01D341D321C32D3
:100448001B321A321AC025F01BC026F01CC027F038
:100458001DC028F0294A2A2A2ABE3BEF02F02A505A
:1004680008E12928D8A03BEF02F03DEF02F047EF62
:1004780002F0000E256E000E266E800E276E7F0E8F
:10048800286E75EF02F02ABE54EF02F02A5006E1FA
:100498002904D8B052EF02F054EF02F060EF02F0F6
:1004A800000E256E000E266E000E276E000E286EBA
:1004B800000E1E6E75EF02F029C024F0FF0E2516FF
:1004C800FF0E26167F0E2716000E281624A06FEFA3
:1004D80002F071EF02F072EF02F0278ED89024300C
:1004E800286E1E50281225C012F026C013F027C00F
:1004F80014F028C015F012002E50800B3B6E2E50C1
:100508002E24426E2DAE8BEF02F08DEF02F08EEFAF
:1005180002F042804250D8B494EF02F096EF02F015
:10052800ABEF02F04228D8A49CEF02F09EEF02F055
:10053800A6EF02F0000E2B6E000E2C6E000E2D6E34
:10054800000E2E6E2D8E000E2E6EB3EF02F0000EF2
:100558002B6E000E2C6E000E2D6E000E2E6E32507D
:10056800800B3B1A32503224436E31AEBEEF02F09C
:10057800C0EF02F0C1EF02F043804350D8B4C7EF98
:1005880002F0C9EF02F0DEEF02F04328D8A4CFEF63
:1005980002F0D1EF02F0D9EF02F0000E2F6E000E3C
:1005A800306E000E316E000E326E318E000E326EDD
:1005B800E6EF02F0000E2F6E000E306E000E316E68
:1005C800000E326E2F50301031103210D8A4EFEFD9
:1005D80002F0F1EF02F009EF03F0000E2B6E000EAF
:1005E8002C6E000E2D6E000E2E6E800E2D127F0EBC
:1005F8002E123B502E122BC02BF02CC02CF02DC0ED
:100608002DF02EC02EF04CEF04F04250D8A40FEF7E
:1006180003F011EF03F01BEF03F0000E2B6E000E3A
:100628002C6E000E2D6E000E2E6E4CEF04F0435013
:1006380042C033F0346A335E000E345A7F0E3324DE
:100648003C6E000E34203D6E2BC037F02CC038F0C5
:100658002DC039F02EC03AF0000E2B6E000E2C6E15
:10066800000E2D6E000E2E6E000E3E6E000E3F6EBA
:10067800000E406E000E416E000E436E7CEF03F0DC
:100688004350D8B44AEF03F04CEF03F063EF03F0A4
:10069800D8903736383639363A36D8902B362C3605
:1006A8002D362E3641AE5BEF03F05DEF03F05EEFC3
:1006B80003F02B80D8903E363F36403641362F50D7
:1006C800375C305038583150395832503A58D8A0E1
:1006D80070EF03F072EF03F07BEF03F0418C2F50C3
:1006E800375E3050385A3150395A32503A5A432AC4
:1006F800190E436482EF03F084EF03F044EF03F034
:100708003750381039103A10D8B48DEF03F08FEF06
:1007180003F0A7EF03F03E80A7EF03F0D8902B3645
:100728002C362D362E3641AE9CEF03F09EEF03F0AB
:100738009FEF03F02B80D8903E363F364036413647
:100748003C06D8A03D062DAEACEF03F0AEEF03F0AB
:1007580092EF03F0000E436E41AEB5EF03F0B7EF32
:1007680003F0DBEF03F0FF0E3E14336EFF0E3F1471
:10077800346EFF0E4014356E7F0E4114366E3350C2
:10078800341035103610D8B4CCEF03F0CEEF03F0A8
:10079800D2EF03F0010E436EDBEF03F02BA0D7EF8F
:1007A80003F0D9EF03F0DBEF03F0CEEF03F0435093
:1007B800D8B4E1EF03F0E3EF03F007EF04F0010E24
:1007C8002B26000E2C222D222E222EA0EEEF03F037
:1007D800F0EF03F007EF04F02BC033F02CC034F037
:1007E8002DC035F02EC036F036343632353234323C
:1007F800333233C02BF034C02CF035C02DF036C066
:100808002EF03C4A3D2A3DBE12EF04F03D5008E16F
:100818003C28D8A012EF04F014EF04F01FEF04F006
:10082800000E3D6E3C68000E2B6E000E2C6E000E06
:100838002D6E000E2E6E3DBE2CEF04F03D5006E1ED
:100848003C04D8B02AEF04F02CEF04F03AEF04F09F
:10085800000E3D6E000E3C6E000E2B6E000E2C6ED0
:10086800000E2D6E000E2E6E000E3B6E3CC042F048
:1008780042A041EF04F043EF04F046EF04F02D8E60
:1008880047EF04F02D9ED89042302E6EFDEF02F017
:100898001200000E186E000E196E000E1A6E000E71
:1008A8001B6E0F0120B75BEF04F05DEF04F0D7EF8C
:1008B80004F020EE01F01650D9261750DA22DECFC8
:1008C80004F0DECF05F0DECF06F0DECF07F016C06D
:1008D800D9FF17C0DAFFDF50086E180E096E000E38
:1008E8000A6E190E0B6E000E0C6E1A0E0D6E000EAF
:1008F8000E6E1B0E0F6E000E106E5FEC09F018C026
:1009080023FF19C024FF1AC021FF1BC022FF20EEBD
:1009180005F01650D9261750DA22DF500F01256F3F
:1009280020EE06F01650D9261750DA22DF50266F2F
:1009380020EE07F01650D9261750DA22DF50276F1D
:1009480020EE08F01650D9261750DA22DF50286F0B
:1009580020EE09F01650D9261750DA22DF50296FF9
:1009680020EE0AF01650D9261750DA22DF502A6FE7
:1009780020EE0BF01650D9261750DA22DF502B6FD5
:1009880020EE0CF01650D9261750DA22DF502C6FC3
:1009980020EE0DF01650D9261750DA22DF502D6FB1
:1009A8002087D9EF05F010B7DCEF04F0DEEF04F094
:1009B80058EF05F020EE01F01650D9261750DA222C
:1009C800DECF04F0DECF05F0DECF06F0DECF07F095
:1009D80016C0D9FF17C0DAFFDF50086E180E096E6F
:1009E800000E0A6E190E0B6E000E0C6E1A0E0D6EAE
:1009F800000E0E6E1B0E0F6E000E106E5FEC09F0EF
:100A080018C013FF19C014FF1AC011FF1BC012FF32
:100A180020EE05F01650D9261750DA22DF500F01C4
:100A2800156F20EE06F01650D9261750DA22DF503F
:100A3800166F20EE07F01650D9261750DA22DF502D
:100A4800176F20EE08F01650D9261750DA22DF501B
:100A5800186F20EE09F01650D9261750DA22DF5009
:100A6800196F20EE0AF01650D9261750DA22DF50F7
:100A78001A6F20EE0BF01650D9261750DA22DF50E5
:100A88001B6F20EE0CF01650D9261750DA22DF50D3
:100A98001C6F20EE0DF01650D9261750DA22DF50C1
:100AA8001D6F1087D5EF04F000B75DEF05F05FEF1D
:100AB80005F0D9EF05F020EE01F01650D9261750B1
:100AC800DA22DECF04F0DECF05F0DECF06F0DECF8F
:100AD80007F016C0D9FF17C0DAFFDF50086E180EEE
:100AE800096E000E0A6E190E0B6E000E0C6E1A0EB1
:100AF8000D6E000E0E6E1B0E0F6E000E106E5FEC6C
:100B080009F018C003FF19C004FF1AC001FF1BC079
:100B180002FF20EE05F01650D9261750DA22DF50D2
:100B28000F01056F20EE06F01650D9261750DA226D
:100B3800DF50066F20EE07F01650D9261750DA223C
:100B4800DF50076F20EE08F01650D9261750DA222A
:100B5800DF50086F20EE09F01650D9261750DA2218
:100B6800DF50096F20EE0AF01650D9261750DA2206
:100B7800DF500A6F20EE0BF01650D9261750DA22F4
:100B8800DF500B6F20EE0CF01650D9261750DA22E2
:100B9800DF500C6F20EE0DF01650D9261750DA22D0
:100BA800DF500D6F0087D5EF04F012003DEC0DF01B
:100BB800F28EF28CF90E0E01F86FE30EF96F040E47
:100BC800E06F200EE16F340E046E1B0E056E62ECB2
:100BD8000DF0AA0E046E170E056E76EC0DF0020EDF
:100BE8000001AB6F310EA76F000EA86F000EA96F42
:100BF800000EAA6F010E8F6F320E8B6F000E8C6F76
:100C0800000E8D6F000E8E6F010E9D6F330E996F63
:100C1800000E9A6F000E9B6F000E9C6F14EF06F08B
:100C280015EC0DF00009D8B41CEF06F01EEF06F025
:100C380014EF06F07C0E176E000E186E60EC07F0CD
:100C4800210E00017D197E117F118011D8A42FEF8C
:100C580006F031EF06F03CEF06F020EE7CF010EEE7
:100C68006EF00D0EDBCFE3FFE806FCE251EF06F075
:100C7800110E7D197E117F118011D8A446EF06F060
:100C880048EF06F051EF06F020EE7CF010EE60F031
:100C98000D0EDBCFE3FFE806FCE26605D8A457EFAC
:100CA80006F059EF06F014EF06F05504D8A45FEFEC
:100CB80006F061EF06F065EF06F0010E9E6F6FEF2C
:100CC80006F05550D8A46BEF06F06DEF06F06FEF05
:100CD80006F0000E9E6F000E4CEC0CF004C050F0B5
:100CE80005C051F0000E2F6E000E306E800E316E72
:100CF800450E326E000E166E000E176EC80E186E78
:100D0800420E196E50C004F051C005F0066A076A19
:100D1800000E85EC08F004C012F005C013F006C000
:100D280014F007C015F06BEC00F012C02BF013C0E4
:100D38002CF014C02DF015C02EF080EC02F02BC062
:100D480044F02CC045F02DC046F02EC047F0B6EC5C
:100D58000AF044500001906F7451D8A4B6EF06F021
:100D6800B8EF06F0F5EF06F0000E2F6E000E306EAD
:100D7800C80E316E420E326E000E166E000E176EE1
:100D8800C80E186E410E196E9051046E056A066AF7
:100D9800076A000E85EC08F004C012F005C013F0D5
:100DA80006C014F007C015F06BEC00F012C02BF071
:100DB80013C02CF014C02DF015C02EF080EC02F0FA
:100DC8002BC044F02CC045F02DC046F02EC047F093
:100DD800B6EC0AF044500001AC6F000EAD6F3CEF6A
:100DE80007F07405D8A4FBEF06F0FDEF06F03AEF24
:100DF80007F0000E2F6E000E306EC80E316E420ED8
:100E0800326E000E166E000E176EC80E186E410E6A
:100E1800196E9051046E056A066A076A000E85EC21
:100E280008F004C012F005C013F006C014F007C0A3
:100E380015F06BEC00F012C02BF013C02CF014C0AE
:100E48002DF015C02EF080EC02F02BC044F02CC021
:100E580045F02DC046F02EC047F0B6EC0AF04450DD
:100E68000001AC6F010EAD6F3CEF07F0000EAC6FE8
:100E7800140E4A184B10D8A444EF07F046EF07F0B9
:100E880014EF06F0000E4B6E000E4A6EA60E166E9C
:100E9800000E176E4DEC04F0980E166E000E176ECD
:100EA8004DEC04F08A0E166E000E176E4DEC04F031
:100EB80014EF06F069EF00F060AE65EF07F067EF3A
:100EC80007F0F1EF07F062A66CEF07F06EEF07F09E
:100ED8008DEF07F017C0D9FF18C0DAFF020EDF6EDA
:100EE80064CF04F061CF05F062CF06F0635019ECCF
:100EF8000AF020EE01F01750D9261850DA2204C063
:100F0800DEFF05C0DEFF06C0DEFF07C0DEFFA6EF7E
:100F180007F017C0D9FF18C0DAFF010EDF6E62CFE5
:100F280004F0615099EC0BF020EE01F01750D9262F
:100F38001850DA2204C0DEFF05C0DEFF06C0DEFF5F
:100F480007C0DEFF20EE05F01750D9261850DA2228
:100F580065CFDFFF20EE06F01750D9261850DA22A9
:100F680066CFDFFF20EE07F01750D9261850DA2297
:100F780067CFDFFF20EE08F01750D9261850DA2285
:100F880068CFDFFF20EE09F01750D9261850DA2273
:100F980069CFDFFF20EE0AF01750D9261850DA2261
:100FA8006ACFDFFF20EE0BF01750D9261850DA224F
:100FB8006BCFDFFF20EE0CF01750D9261850DA223D
:100FC8006CCFDFFF20EE0DF01750D9261850DA222B
:100FD8006DCFDFFF609E84EF08F00F0130AFF7EFB1
:100FE80007F0F9EF07F084EF08F032A7FEEF07F0FB
:100FF80000EF08F01FEF08F017C0D9FF18C0DAFF9C
:10100800020EDF6E34CF04F031CF05F032CF06F098
:10101800335119EC0AF020EE01F01750D926185078
:10102800DA2204C0DEFF05C0DEFF06C0DEFF07C00F
:10103800DEFF38EF08F017C0D9FF18C0DAFF010E3D
:10104800DF6E32CF04F0315199EC0BF020EE01F055
:101058001750D9261850DA2204C0DEFF05C0DEFF7B
:1010680006C0DEFF07C0DEFF20EE05F01750D926C8
:101078001850DA2235CFDFFF20EE06F01750D926B8
:101088001850DA2236CFDFFF20EE07F01750D926A6
:101098001850DA2237CFDFFF20EE08F01750D92694
:1010A8001850DA2238CFDFFF20EE09F01750D92682
:1010B8001850DA2239CFDFFF20EE0AF01750D92670
:1010C8001850DA223ACFDFFF20EE0BF01750D9265E
:1010D8001850DA223BCFDFFF20EE0CF01750D9264C
:1010E8001850DA223CCFDFFF20EE0DF01750D9263A
:1010F8001850DA223DCFDFFF0F01309FEFEF07F0E6
:1011080012000C6E0C50D8B48CEF08F08EEF08F07B
:10111800B0EF08F007BE95EF08F093EF08F0B0EFD6
:1011280008F004C008F005C009F006C00AF007C0BE
:101138000BF0081E091E0A1E0B1E082A000E0922A3
:101148000A220B2208C00EF009C00FF00AC010F0E6
:101158000BC011F0B8EF08F004C00EF005C00FF096
:1011680006C010F007C011F0045005100610071053
:10117800D8A4C1EF08F0C3EF08F0CDEF08F0000ED7
:10118800046E000E056E000E066E000E076E5EEF12
:1011980009F0960E0D6ED7EF08F00D2AD89011328F
:1011A80010320F320E32000E0E14086E000E0F149D
:1011B800096E000E10140A6EFE0E11140B6E085004
:1011C80009100A100B10D8A4ECEF08F0EEEF08F0A5
:1011D800D1EF08F0FCEF08F00D2A010E0E26000EE4
:1011E8000F2210221122D890113210320F320E32F3
:1011F800000E0E14086E000E0F14096E000E101467
:101208000A6EFF0E11140B6E085009100A100B100D
:10121800D8A411EF09F013EF09F0F0EF08F01BEF75
:1012280009F00D06D8900E360F361036113610BE5E
:1012380020EF09F022EF09F02AEF09F0020E0D6005
:1012480028EF09F02AEF09F015EF09F00DB02FEF9C
:1012580009F031EF09F032EF09F0109ED8900D3205
:101268000DC008F0096A0A6A0B6A08C00BF00A6A1E
:10127800096A086A08500E1209500F120A50101213
:101288000B5011120C50D8B44CEF09F04EEF09F086
:1012980056EF09F007BE55EF09F053EF09F056EF86
:1012A80009F0118E0EC004F00FC005F010C006F052
:1012B80011C007F01200020E0818D8A466EF09F052
:1012C80068EF09F0EBEF09F00BC0D9FF0CC0DAFFAB
:1012D80004C0DFFF04C011F005C012F006C013F00F
:1012E80007C014F012C011F013C012F014C013F0AC
:1012F800146A11C004F012C005F013C006F014C03F
:1013080007F009C0D9FF0AC0DAFF04C0DFFF04C034
:1013180011F005C012F006C013F007C014F012C097
:1013280011F013C012F014C013F0146A11C004F0C5
:1013380012C005F013C006F014C007F00450030BE8
:10134800156E04C011F005C012F006C013F007C0F6
:1013580014F0030ED8901136123613361436E82ED0
:10136800AEEF09F011C004F012C005F013C006F08A
:1013780014C007F00450E00B1524156E1550080F23
:10138800156E1550EB0B0FC0D9FF10C0DAFFDF6EDA
:1013980004C011F005C012F006C013F007C014F025
:1013A80012C011F013C012F014C013F0146A11C067
:1013B80004F012C005F013C006F014C007F00DC009
:1013C800D9FF0EC0DAFF04C0DFFF18EF0AF009C02A
:1013D800D9FF0AC0DAFF000EDF6E0BC0D9FF0CC0C0
:1013E800DAFF000EDF6E04C011F005C012F006C06F
:1013F80013F007C014F0050ED890113612361336C4
:101408001436E82E00EF0AF011C004F012C005F0FF
:1014180013C006F014C007F00FC0D9FF10C0DAFFE0
:1014280004C0DFFFCCEF09F012000C6E000E136E43
:10143800000E146E000E156E000E166E0650030B8D
:10144800116E0638E842070B126E0550086E096ADD
:10145800D89008360936D89008360936D890083614
:10146800093608C013F009C014F0000E14BEFF0EB0
:10147800156E166E12501324136E000E1420146E7F
:10148800000E1520156E000E1620166E13C008F0FB
:1014980014C009F015C00AF016C00BF0020ED8905F
:1014A800083609360A360B36E82E53EF0AF008C01C
:1014B80013F009C014F00AC015F00BC016F0115053
:1014C8001324136E000E1420146E000E1520156ED2
:1014D800000E1620166E13C009F014C00AF015C0CD
:1014E8000BF0086A08C013F009C014F00AC015F020
:1014F8000BC016F00C501324136E000E1420146E3B
:10150800000E1520156E000E1620166E13C009F079
:1015180014C00AF015C00BF0086A08C013F009C01F
:1015280014F00AC015F00BC016F004501324136E03
:10153800000E1420146E000E1520156E000E1620D5
:10154800166E13C00DF014C00EF015C00FF016C0C3
:1015580010F00DC004F00EC005F00FC006F010C06A
:1015680007F0120046344734496E4950D8A4BFEFFB
:101578000AF0C1EF0AF0CBEF0AF0000E446E000E3D
:10158800456E000E466E000E476E39EF0BF044C0F4
:10159800C2F045C0C3F046C0C4F047C0C5F0200E35
:1015A800DCEF0AF00001D890C533C433C333C2332B
:1015B800E82ED6EF0AF0C251486E468EFF0E44164A
:1015C800FF0E4516FF0E4616000E4716960E495E8C
:1015D80049BEF3EF0AF0F1EF0AF009EF0BF04950BA
:1015E800800A970FD8B0FBEF0AF0FDEF0AF0FFEF83
:1015F8000AF0C1EF0AF0D8904732463245324432F9
:10160800493EFFEF0AF021EF0BF01F0E49640FEF80
:101618000BF011EF0BF019EF0BF0C1EF0AF0D890B7
:10162800443645364636473649064950D8A41FEF52
:101638000BF021EF0BF013EF0BF04850D8B427EF65
:101648000BF029EF0BF031EF0BF0471E461E451E3D
:10165800446C000E45224622472244C044F045C04F
:1016680045F046C046F047C047F01200800E6F6E46
:101678006E50E00B800AD8A444EF0BF046EF0BF055
:101688003CEF0BF0000E726E200E706E0E01FA69C0
:10169800FB69F869E30EF96FFE69FF69FC69E30EFF
:1016A800FD6F000EE26F000EE36F040EE06F200E78
:1016B800E16F000EE66F000EE76F000EE46F000E9C
:1016C800E56F000EEA6F000EEB6F000EE86F000E7C
:1016D800E96F000EEE6F000EEF6F000EEC6F000E5C
:1016E800ED6F000EF26F000EF36F000EF06F000E3C
:1016F800F16F000EF66F000EF76F000EF46F000E1C
:10170800F56F310E436FA80E446F810E456F000EC2
:101718006F6E6ECF04F0E00E0416D8A496EF0BF0AF
:1017280098EF0BF08DEF0BF012000A6E0A50086E5E
:10173800096AD89008360936D89008360936D890FC
:101748000836093608C00FF009C010F0000E10BEA8
:10175800FF0E116E126E04C008F0050E096ED890C7
:101768000832092EB3EF0BF008500F240F6E000E4D
:101778001020106E000E1120116E000E1220126E35
:101788000FC00BF010C00CF011C00DF012C00EF01D
:101798000BC004F00CC005F00DC006F00EC007F039
:1017A800120089BADAEF0BF0DDEF0BF0010EDEEF75
:1017B8000BF0000EFF0A016E013A0146895001182C
:1017C800DF0B0118896E4C504D10D8A4EEEF0BF0CA
:1017D800F0EF0BF0F8EF0BF0010E556E000E4D6EAA
:1017E800010E4C6E07EF0CF04C044D10D8A4FFEF1F
:1017F8000BF001EF0CF007EF0CF0000E556E000E29
:101808004D6E000E4C6E1200F292F18C460E046E74
:101818001B0E056E76EC0DF0F288F090F18A440EFE
:10182800046E1B0E056E71EC0DF0F086F092F188D7
:10183800420E046E1B0E056E6CEC0DF0F088F094F1
:10184800F186400E046E1B0E056E67EC0DF0F08AF3
:101858001200080EA76E900EAB6E240EAC6E080E2A
:10186800AF6E020E7D6E000E046E000E056E80ECEB
:101878000DF0000E046E000E056E7BEC0DF0000EF0
:10188800046E000E056E85EC0DF0000E566E12000B
:10189800086E08C006F006460646C2500618830BB6
:1018A8000618C26EC280C282C2B25DEF0CF05FEF52
:1018B8000CF058EF0CF0C450076E066AC3500624AB
:1018C800046E000E0720056E1200F2945850D76E71
:1018D80057C0D6FF59505A10D8B475EF0CF077EFAF
:1018E8000CF084EF0CF002D884EF0CF00500FA6ECF
:1018F8005950FD6E5A50FE6EF850FF6EFA501200A5
:101908001200D59C0B0ED76EDB0ED66ED650D7CFF5
:1019180006F0076A06C007F0066A0610576E0750F9
:10192800586EF294F28A3E0E046E1B0E056E62EC3F
:101938000DF0910ED56E12000001BA51BB11D8B44A
:10194800A8EF0CF0AAEF0CF0B7EF0CF002D8B7EF45
:101958000CF00500FA6EBA51FD6EBB51FE6EF850E0
:10196800FF6EFA50120012000001BC51BD11D8B42C
:10197800C0EF0CF0C2EF0CF0CFEF0CF002D8CFEFB5
:101988000CF00500FA6EBC51FD6EBD51FE6EF850AC
:10199800FF6EFA50120012000001BE51BF11D8B4F8
:1019A800D8EF0CF0DAEF0CF0E7EF0CF002D8E7EF25
:1019B8000CF00500FA6EBE51FD6EBF51FE6EF85078
:1019C800FF6EFA50120012000001C051C111D8B4C4
:1019D800F0EF0CF0F2EF0CF0FFEF0CF002D8FFEF95
:1019E8000CF00500FA6EC051FD6EC151FE6EF85044
:1019F800FF6EFA5012001200000E896E000E8A6EF9
:101A0800000E8B6ECF0E926EFB0E936EBF0E946E11
:101A18001F0E0F015D6F020E5C6F000E5B6FF18E83
:101A28001200000E046E60AE1CEF0DF01EEF0DF0FC
:101A38001FEF0DF0042A0F0130AF25EF0DF027EF4F
:101A48000DF028EF0DF0042A0450120000EE60F0AB
:101A5800540EEE6AE806FDE100EE4AF00D0EEE6A5D
:101A6800E806FDE15B905B92000EF86E0001DAEF8C
:101A780005F09DEC0DF000EC0DF059EC0DF04EEC7E
:101A88000DF008EC0CF085EC0CF02DEC0CF03AECB9
:101A98000BF01200010EC26E000EC16EB80EC06EC1
:101AA800000EC46E000EC36E1200600ED36E000EE0
:101AB800D26E000E9B6E000E9A6E120004C059F092
:101AC80005C05AF0120004C0BAF005C0BBF01200FD
:101AD80004C0BCF005C0BDF0120004C0BEF005C0D3
:101AE800BFF0120004C0C0F005C0C1F0120004C06D
:101AF800B6F005C0B7F0120004C0B8F005C0B9F0E0
:101B0800120004C0B4F005C0B5F01200F094A0ECC7
:101B18000CF01200F092B8EC0CF01200F090D0EC3F
:101B28000CF01200F292E8EC0CF012004A4A4B2A30
:101B38001200D09E120012001200120012001200B1
:020000040020DA
:08000000FFFFFFFFFFFFFFFF00
:020000040030CA
:0E00000015027F7CFF8991FF0FC00FE00F40BB
:00000001FF
