:0400000054EF00F0C9
:100008004682FACF3BF0FBCF3CF0D9CF3DF0DACFB8
:100018003EF0F2AC12EF00F014EF00F04AEF00F0FF
:1000280076A019EF00F01BEF00F026EF00F077A0A4
:1000380020EF00F022EF00F026EF00F025EC09F0A9
:100048004AEF00F09DA22BEF00F02DEF00F038EF03
:1000580000F09EA232EF00F034EF00F038EF00F02D
:10006800C6EC08F04AEF00F09DA03DEF00F03FEF2E
:1000780000F04AEF00F09EA044EF00F046EF00F0D9
:100088004AEF00F07BEC08F04AEF00F03EC0DAFFE0
:100098003DC0D9FF3CC0FBFF3BC0FAFF46921100B0
:1000A80003EF09F042EC09F016EC09F05FEC08F0F8
:1000B800F28EF28CDC0E3F6E120E406E5FEC09F091
:1000C800680E3F6E120E406E64EC09F0C60E3F6E6D
:1000D8000F0E406E69EC09F073EC09F077EC09F04B
:1000E800600E606E010E0001776F000E156E000E37
:1000F800146E000E136E8996899A73EC09F079ECE8
:1001080009F084EC07F0B8EF02F0000E156E000E4F
:10011800146E000E136E73EC09F08996899A97EFA6
:1001280000F084EC07F0030E1718D8A49EEF00F037
:10013800A0EF00F095EF00F0020E0001776F85EF59
:1001480000F080A4AAEF00F0ACEF00F0B2EF00F0EE
:10015800030E776F010E146E85EF00F080A0B7EFE5
:1001680000F0B9EF00F0D7EF00F075EC09F0BFEF41
:1001780000F084EC07F009040A10D8A4C6EF00F0D8
:10018800C8EF00F0BDEF00F08986010E136E000E77
:100198000A6E000E096E73EC09F0000E066E010E71
:1001A800056E85EF00F080A0DCEF00F0DEEF00F0D8
:1001B80005EF01F005040610D8A4E5EF00F0E7EF1D
:1001C80000F005EF01F075EC09F0EDEF00F084ECBC
:1001D80007F009040A10D8A4F4EF00F0F6EF00F0D5
:1001E800EBEF00F08996000E136E000E0A6E000EFB
:1001F800096E73EC09F0000E066E000E056E85EFB1
:1002080000F080B40AEF01F00CEF01F010EF01F0FC
:10021800010E776F85EF00F085EF00F084EC07F0B2
:1002280073EC09F080A01BEF01F01DEF01F038EF2F
:1002380001F075EC09F023EF01F084EC07F00904F4
:100248000A10D8A42AEF01F02CEF01F021EF01F0F9
:100258008986010E136E000E0A6E000E096E040EDA
:100268000001776FB2EF01F080A23DEF01F03FEFA0
:1002780001F067EF01F0030E1718D8A446EF01F05C
:1002880048EF01F067EF01F075EC09F04EEF01F06F
:1002980084EC07F009040A10D8A455EF01F057EFD1
:1002A80001F04CEF01F0898A010E156E000E0A6EFE
:1002B800000E096E000E0001796F010E786F050EB1
:1002C800776FB2EF01F01650800A710FD8A06FEF68
:1002D80001F071EF01F07EEF01F01504D8A477EF7B
:1002E80001F079EF01F07EEF01F0010E136E8986BF
:1002F800B2EF01F01650D8B484EF01F086EF01F0A8
:1003080093EF01F01550D8A48CEF01F08EEF01F0B7
:1003180093EF01F0010E0001776FB2EF01F0165074
:10032800800A710FD8B09BEF01F09DEF01F0A7EFA5
:1003380001F01650800A8E0FD8B0A5EF01F0A7EF94
:1003480001F0B2EF01F01504D8A4ADEF01F0AFEF62
:1003580001F0B2EF01F0010E136E898680B4B7EF99
:1003680001F0B9EF01F085EF00F0010E0001776FA1
:10037800000E146E85EF00F084EC07F073EC09F0C2
:1003880080A0C9EF01F0CBEF01F0E6EF01F075ECCA
:1003980009F0D1EF01F084EC07F009040A10D8A4A1
:1003A800D8EF01F0DAEF01F0CFEF01F08996000EF7
:1003B800136E000E0A6E000E096E030E0001776FB1
:1003C80034EF02F080A2EBEF01F0EDEF01F015EF52
:1003D80002F0030E1718D8A4F4EF01F0F6EF01F0BD
:1003E80015EF02F075EC09F0FCEF01F084EC07F072
:1003F80009040A10D8A403EF02F005EF02F0FAEF9F
:1004080001F0898A010E156E000E0A6E000E096E43
:10041800000E0001796F010E786F050E776F34EFCB
:1004280002F01650800A710FD8B01DEF02F01FEFCE
:1004380002F029EF02F01650800A8E0FD8B027EF8D
:1004480002F029EF02F034EF02F01504D8A42FEFE0
:1004580002F031EF02F034EF02F0010E136E8986DC
:1004680080B439EF02F03BEF02F085EF00F0B9EF0E
:1004780001F073EC09F084EC07F080A246EF02F07B
:1004880048EF02F06CEF02F0030E1718D8A44FEFF4
:1004980002F051EF02F06CEF02F075EC09F057EF43
:1004A80002F084EC07F009040A10D8A45EEF02F009
:1004B80060EF02F055EF02F0899A000E156E000EFB
:1004C8000A6E000E096E030E0001776F85EF00F0CB
:1004D80080A071EF02F073EF02F08EEF02F075EC7E
:1004E80009F079EF02F084EC07F009040A10D8A4A7
:1004F80080EF02F082EF02F077EF02F08986010EBA
:10050800136E000E0A6E000E096E040E0001776F5E
:1005180085EF00F01650800A710FD8B096EF02F000
:1005280098EF02F0A2EF02F01650800A8E0FD8B0B2
:10053800A0EF02F0A2EF02F0AFEF02F01504D8A48A
:10054800A8EF02F0AAEF02F0AFEF02F08986010EE1
:10055800136E85EF00F080B4B4EF02F0B6EF02F04E
:1005680010EF01F0B9EF01F000017751756F766B6C
:100578007651000AD8B4C3EF02F085EF00F0755148
:10058800010AD8B489EF00F0030AD8B4A5EF00F047
:10059800010AD8B412EF01F0070AD8B4C0EF01F08D
:1005A800010AD8B43DEF02F085EF00F054EF00F0F7
:1005B800000E00016F6F000E706F000E716F000E5D
:1005C800726F0F0120B7EBEF02F0EDEF02F079EF59
:1005D80003F0000120EE01F06D51D9266E51DA22A8
:1005E800DECF60F0DECF61F0DECF62F0DECF63F009
:1005F8006DC0D9FF6EC0DAFFDF50646F6F0E656F94
:10060800000E666F700E676F000E686F710E696F6F
:10061800000E6A6F720E6B6F000E6C6FC5EC05F002
:100628006FC023FF70C024FF71C021FF72C022FF7A
:10063800000120EE05F06D51D9266E51DA22DF5007
:100648000F01256F000120EE06F06D51D9266E517D
:10065800DA22DF500F01266F000120EE07F06D51FE
:10066800D9266E51DA22DF500F01276F000120EEE4
:1006780008F06D51D9266E51DA22DF500F01286F2C
:10068800000120EE09F06D51D9266E51DA22DF50B3
:100698000F01296F000120EE0AF06D51D9266E5125
:1006A800DA22DF500F012A6F000120EE0BF06D51A6
:1006B800D9266E51DA22DF500F012B6F000120EE90
:1006C8000CF06D51D9266E51DA22DF500F012C6FD4
:1006D800000120EE0DF06D51D9266E51DA22DF505F
:1006E8000F012D6F20879FEF04F010B77EEF03F006
:1006F80080EF03F00CEF04F0000120EE01F06D51E3
:10070800D9266E51DA22DECF60F0DECF61F0DECF7F
:1007180062F0DECF63F06DC0D9FF6EC0DAFFDF5044
:10072800646F6F0E656F000E666F700E676F000E58
:10073800686F710E696F000E6A6F720E6B6F000E34
:100748006C6FC5EC05F06FC013FF70C014FF71C06B
:1007580011FF72C012FF000120EE05F06D51D9267D
:100768006E51DA22DF500F01156F000120EE06F0FE
:100778006D51D9266E51DA22DF500F01166F000134
:1007880020EE07F06D51D9266E51DA22DF500F01A5
:10079800176F000120EE08F06D51D9266E51DA224C
:1007A800DF500F01186F000120EE09F06D51D926B6
:1007B8006E51DA22DF500F01196F000120EE0AF0A6
:1007C8006D51D9266E51DA22DF500F011A6F0001E0
:1007D80020EE0BF06D51D9266E51DA22DF500F0151
:1007E8001B6F000120EE0CF06D51D9266E51DA22F4
:1007F800DF500F011C6F000120EE0DF06D51D9265E
:100808006E51DA22DF500F011D6F108777EF03F06A
:1008180000B711EF04F013EF04F09FEF04F00001AC
:1008280020EE01F06D51D9266E51DA22DECF60F04C
:10083800DECF61F0DECF62F0DECF63F06DC0D9FFAE
:100848006EC0DAFFDF50646F6F0E656F000E666F63
:10085800700E676F000E686F710E696F000E6A6F19
:10086800720E6B6F000E6C6FC5EC05F06FC003FF66
:1008780070C004FF71C001FF72C002FF000120EECA
:1008880005F06D51D9266E51DA22DF500F01056F40
:10089800000120EE06F06D51D9266E51DA22DF50A4
:1008A8000F01066F000120EE07F06D51D9266E5139
:1008B800DA22DF500F01076F000120EE08F06D51BA
:1008C800D9266E51DA22DF500F01086F000120EEA1
:1008D80009F06D51D9266E51DA22DF500F01096FE8
:1008E800000120EE0AF06D51D9266E51DA22DF5050
:1008F8000F010A6F000120EE0BF06D51D9266E51E1
:10090800DA22DF500F010B6F000120EE0CF06D5161
:10091800D9266E51DA22DF500F010C6F000120EE4C
:100928000DF06D51D9266E51DA22DF500F010D6F8F
:10093800008777EF03F0120060AEA5EF04F0A7EF91
:1009480004F031EF05F062A6ACEF04F0AEEF04F06E
:10095800CDEF04F039C0D9FF3AC0DAFF020EDF6EDE
:1009680064CF26F061CF27F062CF28F0635080EC87
:1009780006F020EE01F03950D9263A50DA2226C086
:10098800DEFF27C0DEFF28C0DEFF29C0DEFFE6EF5E
:1009980004F039C0D9FF3AC0DAFF010EDF6E62CF2A
:1009A80026F0615023EC08F020EE01F03950D926EA
:1009B8003A50DA2226C0DEFF27C0DEFF28C0DEFF5D
:1009C80029C0DEFF20EE05F03950D9263A50DA2248
:1009D80065CFDFFF20EE06F03950D9263A50DA22EB
:1009E80066CFDFFF20EE07F03950D9263A50DA22D9
:1009F80067CFDFFF20EE08F03950D9263A50DA22C7
:100A080068CFDFFF20EE09F03950D9263A50DA22B4
:100A180069CFDFFF20EE0AF03950D9263A50DA22A2
:100A28006ACFDFFF20EE0BF03950D9263A50DA2290
:100A38006BCFDFFF20EE0CF03950D9263A50DA227E
:100A48006CCFDFFF20EE0DF03950D9263A50DA226C
:100A58006DCFDFFF609EC4EF05F00F0130AF37EFB9
:100A680005F039EF05F0C4EF05F032A73EEF05F0C9
:100A780040EF05F05FEF05F039C0D9FF3AC0DAFF63
:100A8800020EDF6E34CF26F031CF27F032CF28F0B8
:100A9800335180EC06F020EE01F03950D9263A5057
:100AA800DA2226C0DEFF27C0DEFF28C0DEFF29C00D
:100AB800DEFF78EF05F039C0D9FF3AC0DAFF010E42
:100AC800DF6E32CF26F0315123EC08F020EE01F032
:100AD8003950D9263A50DA2226C0DEFF27C0DEFF79
:100AE80028C0DEFF29C0DEFF20EE05F03950D926E8
:100AF8003A50DA2235CFDFFF20EE06F03950D926FA
:100B08003A50DA2236CFDFFF20EE07F03950D926E7
:100B18003A50DA2237CFDFFF20EE08F03950D926D5
:100B28003A50DA2238CFDFFF20EE09F03950D926C3
:100B38003A50DA2239CFDFFF20EE0AF03950D926B1
:100B48003A50DA223ACFDFFF20EE0BF03950D9269F
:100B58003A50DA223BCFDFFF20EE0CF03950D9268D
:100B68003A50DA223CCFDFFF20EE0DF03950D9267B
:100B78003A50DA223DCFDFFF0F01309F2FEF05F00B
:100B88001200020E00016419D8A4CDEF05F0CFEFD2
:100B980005F052EF06F067C0D9FF68C0DAFF60C001
:100BA800DFFF60C03FF061C040F062C041F063C049
:100BB80042F040C03FF041C040F042C041F0426ABC
:100BC8003FC060F040C061F041C062F042C063F0D5
:100BD80065C0D9FF66C0DAFF60C0DFFF60C03FF0C4
:100BE80061C040F062C041F063C042F040C03FF0D5
:100BF80041C040F042C041F0426A3FC060F040C08E
:100C080061F041C062F042C063F06051030B436E73
:100C180060C03FF061C040F062C041F063C042F084
:100C2800030ED8903F36403641364236E82E15EF4F
:100C380006F03FC060F040C061F041C062F042C0C1
:100C480063F06051E00B4324436E4350080F436E3A
:100C58004350EB0B6BC0D9FF6CC0DAFFDF6E60C08E
:100C68003FF061C040F062C041F063C042F040C054
:100C78003FF041C040F042C041F0426A3FC060F0DE
:100C880040C061F041C062F042C063F069C0D9FF62
:100C98006AC0DAFF60C0DFFF7FEF06F065C0D9FFEA
:100CA80066C0DAFF000EDF6E67C0D9FF68C0DAFFE2
:100CB800000EDF6E60C03FF061C040F062C041F0DE
:100CC80063C042F0050ED8903F3640364136423672
:100CD800E82E67EF06F03FC060F040C061F041C009
:100CE80062F042C063F06BC0D9FF6CC0DAFF60C02D
:100CF800DFFF33EF06F012002E6E000E356E000E89
:100D0800366E000E376E000E386E2850030B336EA9
:100D18002838E842070B346E27502A6E2B6AD89081
:100D28002A362B36D8902A362B36D8902A362B36A8
:100D38002AC035F02BC036F0000E36BEFF0E376ED7
:100D4800386E34503524356E000E3620366E000E5F
:100D58003720376E000E3820386E35C02AF036C07E
:100D68002BF037C02CF038C02DF0020ED8902A3660
:100D78002B362C362D36E82EBAEF06F02AC035F081
:100D88002BC036F02CC037F02DC038F03350352446
:100D9800356E000E3620366E000E3720376E000E88
:100DA8003820386E35C02BF036C02CF037C02DF007
:100DB8002A6A2AC035F02BC036F02CC037F02DC077
:100DC80038F02E503524356E000E3620366E000E63
:100DD8003720376E000E3820386E35C02BF036C0FD
:100DE8002CF037C02DF02A6A2AC035F02BC036F017
:100DF8002CC037F02DC038F026503524356E000E43
:100E08003620366E000E3720376E000E3820386ECA
:100E180035C02FF036C030F037C031F038C032F06E
:100E28002FC026F030C027F031C028F032C029F09A
:100E38001200800E6F6E6E50E00B800AD8A427EF68
:100E480007F029EF07F01FEF07F0000E726E200E73
:100E5800706E0E01FA69FB69F869E30EF96FFE69B5
:100E6800FF69FC69E30EFD6F000EE26F000EE36F91
:100E7800040EE06F200EE16F000EE66F000EE76FC4
:100E8800000EE46F000EE56F000EEA6F000EEB6FC8
:100E9800000EE86F000EE96F000EEE6F000EEF6FA8
:100EA800000EEC6F000EED6F000EF26F000EF36F88
:100EB800000EF06F000EF16F000EF66F000EF76F68
:100EC800000EF46F000EF56F310E436FA80E446FDD
:100ED800810E456FFE0E3F6E120E406E69EC09F0F2
:100EE80077907680000E6F6E6ECF41F0E00E41165F
:100EF800D8A481EF07F083EF07F078EF07F012002E
:100F0800BBEF07F0110E196E000E1A6E000E1B6E65
:100F1800000E1C6E010E1D6E15C01EF0180E00018D
:100F28006D6F000E6E6FDCEC02F0E2EF07F0120E50
:100F3800196E000E1A6E000E1B6E000E1C6E010E4E
:100F48001D6E14C01EF0180E6D6F000E6E6FDCEC77
:100F580002F0130E196E000E1A6E000E1B6E000EB4
:100F68001C6E010E1D6E13C01EF092EF07F00BC031
:100F780073F00CC074F000017451000AD8B4C7EFC4
:100F880007F0E2EF07F07351020AD8B486EF07F0D2
:100F9800070AD8B49BEF07F0030AD8B486EF07F026
:100FA8000D0AD8B486EF07F0050AD8B49BEF07F00E
:100FB800010AD8B486EF07F0E2EF07F012007A0EC4
:100FC800396E000E3A6EA0EC04F07BC001F07CC0D4
:100FD80002F07DC003F07EC004F00150021003103F
:100FE8000410D8A4FAEF07F0FCEF07F004EF08F0BC
:100FF80058EC09F0000E0C6E000E0B6E22EF08F094
:10100800210E0118021003100410D8A40EEF08F0E6
:1010180010EF08F014EF08F080C017F022EF08F086
:10102800310E0118021003100410D8A41EEF08F0A6
:1010380020EF08F022EF08F080C016F012002C6EA6
:101048002C502A6E2B6AD8902A362B36D8902A36FE
:101058002B36D8902A362B362AC031F02BC032F0E6
:10106800000E32BEFF0E336E346E26C02AF0050E17
:101078002B6ED8902A322B2E3DEF08F02A503124BF
:10108800316E000E3220326E000E3320336E000EA9
:101098003420346E31C02DF032C02EF033C02FF022
:1010A80034C030F02DC026F02EC027F02FC028F015
:1010B80030C029F01200000EAA6EEC0ECF6E780E2A
:1010C800CE6E9E90CE50CFCF41F0426A41C042F0E2
:1010D800416A4110446E4250456E9D80FC0E3F6E41
:1010E800120E406E64EC09F0010ECD6E12009E9057
:1010F80044C026F045C027F0EFEC08F00D4A0E2A50
:101108000E5009E1140E0D5CD8A08DEF08F08FEF9A
:1011180008F095EF08F0AEEC08F0000E0E6E000E29
:101128000D6E120000018A518B11D8B49EEF08F0A1
:10113800A0EF08F0ADEF08F002D8ADEF08F0050019
:10114800FA6E8A51FD6E8B51FE6EF850FF6EFA50A2
:1011580012001200000188518911D8B4B6EF08F0C6
:10116800B8EF08F0C5EF08F002D8C5EF08F00500A1
:10117800FA6E8851FD6E8951FE6EF850FF6EFA5076
:10118800120012009E92114A122A125009E1640EAE
:10119800115CD8A0D2EF08F0D4EF08F0DAEF08F02D
:1011A80096EC08F0000E126E000E116E1200000E82
:1011B800896E000E8A6E000E8B6EC70E926EFB0E45
:1011C800936E9468180E0F015D6F070E5C6F000E2A
:1011D8005B6FF18E1200CDA4F4EF08F0F6EF08F083
:1011E800FEEF08F0CD902750CF6E26C0CEFFCD8001
:1011F80002EF09F02750CF6E26C0CEFF120000EE96
:1012080078F0100EEE6AE806FDE100EE01F0250E1A
:10121800EE6AE806FDE146904692000EF86E00017F
:1012280056EF00F0C20ECB6E000ECC6E9E929D82E1
:10123800FA0E3F6E120E406E5FEC09F07E0ECA6E1B
:10124800120002D832EF09F00500FA6E0F50FD6E59
:101258001050FE6EF850FF6EFA5012007790120090
:101268000150021003100410D8B43DEF09F03FEF0D
:1012780009F041EF09F00B4A0C2A12007BEC09F047
:10128800DBEC08F04FEC09F016EC09F05FEC08F025
:101298001DEC07F01200600ED36E000ED26E000E29
:1012A8009B6E000E9A6E120044C026F045C027F0CF
:1012B800EFEC08F012003FC08AF040C08BF012003B
:1012C8003FC088F040C089F012003FC00FF040C016
:1012D80010F01200000E0A6E010E096E1200CA9478
:1012E8001200CA841200CD901200CD801200D09E48
:0812F8001200120012001200A6
:020000040020DA
:08000000FFFFFFFFFFFFFFFF00
:020000040030CA
:0E00000015027F7CFF8991FF0FC00FE00F40BB
:00000001FF
