:040000008AEF00F093
:100008004682FACF17F0FBCF18F0D9CF19F0DACF24
:100018001AF0F0A612EF00F014EF00F01FEF00F056
:10002800F0A019EF00F01BEF00F01FEF00F0CAEC92
:1000380008F080EF00F0F0A824EF00F026EF00F0C1
:1000480031EF00F0F0A22BEF00F02DEF00F031EFD0
:1000580000F0C6EC08F080EF00F0F0AA36EF00F0F0
:1000680038EF00F043EF00F0F0A43DEF00F03FEF71
:1000780000F043EF00F0C2EC08F080EF00F0F2A8C7
:1000880048EF00F04AEF00F055EF00F0F2A24FEF12
:1000980000F051EF00F055EF00F0CEEC08F080EFE3
:1000A80000F0F2AC5AEF00F05CEF00F080EF00F0E7
:1000B8009DA061EF00F063EF00F06EEF00F09EA0EE
:1000C80068EF00F06AEF00F06EEF00F05FEC08F008
:1000D80080EF00F076A073EF00F075EF00F080EF8E
:1000E80000F077A07AEF00F07CEF00F080EF00F0EE
:1000F80046EC08F080EF00F01AC0DAFF19C0D9FF0B
:1001080018C0FBFF17C0FAFF46921100F6EF06F081
:10011800000E0001906F000E916F000E926F000E9E
:10012800936F0F0120B79BEF00F09DEF00F029EFD0
:1001380001F0000120EE01F08E51D9268F51DA220C
:10014800DECF7CF0DECF7DF0DECF7EF0DECF7FF03D
:100158008EC0D9FF8FC0DAFFDF50806F900E816F9D
:10016800000E826F910E836F000E846F920E856F62
:10017800000E866F930E876F000E886F7AEC03F07F
:1001880090C023FF91C024FF92C021FF93C022FF9B
:10019800000120EE05F08E51D9268F51DA22DF506A
:1001A8000F01256F000120EE06F08E51D9268F51E0
:1001B800DA22DF500F01266F000120EE07F08E5182
:1001C800D9268F51DA22DF500F01276F000120EE68
:1001D80008F08E51D9268F51DA22DF500F01286F8F
:1001E800000120EE09F08E51D9268F51DA22DF5016
:1001F8000F01296F000120EE0AF08E51D9268F5188
:10020800DA22DF500F012A6F000120EE0BF08E5129
:10021800D9268F51DA22DF500F012B6F000120EE13
:100228000CF08E51D9268F51DA22DF500F012C6F36
:10023800000120EE0DF08E51D9268F51DA22DF50C1
:100248000F012D6F20874FEF02F010B72EEF01F04E
:1002580030EF01F0BCEF01F0000120EE01F08E510B
:10026800D9268F51DA22DECF7CF0DECF7DF0DECFCB
:100278007EF0DECF7FF08EC0D9FF8FC0DAFFDF506F
:10028800806F900E816F000E826F910E836F000E4B
:10029800846F920E856F000E866F930E876F000E27
:1002A800886F7AEC03F090C013FF91C014FF92C0DE
:1002B80011FF93C012FF000120EE05F08E51D926E0
:1002C8008F51DA22DF500F01156F000120EE06F082
:1002D8008E51D9268F51DA22DF500F01166F000197
:1002E80020EE07F08E51D9268F51DA22DF500F0108
:1002F800176F000120EE08F08E51D9268F51DA22AF
:10030800DF500F01186F000120EE09F08E51D92639
:100318008F51DA22DF500F01196F000120EE0AF029
:100328008E51D9268F51DA22DF500F011A6F000142
:1003380020EE0BF08E51D9268F51DA22DF500F01B3
:100348001B6F000120EE0CF08E51D9268F51DA2256
:10035800DF500F011C6F000120EE0DF08E51D926E1
:100368008F51DA22DF500F011D6F108727EF01F040
:1003780000B7C1EF01F0C3EF01F04FEF02F0000149
:1003880020EE01F08E51D9268F51DA22DECF7CF093
:10039800DECF7DF0DECF7EF0DECF7FF08EC0D9FFDE
:1003A8008FC0DAFFDF50806F900E816F000E826F72
:1003B800910E836F000E846F920E856F000E866F0C
:1003C800930E876F000E886F7AEC03F090C003FFDE
:1003D80091C004FF92C001FF93C002FF000120EE0C
:1003E80005F08E51D9268F51DA22DF500F01056FA3
:1003F800000120EE06F08E51D9268F51DA22DF5007
:100408000F01066F000120EE07F08E51D9268F519B
:10041800DA22DF500F01076F000120EE08F08E513D
:10042800D9268F51DA22DF500F01086F000120EE24
:1004380009F08E51D9268F51DA22DF500F01096F4A
:10044800000120EE0AF08E51D9268F51DA22DF50B2
:100458000F010A6F000120EE0BF08E51D9268F5143
:10046800DA22DF500F010B6F000120EE0CF08E51E5
:10047800D9268F51DA22DF500F010C6F000120EED0
:100488000DF08E51D9268F51DA22DF500F010D6FF2
:10049800008727EF01F01200000E166E60AE57EFCE
:1004A80002F059EF02F0E5EF02F062A65EEF02F00B
:1004B80060EF02F07FEF02F014C0D9FF15C0DAFF39
:1004C800020EDF6E64CF01F061CF02F062CF03F05D
:1004D800635035EC04F020EE01F01450D926155085
:1004E800DA2201C0DEFF02C0DEFF03C0DEFF04C067
:1004F800DEFF98EF02F014C0D9FF15C0DAFF010E35
:10050800DF6E62CF01F061503BEC06F020EE01F0A7
:100518001450D9261550DA2201C0DEFF02C0DEFFD2
:1005280003C0DEFF04C0DEFF20EE05F01450D9261C
:100538001550DA2265CFDFFF20EE06F01450D926D9
:100548001550DA2266CFDFFF20EE07F01450D926C7
:100558001550DA2267CFDFFF20EE08F01450D926B5
:100568001550DA2268CFDFFF20EE09F01450D926A3
:100578001550DA2269CFDFFF20EE0AF01450D92691
:100588001550DA226ACFDFFF20EE0BF01450D9267F
:100598001550DA226BCFDFFF20EE0CF01450D9266D
:1005A8001550DA226CCFDFFF20EE0DF01450D9265B
:1005B8001550DA226DCFDFFF609E010E166E78EFC0
:1005C80003F00F0130AFEBEF02F0EDEF02F078EF40
:1005D80003F032A7F2EF02F0F4EF02F013EF03F0AA
:1005E80014C0D9FF15C0DAFF020EDF6E34CF01F058
:1005F80031CF02F032CF03F0335135EC04F020EE66
:1006080001F01450D9261550DA2201C0DEFF02C0CD
:10061800DEFF03C0DEFF04C0DEFF2CEF03F014C0D2
:10062800D9FF15C0DAFF010EDF6E32CF01F031516C
:100638003BEC06F020EE01F01450D9261550DA22D2
:1006480001C0DEFF02C0DEFF03C0DEFF04C0DEFF24
:1006580020EE05F01450D9261550DA2235CFDFFFE9
:1006680020EE06F01450D9261550DA2236CFDFFFD7
:1006780020EE07F01450D9261550DA2237CFDFFFC5
:1006880020EE08F01450D9261550DA2238CFDFFFB3
:1006980020EE09F01450D9261550DA2239CFDFFFA1
:1006A80020EE0AF01450D9261550DA223ACFDFFF8F
:1006B80020EE0BF01450D9261550DA223BCFDFFF7D
:1006C80020EE0CF01450D9261550DA223CCFDFFF6B
:1006D80020EE0DF01450D9261550DA223DCFDFFF59
:1006E8000F01309FE1EF02F016501200020E0001D8
:1006F8008019D8A482EF03F084EF03F007EF04F029
:1007080083C0D9FF84C0DAFF7CC0DFFF7CC089F0DA
:100718007DC08AF07EC08BF07FC08CF08AC089F0E3
:100728008BC08AF08CC08BF08C6B89C07CF08AC03F
:100738007DF08BC07EF08CC07FF081C0D9FF82C075
:10074800DAFF7CC0DFFF7CC089F07DC08AF07EC004
:100758008BF07FC08CF08AC089F08BC08AF08CC087
:100768008BF08C6B89C07CF08AC07DF08BC07EF0EA
:100778008CC07FF07C51030B8D6F7CC089F07DC0ED
:100788008AF07EC08BF07FC08CF0030ED89089373A
:100798008A378B378C37E82ECAEF03F089C07CF094
:1007A8008AC07DF08BC07EF08CC07FF07C51E00B5E
:1007B8008D258D6F8D51080F8D6F8D51EB0B87C077
:1007C800D9FF88C0DAFFDF6E7CC089F07DC08AF06F
:1007D8007EC08BF07FC08CF08AC089F08BC08AF015
:1007E8008CC08BF08C6B89C07CF08AC07DF08BC08C
:1007F8007EF08CC07FF085C0D9FF86C0DAFF7CC050
:10080800DFFF34EF04F081C0D9FF82C0DAFF000EA9
:10081800DF6E83C0D9FF84C0DAFF000EDF6E7CC0B4
:1008280089F07DC08AF07EC08BF07FC08CF0050E09
:10083800D89089378A378B378C37E82E1CEF04F02D
:1008480089C07CF08AC07DF08BC07EF08CC07FF0C0
:1008580087C0D9FF88C0DAFF7CC0DFFFE8EF03F06C
:100868001200096E000E106E000E116E000E126E50
:10087800000E136E0350030B0E6E0338E842070B8D
:100888000F6E0250056E066AD89005360636D89067
:1008980005360636D8900536063605C010F006C06F
:1008A80011F0000E11BEFF0E126E136E0F501024C1
:1008B800106E000E1120116E000E1220126E000E26
:1008C8001320136E10C005F011C006F012C007F017
:1008D80013C008F0020ED8900536063607360836DB
:1008E800E82E6FEF04F005C010F006C011F007C045
:1008F80012F008C013F00E501024106E000E1120D4
:10090800116E000E1220126E000E1320136E10C00E
:1009180006F011C007F012C008F0056A05C010F013
:1009280006C011F007C012F008C013F009501024D7
:10093800106E000E1120116E000E1220126E000EA5
:100948001320136E10C006F011C007F012C008F093
:10095800056A05C010F006C011F007C012F008C003
:1009680013F001501024106E000E1120116E000EAD
:100978001220126E000E1320136E10C00AF011C060
:100988000BF012C00CF013C00DF00AC001F00BC040
:1009980002F00CC003F00DC004F01200800E6F6E60
:1009A8006E50E00B800AD8A4DCEF04F0DEEF04F010
:1009B800D4EF04F0000E726E200E706E0E01FA690C
:1009C800FB69F869E30EF96FFE69FF69FC69E30EDC
:1009D800FD6F000EE26F000EE36F240EE06F600EF5
:1009E800E16F000EE66F000EE76F000EE46F000E79
:1009F800E56F000EEA6F000EEB6F000EE86F000E59
:100A0800E96F000EEE6F000EEF6F000EEC6F000E38
:100A1800ED6F000EF26F000EF36F000EF06F000E18
:100A2800F16F000EF66F000EF76F000EF46F000EF8
:100A3800F56F130E436FBF0E446F870E456FBA0EE6
:100A480000017C6F110E7D6FBDEC08F07790768009
:100A5800000E6F6E6ECF7EF0E00E00017E17D8A4F8
:100A680038EF05F03AEF05F02EEF05F0120045EFEC
:100A780005F0030E446E79EF05F045C044F079EFB8
:100A880005F03C5000017C6F7D6B7D51000AD8B4A5
:100A980050EF05F079EF05F07C51000AD8B43DEF2E
:100AA80005F0010AD8B441EF05F079EF05F0899017
:100AB8008982899489969AEF05F089908992899418
:100AC80089869AEF05F089908992898489969AEFA8
:100AD80005F089808992899489969AEF05F0899022
:100AE8008992899489969AEF05F044507C6F7D6BC2
:100AF8007D51000AD8B483EF05F09AEF05F07C51D8
:100B0800000AD8B45BEF05F0010AD8B467EF05F026
:100B1800030AD8B461EF05F0010AD8B46DEF05F007
:100B2800070AD8B473EF05F09AEF05F0000E436E8C
:100B38001200C4EF05F0000E3C6EBCEF05F0010E8C
:100B48003C6EBCEF05F02F50036E046A0450000A97
:100B5800D8B4B1EF05F0BCEF05F00350000AD8B4E3
:100B68009FEF05F0010AD8B4A3EF05F0BCEF05F03C
:100B78008EEC08F0000E386E000E376EECEF05F0C4
:100B88003FC003F040C004F041C005F042C006F089
:100B98000650000AD8B4E5EF05F0ECEF05F0045074
:100BA800000AD8B4DAEF05F0ECEF05F00350000ABC
:100BB800D8B4BCEF05F0110AD8B4A7EF05F0ECEFF4
:100BC80005F00550000AD8B4D3EF05F0ECEF05F0B6
:100BD800120035EC08F055EC08F0210E0001616FA9
:100BE800000E626F000E636F000E646F010E656F7A
:100BF8000E0E7C6F110E7D6FA9EC08F0000E00013F
:100C08007C6F110E7D6FA4EC08F0F20E00017C6F72
:100C1800100E7D6F9FEC08F0E40E00017C6F100E43
:100C28007D6F9AEC08F0B00E00017C6F0E0E7D6FA0
:100C380095EC08F09A0E00017C6F0D0E7D6FBDECEF
:100C480008F0F28EF28C77EC06F03BEC05F00DEC38
:100C580008F04350D8B433EF06F035EF06F02BEF29
:100C680006F03BEC05F02BEF06F08AEF00F0076E7C
:100C78000750056E066AD89005360636D8900536B0
:100C88000636D8900536063605C00CF006C00DF0BD
:100C9800000E0DBEFF0E0E6E0F6E01C005F0050EA4
:100CA800066ED8900532062E55EF06F005500C2436
:100CB8000C6E000E0D200D6E000E0E200E6E000E36
:100CC8000F200F6E0CC008F00DC009F00EC00AF01E
:100CD8000FC00BF008C001F009C002F00AC003F011
:100CE8000BC004F0120081A07CEF06F07EEF06F046
:100CF80082EF06F0030E456EA3EF06F081A287EFA0
:100D080006F089EF06F08DEF06F0000E456EA3EFB2
:100D180006F081A492EF06F094EF06F098EF06F043
:100D2800010E456EA3EF06F081A69DEF06F09FEF3A
:100D380006F0A3EF06F0020E456EA3EF06F01200D0
:100D4800F292F18CB80E00017C6F110E7D6FA9EC48
:100D580008F0F288F090F18AB60E00017C6F110E4F
:100D68007D6FA4EC08F0F086F092F188B40E0001D3
:100D78007C6F110E7D6F9FEC08F0F088F094F1867F
:100D8800B20E00017C6F110E7D6F9AEC08F0F08AAC
:100D980012006E0E146E000E156E50EC02F0000973
:100DA800D8B4D9EF06F0DBEF06F0F5EF06F06FC028
:100DB8003FF070C040F071C041F072C042F074C0A2
:100DC8002FF075C030F076C031F077C032F078C0BF
:100DD80033F079C034F07AC035F07BC036F09DEC42
:100DE80005F01200A40EF66E110EF76E000EF86EE6
:100DF80000EE3FF010EE07F00900F5CFEEFFE550EA
:100E0800E150FAE100EE60F01C0EEE6AE806FDE142
:100E180000EE2FF0100EEE6AE806FDE146904692CD
:100E2800000EF86E0001EDEF05F0080EB96E900E99
:100E3800A66E260EBA6E080E7B6E020E7C6E000E33
:100E480000017C6F000E7D6FB3EC08F0000E00010E
:100E58007C6F000E7D6FAEEC08F0000E00017C6F19
:100E6800000E7D6FB8EC08F0000E3E6E1200000E0A
:100E7800AA6E0B0ECF6EDC0ECE6E9E90CE50CFCFEC
:100E88007EF000017F6B7EC07FF07E6B7E111F6E4F
:100E98007F51206E9D80B00E7C6F110E7D6F95EC9A
:100EA80008F0310ECD6E1200374A382A3704381050
:100EB800D8B461EF07F063EF07F06DEF07F00A0EA3
:100EC80037183810D8A46BEF07F06DEF07F06FEF05
:100ED80007F0010E3D6E12001D501E10D8B477EFBA
:100EE80007F079EF07F086EF07F002D886EF07F0F2
:100EF8000500FA6E1D50FD6E1E50FE6EF850FF6E16
:100F0800FA501200120021502210D8B48EEF07F0C8
:100F180090EF07F09DEF07F002D89DEF07F005006E
:100F2800FA6E2150FD6E2250FE6EF850FF6EFA5098
:100F38001200120023502410D8B4A5EF07F0A7EF31
:100F480007F0B4EF07F002D8B4EF07F00500FA6E27
:100F58002350FD6E2450FE6EF850FF6EFA501200BA
:100F6800120025502610D8B4BCEF07F0BEEF07F0EA
:100F7800CBEF07F002D8CBEF07F00500FA6E25504B
:100F8800FD6E2650FE6EF850FF6EFA5012001200E9
:100F980027502810D8B4D3EF07F0D5EF07F0E2EFC9
:100FA80007F002D8E2EF07F00500FA6E2750FD6E51
:100FB8002850FE6EF850FF6EFA5012001200D59CB1
:100FC800E70ED76E950ED66ED650D7CF7CF00001BF
:100FD8007D6B7CC07DF07C6B7C111B6E7D511C6E23
:100FE800F294930ED56E1200000E896E000E8A6E72
:100FF800000E8B6EC00E926EBF0E936EBF0E946E77
:101008001F0E0F015D6F020E5C6F000E5B6FF18E9D
:1010180012003D50D8B413EF08F015EF08F01EEF9A
:1010280008F045C066F0600E00018E6F000E8F6FED
:101038008CEC00F0000E3D6E1200CDA426EF08F0F7
:1010480028EF08F030EF08F0CD900250CF6E01C0C5
:10105800CEFFCD8034EF08F00250CF6E01C0CEFF36
:101068001200D6EC08F0F8EC07F069EC08F03BEC5D
:1010780007F0A4EC06F0E3EC07F019EC07F0D2EC6B
:1010880004F0120002D853EF08F00500FA6E395048
:10109800FD6E3A50FE6EF850FF6EFA5012007790CF
:1010A8001200FD0E0E01F86FC00EF96F000EE06F12
:1010B800000EE16F12009E901FC001F020C002F0E8
:1010C80021EC08F070EC07F01200600ED36E000EF1
:1010D800D26E000E9B6E000E9A6E1200020E456EC6
:1010E800010E436E010E3D6E1200010E456E010E9B
:1010F800436E010E3D6E1200000E456E010E436EEA
:10110800010E3D6E1200030E456E010E436E010E78
:101118003D6E12001FC001F020C002F021EC08F063
:1011280012007CC01DF07DC01EF012007CC021F0B2
:101138007DC022F012007CC023F07DC024F0120094
:101148007CC025F07DC026F012007CC027F07DC051
:1011580028F012007CC02BF07DC02CF012007CC05F
:101168002DF07DC02EF012007CC029F07DC02AF041
:1011780012007CC039F07DC03AF01200F09487EC80
:1011880007F01200F0929EEC07F01200F090B5EC18
:1011980007F01200F292CCEC07F01200FF000000FA
:0311A8000104043B
:1011AC00D09E120012001200120012001200120047
:020000040020DA
:08000000FFFFFFFFFFFFFFFF00
:020000040030CA
:0E00000015027F7CFF8891FF0FC00FE00F40BC
:00000001FF
