:0400000082EF00F09B
:100008005982FACF05F0FBCF06F0F2AA0EEF00F006
:1000180010EF00F01BEF00F0F2A415EF00F017EF5F
:1000280000F01BEF00F0C5EC0DF07CEF00F0F2AC37
:1000380020EF00F022EF00F07CEF00F09DAC27EFFE
:1000480000F029EF00F034EF00F09EAC2EEF00F046
:1000580030EF00F034EF00F0DFEC0DF07CEF00F053
:10006800B6A439EF00F03BEF00F046EF00F0B7A47C
:1000780040EF00F042EF00F046EF00F0F7EC0DF033
:100088007CEF00F076AC4BEF00F04DEF00F058EF4E
:1000980000F077AC52EF00F054EF00F058EF00F0AA
:1000A800CEEC0EF07CEF00F0A3A45DEF00F05FEF64
:1000B80000F06AEF00F0A4A464EF00F066EF00F02F
:1000C8006AEF00F00EEC0EF07CEF00F09DA06FEFF1
:1000D80000F071EF00F07CEF00F09EA076EF00F0EA
:1000E80078EF00F07CEF00F038EC0DF07CEF00F0DA
:1000F80006C0FBFF05C0FAFF5992110063EF0EF02E
:10100000000A0D2062746E20442068696768000A37
:101010000D2062746E2047206869676800696E74ED
:10102000203D203000657874203D203000696E74CA
:10103000203D203100657874203D203100696E74B8
:10104000203D203200657874203D203200657874A0
:0F105000203D203300696E742033000A0D00002C
:10106000000E1C6E000E1D6E000E1E6E000E1F6E1A
:10107000000E1B6E0F0120B740EF08F042EF08F0A2
:10108000BEEF08F020EE01F01950D9261A50DA22EE
:10109000DECF07F0DECF08F0DECF09F0DECF0AF0BA
:1010A00019C0D9FF1AC0DAFFDF500B6E1C0E0C6E90
:1010B000000E0D6E1D0E0E6E000E0F6E1E0E106ECB
:1010C000000E116E1F0E126E000E136EBDEC0AF0B4
:1010D0001CC023FF1DC024FF1EC021FF1FC022FF14
:1010E00020EE05F01950D9261A50DA22DF500F01F0
:1010F000256F20EE06F01950D9261A50DA22DF505B
:10110000266F20EE07F01950D9261A50DA22DF5048
:10111000276F20EE08F01950D9261A50DA22DF5036
:10112000286F20EE09F01950D9261A50DA22DF5024
:10113000296F20EE0AF01950D9261A50DA22DF5012
:101140002A6F20EE0BF01950D9261A50DA22DF5000
:101150002B6F20EE0CF01950D9261A50DA22DF50EE
:101160002C6F20EE0DF01950D9261A50DA22DF50DC
:101170002D6F2087010E1B6EC0EF09F010B7C3EF73
:1011800008F0C5EF08F03FEF09F020EE01F019502C
:10119000D9261A50DA22DECF07F0DECF08F0DECFF4
:1011A00009F0DECF0AF019C0D9FF1AC0DAFFDF500C
:1011B0000B6E1C0E0C6E000E0D6E1D0E0E6E000ED4
:1011C0000F6E1E0E106E000E116E1F0E126E000EB0
:1011D000136EBDEC0AF01CC013FF1DC014FF1EC02F
:1011E00011FF1FC012FF20EE05F01950D9261A502A
:1011F000DA22DF500F01156F20EE06F01950D926C4
:101200001A50DA22DF50166F20EE07F01950D92657
:101210001A50DA22DF50176F20EE08F01950D92645
:101220001A50DA22DF50186F20EE09F01950D92633
:101230001A50DA22DF50196F20EE0AF01950D92621
:101240001A50DA22DF501A6F20EE0BF01950D9260F
:101250001A50DA22DF501B6F20EE0CF01950D926FD
:101260001A50DA22DF501C6F20EE0DF01950D926EB
:101270001A50DA22DF501D6F1087BAEF08F000B75E
:1012800044EF09F046EF09F0C0EF09F020EE01F05D
:101290001950D9261A50DA22DECF07F0DECF08F037
:1012A000DECF09F0DECF0AF019C0D9FF1AC0DAFF8D
:1012B000DF500B6E1C0E0C6E000E0D6E1D0E0E6EB2
:1012C000000E0F6E1E0E106E000E116E1F0E126EAF
:1012D000000E136EBDEC0AF01CC003FF1DC004FF1E
:1012E0001EC001FF1FC002FF20EE05F01950D926D5
:1012F0001A50DA22DF500F01056F20EE06F0195068
:10130000D9261A50DA22DF50066F20EE07F0195066
:10131000D9261A50DA22DF50076F20EE08F0195054
:10132000D9261A50DA22DF50086F20EE09F0195042
:10133000D9261A50DA22DF50096F20EE0AF0195030
:10134000D9261A50DA22DF500A6F20EE0BF019501E
:10135000D9261A50DA22DF500B6F20EE0CF019500C
:10136000D9261A50DA22DF500C6F20EE0DF01950FA
:10137000D9261A50DA22DF500D6F0087BAEF08F035
:101380001B501200000E56EC0DF007C02CF008C0E8
:101390002DF0030E56EC0DF007C02AF008C02BF01C
:1013A000100E2D5CD8A0D7EF09F0D9EF09F0DFEFD0
:1013B00009F0000E2D6E000E2C6E000E316E100E18
:1013C0002B5CD8A0E6EF09F0E8EF09F0EEEF09F0AA
:1013D000000E2B6E000E2A6E000E326E2C28030EAD
:1013E0002D58D8B0F6EF09F0F8EF09F000EF0AF049
:1013F000250E206E100E216E76EC0EF0000E316E72
:10140000040E2D5CD8A007EF0AF009EF0AF01CEFDC
:101410000AF0FE0E2C5C070E2D58D8B012EF0AF021
:1014200014EF0AF01CEF0AF0350E206E100E216E3C
:1014300076EC0EF0010E316E2C28070E2D58D8A038
:1014400024EF0AF026EF0AF039EF0AF0FD0E2C5CCB
:101450000B0E2D58D8B02FEF0AF031EF0AF039EF0C
:101460000AF0450E206E100E216E76EC0EF0020E84
:10147000316EFE0E2C5C0B0E2D58D8A042EF0AF0F8
:1014800044EF0AF04CEF0AF04D0E206E100E216E64
:1014900076EC0EF0030E316E5B0E206E100E216E98
:1014A00076EC0EF02A28030E2B58D8B05AEF0AF02B
:1014B0005CEF0AF064EF0AF01D0E206E100E216E34
:1014C00076EC0EF0000E326E040E2B5CD8A06BEFA3
:1014D0000AF06DEF0AF080EF0AF0FE0E2A5C070EAC
:1014E0002B58D8B076EF0AF078EF0AF080EF0AF0C8
:1014F0002D0E206E100E216E76EC0EF0010E326E67
:101500002A28070E2B58D8A088EF0AF08AEF0AF095
:101510009DEF0AF0FD0E2A5C0B0E2B58D8B093EF0E
:101520000AF095EF0AF09DEF0AF03D0E206E100EC6
:10153000216E76EC0EF0020E326EFE0E2A5C0B0E61
:101540002B58D8A0A6EF0AF0A8EF0AF0B0EF0AF0E7
:10155000550E206E100E216E76EC0EF0030E326EDC
:101560005B0E206E100E216E76EC0EF05B0E206E80
:10157000100E216E76EC0EF01200020E0B18D8A49D
:10158000C4EF0AF0C6EF0AF049EF0BF00EC0D9FF26
:101590000FC0DAFF07C0DFFF07C014F008C015F066
:1015A00009C016F00AC017F015C014F016C015F0E7
:1015B00017C016F0176A14C007F015C008F016C05F
:1015C00009F017C00AF00CC0D9FF0DC0DAFF07C040
:1015D000DFFF07C014F008C015F009C016F00AC0FC
:1015E00017F015C014F016C015F017C016F0176AE2
:1015F00014C007F015C008F016C009F017C00AF0B3
:101600000750030B186E07C014F008C015F009C08E
:1016100016F00AC017F0030ED89014361536163699
:101620001736E82E0CEF0BF014C007F015C008F0C9
:1016300016C009F017C00AF00750E00B1824186E06
:101640001850080F186E1850EB0B12C0D9FF13C0BA
:10165000DAFFDF6E07C014F008C015F009C016F0FD
:101660000AC017F015C014F016C015F017C016F018
:10167000176A14C007F015C008F016C009F017C0AB
:101680000AF010C0D9FF11C0DAFF07C0DFFF76EF04
:101690000BF00CC0D9FF0DC0DAFF000EDF6E0EC0DC
:1016A000D9FF0FC0DAFF000EDF6E07C014F008C0CC
:1016B00015F009C016F00AC017F0050ED8901436C0
:1016C000153616361736E82E5EEF0BF014C007F00D
:1016D00015C008F016C009F017C00AF012C0D9FFF3
:1016E00013C0DAFF07C0DFFF2AEF0BF01200800EF5
:1016F0006F6E6E50E00B800AD8A481EF0BF083EF81
:101700000BF079EF0BF0000E726E200E706E000E73
:101710000E01FA6F000EFB6F000EF86F000EF96FEE
:10172000000EFE6F000EFF6F000EFC6F000EFD6FCF
:10173000000EE26F000EE36F000EE06F000EE16F2F
:10174000000EE66F000EE76F000EE46F000EE56F0F
:10175000000EEA6F000EEB6F000EE86F000EE96FEF
:10176000000EEE6F000EEF6F000EEC6F000EED6FCF
:10177000000EF26F000EF36F000EF06F000EF16FAF
:10178000000EF66F000EF76F000EF46F000EF56F8F
:10179000310E436FA80E446F010E456F640E076E45
:1017A0001E0E086E1AEC0FF0779C768C000E6F6E92
:1017B0006ECF09F0E00E0916D8A4E1EF0BF0E3EFCD
:1017C0000BF0D8EF0BF012000B500C10D8B4EBEF6D
:1017D0000BF0EDEF0BF0F6EF0BF00B500C10D8A464
:1017E000F4EF0BF0F6EF0BF0FBEF0BF00950FCEC15
:1017F0000EF02EEF0CF020EE09F00B50D9260C5015
:10180000DA22DE50DE10D8B408EF0CF00AEF0CF04C
:1018100025EF0CF020EE09F00B50D9260C50DA22FF
:1018200010EE03F00B50E1260C50E222DE50E65C95
:10183000E650800A116EDE50800A1158D8B023EFAE
:101840000CF025EF0CF02EEF0CF020EE03F00B5017
:10185000D9260C50DA22DE2A000EDD22120014C036
:10186000D9FF15C0DAFFDECFF6FFDDCFF7FF0800A6
:10187000F550250AD8A43FEF0CF041EF0CF059EFDA
:101880000CF014C0D9FF15C0DAFFDE2A000EDD22ED
:10189000000E256E000E246E24C030F026682768E6
:1018A00014C0D9FF15C0DAFFDE2A000EDD226DEF6D
:1018B0000CF014C0D9FF15C0DAFFDECFF6FFDDCF84
:1018C000F7FF0800F550096E0A6A12C00BF013C04A
:1018D0000CF0E4EC0BF050EF0CF012003504D8A43F
:1018E00074EF0CF076EF0CF082EF0CF00F0E206E20
:1018F000100E216E76EC0EF05B0E206E100E216E37
:1019000076EC0EF0510E396E000E3A6E000E3B6E04
:10191000000E3C6E010E3D6E35C03EF0380E196E65
:10192000000E1A6E30EC08F00009D8B49AEF0CF0F3
:101930009CEF0CF08EEF0CF012003604D8A4A3EF4D
:101940000CF0A5EF0CF0B1EF0CF0010E206E100EB4
:10195000216E76EC0EF05B0E206E100E216E76EC92
:101960000EF0520E396E000E3A6E000E3B6E000EF7
:101970003C6E010E3D6E36C03EF0380E196E000E04
:101980001A6E30EC08F00009D8B4C9EF0CF0CBEFB8
:101990000CF0BDEF0CF012001AC01EF01BC01FF0BF
:1019A000E0EF0CF018C012F019C013F01E0E146E08
:1019B000000E156E1CC016F01DC017F02FEC0CF0B9
:1019C0001EC0F6FF1FC0F7FF0800F5500009D8A49D
:1019D000ECEF0CF0EEEF0CF0D2EF0CF0000E196E05
:1019E000000E186E120025EC0EF0F28EF28CD00E66
:1019F000076E1D0E086E01EC0FF029BE09EF0DF009
:101A0000295009E10A0E285CD8A009EF0DF00BEF70
:101A10000DF0FDEF0CF0C2EC09F08FEC0DF0AAEC2C
:101A20000DF09DEC0CF06EEC0CF0FDEF0CF082EF85
:101A300000F0080EA76E900EAB6E240EAC6E080E72
:101A4000AF6E020E7D6E000E076E000E086E10EC7B
:101A50000FF0000E076E000E086E0BEC0FF0000E7C
:101A6000076E000E086E15EC0FF0000E376E1200B8
:101A70009E904CC001F04DC002F04FEC0EF04A5069
:101A80004B10D8B446EF0DF048EF0DF055EF0DF0C8
:101A900002D855EF0DF00500FA6E4A50FD6E4B501E
:101AA000FE6EF850FF6EFA50120012000B6E0BC063
:101AB00009F009460946C2500918830B0918C26E7D
:101AC000C280C282C2B267EF0DF069EF0DF062EF23
:101AD0000DF0C4500A6E096AC3500924076E000E47
:101AE0000A20086E1200000EAA6E0B0ECF6EDC0EDE
:101AF000CE6E9E90CE50CFCF09F00A6A09C00AF090
:101B0000096A09104C6E0A504D6E9D80600E076E7A
:101B10001E0E086E01EC0FF0310ECD6E1200530E4A
:101B2000396E000E3A6E000E3B6E000E3C6E010EDA
:101B30003D6E32C03EF0380E196E000E1A6E30EC5B
:101B400008F00009D8B4A7EF0DF0A9EF0DF09BEF56
:101B50000DF01200540E396E000E3A6E000E3B6E00
:101B6000000E3C6E010E3D6E31C03EF0380E196E17
:101B7000000E1A6E30EC08F00009D8B4C2EF0DF078
:101B8000C4EF0DF0B6EF0DF01200F29458C0D6FF7E
:101B900056505710D8B4CFEF0DF0D1EF0DF0DEEF67
:101BA0000DF002D8DEEF0DF00500FA6E5650FD6E16
:101BB0005750FE6EF850FF6EFA50120012009E9CB5
:101BC0004E504F10D8B4E7EF0DF0E9EF0DF0F6EFFF
:101BD0000DF002D8F6EF0DF00500FA6E4E50FD6ED6
:101BE0004F50FE6EF850FF6EFA5012001200B7947C
:101BF00048CF03F049CF04F003C001F004C002F065
:101C000002D80DEF0EF00500FA6E4650FD6E4750FB
:101C1000FE6EF850FF6EFA5012001200A49451CFDD
:101C200003F052CF04F003C001F004C002F002D868
:101C300024EF0EF00500FA6E4850FD6E4950FE6E1E
:101C4000F850FF6EFA50120012002EEC0FF03AEC32
:101C50000EF0F3EC0EF0BDEC0EF0ACEC0EF089ECF7
:101C60000EF073EC0DF09BEC0EF019EC0DF077EC30
:101C70000BF01200000E896E000E8A6E000E8B6E45
:101C8000CF0E926EFB0E936EBF0E946E1F0E0F0161
:101C90005D6F030E5C6F000E5B6FF18E1200CDA4C2
:101CA00054EF0EF056EF0EF05EEF0EF0CD900250B6
:101CB000CF6E01C0CEFFCD8062EF0EF00250CF6E2E
:101CC00001C0CEFF120000EE60F0200EEE6AE806C2
:101CD000FDE100EE24F0220EEE6AE806FDE15990E7
:101CE0005992000EF86E0001F3EF0CF0220E226EF6
:101CF000000E236E000E186E000E196E20C01AF032
:101D000021C01BF0220E1C6E000E1D6ECCEC0CF0E0
:101D10001200010EC26E000EC16E800EC06E000E6B
:101D2000C46E000EC36E9D8C6A0E076E1E0E086E8A
:101D300029EC0FF01200000ED76ED90ED66ED90E18
:101D4000586EF294F28A620E076E1E0E086E06EC52
:101D50000FF0F70ED56E1200050E0F01476F000E43
:101D6000486F000E496F660E076E1E0E086E1FEC60
:101D70000FF09998B794B6841200050E0F01506FBA
:101D8000000E516F000E526F680E076E1E0E086E29
:101D900024EC0FF09992A494A384120002D8DBEFF4
:101DA0000EF00500FA6E2E50FD6E2F50FE6EF850AC
:101DB000FF6EFA501200779C1200076E9EA8E3EFA8
:101DC0000EF0E5EF0EF0DEEF0EF007C0ADFF1200F3
:101DD000000E81BA010E356E000E81BE010E366E08
:101DE000284A292A1200600ED36E000ED26E000E11
:101DF0009B6E000E9A6E1200086E0850DDEC0EF01D
:101E0000120007C04AF008C04BF0120007C056F09D
:101E100008C057F0120007C052F008C053F012007B
:101E200007C054F008C055F0120007C050F008C0B9
:101E300051F0120007C02EF008C02FF0120007C0AA
:101E400046F008C047F0120007C048F008C049F04B
:101E5000120007C04EF008C04FF01200D09E1200D2
:0C1E60001200120012001200120012000A
:020000040020DA
:08000000FFFFFFFFFFFFFFFF00
:020000040030CA
:0E00000015027F7CFF8991FF0FC00FE00F40BB
:00000001FF
