:020000040000FA
:040000005EEF00F0BF
:100008005A82FACF03F0FBCF04F0F2AA0EEF00F009
:1000180010EF00F01BEF00F0F2A415EF00F017EF5F
:1000280000F01BEF00F0E3EC12F058EF00F0F2AC38
:1000380020EF00F022EF00F058EF00F0A0A227EF29
:1000480000F029EF00F034EF00F0A1A22EEF00F04D
:1000580030EF00F034EF00F01FEC12F058EF00F032
:100068009DA239EF00F03BEF00F046EF00F09EA2B2
:1000780040EF00F042EF00F046EF00F05EEC13F0C6
:1000880058EF00F09DA04BEF00F04DEF00F058EF57
:1000980000F09EA052EF00F054EF00F058EF00F08F
:1000A8003CEC12F058EF00F004C0FBFF03C0FAFF6D
:0800B8005A92110087EF11F0CC
:100F000000202020202020504F534954494F4E5359
:100F100020202020200058203D25303458207361A7
:100F200076653A253034580059203D253034582014
:100F3000736176653A25303458005A203D253034A7
:0D0F40005820736176653A25303458000062
:100F4E0047C0D9FF48C0DAFFDECFF6FFDDCFF7FF8F
:100F5E000800F550250AD8A4B7EF07F0B9EF07F04F
:100F6E0042EF09F047C0D9FF48C0DAFFDE2A000E73
:100F7E00DD22000E00019A6F000E996F99C055F098
:100F8E009AC056F09B699C69000EEB6F000EEA6FDB
:100F9E0017EF08F0558047C0D9FF48C0DAFFDE2AA8
:100FAE00000EDD2217EF08F05582D2EF07F05584C0
:100FBE00D2EF07F05586D2EF07F05588D2EF07F043
:100FCE00000EEB6F010EEA6F17EF08F047C0D9FF66
:100FDE0048C0DAFFDECFF6FFDDCFF7FF0800F55091
:100FEE004B6E4C6A4C50000AD8B400EF08F0E7EF95
:100FFE0007F04B50200AD8B4E1EF07F0030AD8B43B
:10100E00E4EF07F0080AD8B4DEEF07F0060AD8B40A
:10101E00D1EF07F01D0AD8B4DBEF07F0E7EF07F0CA
:10102E00EA51EB11D8B41EEF08F020EF08F0EDEF07
:10103E0007F055A025EF08F027EF08F028EF08F08D
:10104E00559247C0D9FF48C0DAFFDECFF6FFDDCF9D
:10105E00F7FF0800F5502A0AD8A438EF08F03AEF47
:10106E0008F063EF08F047C0D9FF48C0DAFFDE2A68
:10107E00000EDD2249C0D9FF4AC0DAFFDFCF4BF0A8
:10108E00020EDE26DFCF4CF0000EDD224BC0D9FF64
:10109E004CC0DAFFDECF99F0DDCF9AF09ABF5CEF4D
:1010AE0008F05AEF08F099EF08F05580996D9A1FE5
:1010BE00D8B09A2B99EF08F047C0D9FF48C0DAFF95
:1010CE00DECF0CF0DDCF0DF057EC0DF00CC099F02B
:1010DE000DC09AF07AEF08F047C0D9FF48C0DAFF8A
:1010EE00DE2A000EDD22D00E4B6EFF0E4C6E47C078
:1010FE00D9FF48C0DAFFDECFF6FFDDCFF7FF0800DD
:10110E00F5504D6E4E6A4B504D264C504E224E5061
:10111E0009E10A0E4D5CD8A097EF08F099EF08F0A0
:10112E0073EF08F047C0D9FF48C0DAFFDECFF6FFF5
:10113E00DDCFF7FF0800F550780AD8B4A9EF08F014
:10114E00ABEF08F0BDEF08F047C0D9FF48C0DAFF9B
:10115E00DECFF6FFDDCFF7FF0800F550580AD8A412
:10116E00BBEF08F0BDEF08F00CEF09F047C0D9FF58
:10117E0048C0DAFFDECFF6FFDDCFF7FF0800F5CF70
:10118E00E9F047C0D9FF48C0DAFFDE2A000EDD22A3
:10119E0049C0D9FF4AC0DAFFDFCF4BF0020EDE2680
:1011AE00DFCF4CF0000EDD224BC0D9FF4CC0DAFF72
:1011BE00DECF4DF0DDCF4EF04DC0E1F04EC0E2F08F
:1011CE000001E36BE46BE56BE66BE76BE86B45C028
:1011DE0022F046C023F0E1C024F0E2C025F0E3C0C7
:1011EE0026F0E4C027F0E5C028F0E6C029F0E7C0FD
:1011FE002AF0E8C02BF0E9C02CF05EEC09F022C01A
:10120E0045F023C046F05DEF09F047C0D9FF48C056
:10121E00DAFFDECFF6FFDDCFF7FF0800F550250A27
:10122E00D8A41CEF09F01EEF09F035EF09F047C006
:10123E00D9FF48C0DAFFDE2A000EDD22000E086E4E
:10124E00250E076E45C009F046C00AF060EC10F09E
:10125E00000E466E010E456E5DEF09F047C0D9FFD8
:10126E0048C0DAFFDE2A000EDD22000E466E000EAA
:10127E00456E5DEF09F047C0D9FF48C0DAFFDECFFB
:10128E00F6FFDDCFF7FF0800F550076E086A45C080
:10129E0009F046C00AF060EC10F047C0D9FF48C014
:1012AE00DAFFDE2A000EDD222FEF09F01200000118
:1012BE009CBF64EF09F066EF09F067EF09F05592F5
:1012CE009CBF74EF09F09C5106E19B05D8B072EFFC
:1012DE0009F074EF09F07AEF09F0000E366E010E88
:1012EE00356E7EEF09F09BC035F09CC036F099C08C
:1012FE0037F09AC038F055A887EF09F089EF09F05A
:10130E008DEF09F0FE0E3726FF0E382224C039F07D
:10131E0025C03AF026C03BF027C03CF028C03DF077
:10132E0029C03EF02AC03FF02BC040F0000E426EA6
:10133E001F0E416E000ECD6F3EEF0AF04106D8A093
:10134E0042060F0E3914436E446A44BEB8EF09F0DC
:10135E00445009E10A0E435CD8A0B8EF09F0BAEF89
:10136E0009F0C2EF09F0570E4324436E000E4420DD
:10137E00446EC8EF09F0300E4324436E000E442035
:10138E00446EBF0E2D6EFF0E2E6E2C502F6E306AD9
:10139E002D502F262E503022305007E11A0E2F5C82
:1013AE00D8B0DCEF09F0DEEF09F001EF0AF09F0E86
:1013BE002D6EFF0E2E6E200E43102F6E000E44105B
:1013CE00306E2D502F262E503022305007E11A0E3F
:1013DE002F5CD8B0F5EF09F0F7EF09F001EF0AF046
:1013EE0043C00BF044C00CF043EC11F00BC043F0C3
:1013FE000CC044F0AE0E4124D96E000E4220DA6EBF
:10140E0043C0DFFF3506D8A036063706D8A038060B
:10141E0039C02DF03AC02EF03BC02FF03CC030F05A
:10142E003DC031F03EC032F03FC033F040C034F02A
:10143E00050E2BEF0AF0D89034323332323231327D
:10144E0030322F322E322D32E82E22EF0AF02DC0FE
:10145E0039F02EC03AF02FC03BF030C03CF031C016
:10146E003DF032C03EF033C03FF034C040F042BEDB
:10147E004AEF0AF0425009E1020E415CD8A04AEF51
:10148E000AF04CEF0AF07CEF0AF039503A103B109C
:10149E003C103D103E103F104010D8A459EF0AF0FA
:1014AE005BEF0AF0A5EF09F036BE68EF0AF0365092
:1014BE0006E13504D8B066EF0AF068EF0AF0A5EF42
:1014CE0009F038BE73EF0AF0385008E13704D8A09F
:1014DE0073EF0AF075EF0AF07CEF0AF055B27AEF6F
:1014EE000AF07CEF0AF0A5EF09F055A881EF0AF09B
:1014FE0083EF0AF099EF0AF04106D8A04206AE0E2D
:10150E004124D96E000E4220DA6E2CC0DFFF410658
:10151E00D8A04206AE0E4124D96E000E4220DA6EDD
:10152E00300EDF6E22C017F023C018F0AE0E41242D
:10153E00196E000E42201A6E37C01BF038C01CF018
:10154E00B3EC0FF017C022F018C023F01200050EF6
:10155E000001F919D8B4B6EF0AF0B8EF0AF03FEF70
:10156E000BF01AEF0BF08AB2BFEF0AF0C2EF0AF0DF
:10157E00010EC3EF0AF0000EFF0A016E01468A50FB
:10158E000118FD0B01188A6E8A843FEF0BF08AB4A6
:10159E00D3EF0AF0D6EF0AF0010ED7EF0AF0000EE5
:1015AE00FF0A016E014601468A500118FB0B011815
:1015BE008A6E8A823FEF0BF05750D8B4E9EF0AF0EB
:1015CE00EBEF0AF0FEEF0AF08AB2F0EF0AF0F3EF5B
:1015DE000AF0010EF4EF0AF0000EFF0A016E01464A
:1015EE008A500118FD0B01188A6E9D4B9E2B020E20
:1015FE009D199E11D8A406EF0BF008EF0BF03FEFEC
:10160E000BF0000E576E000EF66F000E9E6F000E62
:10161E009D6F3FEF0BF08A828A943FEF0BF08A9218
:10162E008A943FEF0BF0F951016E026A0250000AE4
:10163E00D8B424EF0BF03FEF0BF00150000AD8B4F2
:10164E00BAEF0AF0010AD8B4CEEF0AF0030AD8B402
:10165E00E3EF0AF0010AD8B416EF0BF0070AD8B47C
:10166E0012EF0BF0010AD8B43FEF0BF03FEF0BF087
:10167E00030EF819D8B446EF0BF048EF0BF0BEEF9F
:10168E000BF0A5EF0BF0F551D8A450EF0BF052EF85
:10169E000BF057EF0BF08A828A948A9A010EF56F3F
:1016AE008AB25CEF0BF05FEF0BF0010E60EF0BF008
:1016BE00000EFF0A016E01468A500118FD0B01183B
:1016CE008A6E8AB46DEF0BF070EF0BF0010E71EFB6
:1016DE000BF0000EFF0A016E014601468A500118FA
:1016EE00FB0B01188A6EBEEF0BF08AB281EF0BF086
:1016FE0084EF0BF0010E85EF0BF0000EFF0A016E6A
:10170E0001468A500118FD0B01188A6E8A84BEEFBD
:10171E000BF08AB495EF0BF098EF0BF0010E99EFEA
:10172E000BF0000EFF0A016E014601468A500118A9
:10173E00FB0B01188A6E8A82BEEF0BF0F851016E18
:10174E00026A0250000AD8B4AFEF0BF0BEEF0BF0F6
:10175E000150000AD8B47CEF0BF0010AD8B490EF18
:10176E000BF0030AD8B44AEF0BF0BEEF0BF01200E9
:10177E007BEF0CF0020EF56F13EC14F000017F29D5
:10178E0009E1030E801981118211D8A4D1EF0BF05B
:10179E00D3EF0BF095EF0CF08ABFE0EF0BF08A5110
:1017AE00891109E1020E885DD8A0E0EF0BF0E2EF9F
:1017BE000BF095EF0CF08ABFF3EF0BF08A51891105
:1017CE0009E1110E875D020E8859D8B0F1EF0BF0CA
:1017DE00F3EF0BF095EF0CF086BF00EF0CF0865197
:1017EE00851109E1020E845DD8A000EF0CF002EF26
:1017FE000CF095EF0CF086BF13EF0CF086518511AF
:10180E0009E1110E835D020E8459D8B011EF0CF070
:10181E0013EF0CF095EF0CF0020EF86F95EF0CF045
:10182E00020EF56F95EF0CF0020EF519D8A422EF0B
:10183E000CF024EF0CF027EF0CF08A8A000EF56FF7
:10184E0013EC14F000017F2909E1030E80198111B8
:10185E008211D8A435EF0CF037EF0CF095EF0CF0A9
:10186E008ABF44EF0CF08A51891109E1020E885D9E
:10187E00D8A044EF0CF046EF0CF095EF0CF08ABFB9
:10188E0057EF0CF08A51891109E1110E875D020E96
:10189E008859D8B055EF0CF057EF0CF095EF0CF0CF
:1018AE0086BF64EF0CF08651851109E1020E845D4E
:1018BE00D8A064EF0CF066EF0CF095EF0CF086BF3D
:1018CE0077EF0CF08651851109E1110E835D020E42
:1018DE008459D8B075EF0CF077EF0CF095EF0CF053
:1018EE00000EF86F95EF0CF00001F851536E546A2C
:1018FE005450000AD8B486EF0CF095EF0CF053500C
:10190E00000AD8B4C1EF0BF0010AD8B417EF0CF0EF
:10191E00030AD8B41BEF0CF095EF0CF01200AB8855
:10192E009EAA9CEF0CF09EEF0CF0A5EF0CF075EC60
:10193E0013F0066E065000019F6FA06B7E0E000125
:10194E009F19A011D8A4AEEF0CF0B0EF0CF055EF2C
:10195E000DF0000EA26F000EA16F600EA125D96EC4
:10196E00000EA221DA6E75EC13F0DF6E0001A14BB2
:10197E00A22BA2BFCCEF0CF0A25109E1130EA15D78
:10198E00D8A0CCEF0CF0CEEF0CF0B4EF0CF06C5105
:10199E00076E066A06C093F007C094F0000E94BF5F
:1019AE00FF0E956F966F6E51076E066A06C08FF02A
:1019BE0007C090F0000E90BFFF0E916F926F7051A6
:1019CE00076E066A06C08BF007C08CF0000E8CBF47
:1019DE00FF0E8D6F8E6F81A6F7EF0CF0F9EF0CF006
:1019EE0027EF0DF0F951D8A4FFEF0CF001EF0DF039
:1019FE0027EF0DF06D5193257B6F000E94217C6FB8
:101A0E00000E95217D6F000E96217E6F6F518F25F2
:101A1E00776F000E9021786F000E9121796F000E76
:101A2E0092217A6F71518B25736F000E8C21746F1A
:101A3E00000E8D21756F000E8E21766F4BEF0DF01F
:101A4E006D519325876F000E9421886F000E95219E
:101A5E00896F000E96218A6F6F518F25836F000E4E
:101A6E009021846F000E9121856F000E9221866F5A
:101A7E0071518B257F6F000E8C21806F000E8D2192
:101A8E00816F000E8E21826F000EA06F000E9F6F71
:101A9E00000E94EC14F0000E56EF0DF0010E120035
:101AAE00000E156E000E146E000E136E000E126EEA
:101ABE0063EF0DF00C4A0D2A0CC0F6FF0DC0F7FFB8
:101ACE000800F550200AD8B46FEF0DF071EF0DF04D
:101ADE0061EF0DF0F70E0E6EFF0E0F6E0CC0F6FFDF
:101AEE000DC0F7FF0800F550106E116A0E5010264B
:101AFE000F501122115009E1050E105CD8A08AEF8B
:101B0E000DF08CEF0DF061EF0DF096EF0DF0000E75
:101B1E00136E010E126E0C4A0D2ACBEF0DF00CC097
:101B2E00F6FF0DC0F7FF0800F5500E6E0F6A0F504E
:101B3E00000AD8B4A5EF0DF0CBEF0DF00E502B0A26
:101B4E00D8B492EF0DF0060AD8B48EEF0DF0CBEFAD
:101B5E000DF014C005F015C006F0000E086E0A0E4A
:101B6E00076EEFEC13F00CC0F6FF0DC0F7FF080088
:101B7E00F550055E000E065A300E0524146E000E4A
:101B8E000620156E92EF0DF0D00E0E6EFF0E0F6E3C
:101B9E000CC0F6FF0DC0F7FF0800F550106E116A6D
:101BAE000E5010260F501122115009E10A0E105C32
:101BBE00D8A0E4EF0DF0E6EF0DF0B0EF0DF01250FF
:101BCE001310D8A4EDEF0DF0EFEF0DF0FDEF0DF0CB
:101BDE0014C00EF015C00FF00E1E0F1E0E4A0F2A67
:101BEE000EC00CF00FC00DF001EF0EF014C00CF093
:101BFE0015C00DF01200000E0C6E000E0B6E8AB2A8
:101C0E000BEF0EF00EEF0EF0010E0FEF0EF0000EBA
:101C1E00FF0A056E05468A500518FD0B05188A6EDB
:101C2E00040E066E2C0E056EAC0EE82EFED7052E9B
:101C3E00FCD7062EFAD70B4A0C2A0CBE30EF0EF04C
:101C4E000C5009E1020E0B5CD8A030EF0EF032EF13
:101C5E000EF006EF0EF0000E0E6E000E0D6E8AB434
:101C6E003BEF0EF03EEF0EF0010E3FEF0EF0000ECA
:101C7E00FF0A056E054605468A500518FB0B05182A
:101C8E008A6E040E066E2C0E056EAC0EE82EFED776
:101C9E00052EFCD7062EFAD70D4A0E2A0EBE61EF80
:101CAE000EF00E5009E1020E0D5CD8A061EF0EF0A1
:101CBE0063EF0EF036EF0EF00001E051D8A46AEF9C
:101CCE000EF06CEF0EF072EF0EF0000E086E060EB8
:101CDE00076E76EF0EF0000E086E0C0E076E000EFD
:101CEE000A6E000E096E9BEF0EF08ABA81EF0EF0AF
:101CFE0084EF0EF0010E85EF0EF0000EFF0A056E5A
:101D0E00053A05468A500518DF0B05188A6E040E33
:101D1E00066E2C0E056EAC0EE82EFED7052EFCD7E9
:101D2E00062EFAD7094A0A2A0750095C0A50800A79
:101D3E00056E0850800A0558D8A0A8EF0EF0AAEF3D
:101D4E000EF07CEF0EF012000B6E18EF0FF0510E2E
:101D5E0060EC14F049EF0FF0530E60EC14F00750E6
:101D6E004CEC14F049EF0FF0410E60EC14F049EF1B
:101D7E000FF0420E60EC14F049EF0FF0450E60ECE0
:101D8E0014F0E1EF0EF008504CEC14F049EF0FF0A8
:101D9E000850400F4CEC14F049EF0FF00850140FA0
:101DAE004CEC14F049EF0FF00850540F4CEC14F0BB
:101DBE0049EF0FF00750096E0A6A0A50000AD8B4AC
:101DCE00EBEF0EF049EF0FF00950000AD8B4CAEF4E
:101DDE000EF0010AD8B4CFEF0EF0030AD8B4D5EF47
:101DEE000EF0010AD8B4DBEF0EF049EF0FF0460EFD
:101DFE0060EC14F049EF0FF04B0E60EC14F049EF6D
:101E0E000FF04C0E60EC14F049EF0FF0410E60EC49
:101E1E0014F0510E60EC14F0460E60EC14F049EF25
:101E2E000FF00B50096E0A6A0A50000AD8B422EF5E
:101E3E000FF049EF0FF00950000AD8B4AEEF0EF0D4
:101E4E00010AD8B4C5EF0EF0030AD8B4FEEF0EF0B7
:101E5E00010AD8B4B3EF0EF0070AD8B4BBEF0EF0F8
:101E6E00010AD8B4C0EF0EF0030AD8B403EF0FF096
:101E7E00010AD8B408EF0FF00F0AD8B40DEF0FF027
:101E8E0049EF0FF01200000E076E000E086E020EE4
:101E9E00ABEC0EF0010E0101006F0F0E016FB3ECF3
:101EAE0013F0010E076E000E086E010EABEC0EF075
:101EBE00160E0101006F0F0E016F7BC002F17CC088
:101ECE0003F17DC004F17EC005F187C006F188C024
:101EDE0007F189C008F18AC009F1B3EC13F0020EC4
:101EEE00076E000E086E010EABEC0EF0280E01010F
:101EFE00006F0F0E016F77C002F178C003F179C049
:101F0E0004F17AC005F183C006F184C007F185C0E3
:101F1E0008F186C009F1B3EC13F0030E076E000E44
:101F2E00086E010EABEC0EF03A0E0101006F0F0EB3
:101F3E00016F73C002F174C003F175C004F176C075
:101F4E0005F17FC006F180C007F181C008F182C0A3
:101F5E0009F1B3EC13F0120055A0B8EF0FF0BAEF81
:101F6E000FF0C4EF0FF019C010F01AC011F017C027
:101F7E0012F018C013F065EC11F01CBEC9EF0FF093
:101F8E00CBEF0FF0D1EF0FF01BC020F01CC021F0F3
:101F9E00D5EF0FF0000E216E000E206E000E1F6E9C
:101FAE00000E1E6EE7EF0FF0000E086E200E076E8D
:101FBE0017C009F018C00AF060EC10F01E4A1F2A74
:101FCE0020501E5C1F50800A1D6E2150800A1D5825
:101FDE00D8A0F4EF0FF0F6EF0FF0DBEF0FF055B0E7
:101FEE00FBEF0FF0FDEF0FF007EF10F019C010F040
:101FFE001AC011F017C012F018C013F065EC11F0F2
:10200E0019C005F01AC006F0ADEC12F020500524F0
:10201E00176E21500620186E12003DEF10F013ECD3
:10202E0014F081B61DEF10F01FEF10F016EF10F048
:10203E00020E0001F96F5FEF10F0020EF719D8A42F
:10204E002BEF10F02DEF10F039EF10F08A92000EFA
:10205E00066E000E056E9FEC13F0000E0001F76F7A
:10206E00000EF66F13EC14F039EF10F00001F95179
:10207E00536E546A5450000AD8B448EF10F05FEF14
:10208E0010F05350000AD8B418EF10F0010AD8B46B
:10209E005FEF10F0030AD8B424EF10F0010AD8B4A1
:1020AE005FEF10F0070AD8B45FEF10F05FEF10F09B
:1020BE00120009500A10D8B467EF10F069EF10F053
:1020CE0072EF10F009500A10D8A470EF10F072EFF2
:1020DE0010F077EF10F0075068EC14F0AAEF10F044
:1020EE0020EE09F00950D9260A50DA22DE50DE1011
:1020FE00D8B484EF10F086EF10F0A1EF10F020EEC0
:10210E0009F00950D9260A50DA2210EE03F00950D0
:10211E00E1260A50E222DE50E65CE650800A0F6E9F
:10212E00DE50800A0F58D8B09FEF10F0A1EF10F0DC
:10213E00AAEF10F020EE03F00950D9260A50DA2249
:10214E00DE2A000EDD22120002EC14F0620E056E85
:10215E00280E066E7CEC14F05C0E056E150E066EE7
:10216E0077EC14F07E0E056E280E066E6DEC14F0F4
:10217E00F28EF28C81A6C6EF10F0C9EF10F0010EB0
:10218E00CAEF10F0000E0001E06F02EC0EF000013D
:10219E00E051D8B4D5EF10F0D7EF10F0DFEF10F01C
:1021AE00000EF86F4AEC0FF0BFEC0BF0D9EF10F009
:1021BE00000EF96F4AEC0FF014EC10F0E1EF10F096
:1021CE005EEF00F0EEC04FF0EFC050F0000E0001D9
:1021DE00986F000E976F07EF11F0ECC045F0EDC051
:1021EE0046F04F0E476E000E486EF0C049F0F1C03B
:1021FE004AF0A7EC07F04550000197274650982368
:10220E004FC0F6FF50C0F7FF0800F5500009D8A4E4
:10221E0013EF11F015EF11F0F4EF10F097C0ECF092
:10222E0098C0EDF01200010E0B6E200E0518061070
:10223E00D8B424EF11F026EF11F03FEF11F0F70EA6
:10224E00076EFF0E086E05C009F006C00AF00750B3
:10225E00092608500A220A5009E1050E095CD8A089
:10226E003BEF11F03DEF11F03FEF11F0000E0B6E52
:10227E000BC005F0066A12009F0E0D6EFF0E0E6E5D
:10228E000BC00FF00CC010F00D500F260E50102288
:10229E00105007E11A0E0F5CD8B058EF11F05AEF3C
:1022AE0011F060EF11F05F0E0B140B6E0C6A64EF01
:1022BE0011F00BC00BF00CC00CF01200000E166EDD
:1022CE00000E156E76EF11F014C007F0086A12C0FA
:1022DE0009F013C00AF060EC10F0154A162A1550DA
:1022EE001024D96E16501120DA6EDF50146E145071
:1022FE00D8A484EF11F086EF11F06BEF11F01200FD
:10230E00200EF66E290EF76E000EF86E00EEF2F04D
:10231E0010EE08F00900F5CFEEFFE550E150FAE1BE
:10232E0000EE60F06E0EEE6AE806FDE1576A566A40
:10233E00556A5A905A92000EF86E0001ABEF10F0EB
:10234E00080EA76E900EAB6E240EAC6E080EAF6E1E
:10235E00020E7D6E000E056E000E066E86EC14F0FB
:10236E00000E056E000E066E81EC14F0000E056E6A
:10237E00000E066E8BEC14F0000E0001AD6F120015
:10238E009F0E076EFF0E086E200E0510096E000ED2
:10239E0006100A6E0750092608500A220A500AE152
:1023AE001A0E095CD8A0DEEF11F0E1EF11F0010E6C
:1023BE00E2EF11F0000E056E066A1200000EB06E0E
:1023CE000B0EB36EDC0EB26EA192B250B3CF07F00D
:1023DE00086A07C008F0076A07100001D26F08509C
:1023EE00D36FA082340E056E290E066E6DEC14F0BE
:1023FE00310EB16E1200000EAA6EE70ECF6E960E63
:10240E00CE6E9E90CE50CFCF07F0086A07C008F070
:10241E00076A07100001D86F0850D96F9D80380EDB
:10242E00056E290E066E77EC14F0310ECD6E12008D
:10243E00A192D2C001F0D3C002F0C7EC13F000019C
:10244E00A54BA62BA65109E1320EA55DD8A032EF01
:10245E0012F034EF12F03BEF12F0FEEC12F0000E21
:10246E000001A66F000EA56F12009E90D8C001F05D
:10247E00D9C002F0DBEC13F00001A94BAA2BAA5134
:10248E0009E1190EA95DD8A04FEF12F051EF12F02D
:10249E0058EF12F02EEC13F0000E0001AA6F000E92
:1024AE00A96F12009F0E076EFF0E086E05C009F091
:1024BE0006C00AF00750092608500A220A500AE1FF
:1024CE001A0E095CD8A06EEF12F071EF12F0010E29
:1024DE0072EF12F0000E056E066A1200BF0E076E46
:1024EE00FF0E086E05C009F006C00AF00750092657
:1024FE0008500A220A500AE11A0E095CD8A08AEF87
:10250E0012F08DEF12F0010E8EEF12F0000E056E2E
:10251E00066A1200D00E076EFF0E086E05C009F097
:10252E0006C00AF00750092608500A220A500AE18E
:10253E000A0E095CD8A0A6EF12F0A9EF12F0010E58
:10254E00AAEF12F0000E056E066A120005C007F023
:10255E0006C008F0B5EF12F0054A062A05C0D9FFED
:10256E0006C0DAFFDF50D8A4BFEF12F0C1EF12F0B1
:10257E00B3EF12F00750055C056E08500658066E54
:10258E001200D59C0B0ED76EDB0ED66ED650D7CF63
:10259E0007F0086A07C008F0076A0710586E08505F
:1025AE00596EF294F28A3A0E056E290E066E7CEC86
:1025BE0014F0930ED56E1200F2945950D76E58C087
:1025CE00D6FF0001A74BA82BA85109E1320EA75D3B
:1025DE00D8A0F4EF12F0F6EF12F0FDEF12F046EC89
:1025EE0013F0000E0001A86F000EA76F120000017D
:1025FE00D051D111D8B406EF13F008EF13F015EF48
:10260E0013F002D815EF13F00500FA6ED051FD6EDF
:10261E00D151FE6EF850FF6EFA50120012000001FA
:10262E00CE51CF11D8B41EEF13F020EF13F02DEFD3
:10263E0013F002D82DEF13F00500FA6ECE51FD6E99
:10264E00CF51FE6EF850FF6EFA50120012000001CC
:10265E00D651D711D8B436EF13F038EF13F045EF4B
:10266E0013F002D845EF13F00500FA6ED651FD6E49
:10267E00D751FE6EF850FF6EFA5012001200000194
:10268E00D451D511D8B44EEF13F050EF13F05DEFD7
:10269E0013F002D85DEF13F00500FA6ED451FD6E03
:1026AE00D551FE6EF850FF6EFA50120012009E9237
:1026BE000001A34BA42BA45109E1FA0EA35DD8A0EF
:1026CE006BEF13F06DEF13F074EF13F016EC13F0D5
:1026DE00000E0001A46F000EA36F12009EAA7AEFE7
:1026EE0013F07CEF13F075EF13F0000E0001AD6FD9
:1026FE00ABA284EF13F086EF13F088EF13F0AB98D4
:10270E00AB88AE501200000E896E070E8A6E000E58
:10271E008B6EEF0E926E980E936EBF0E946E1F0E12
:10272E000F015D6F050E5C6F000E5B6FF18E120078
:10273E00B1A4A4EF13F0A6EF13F0AEEF13F0B19027
:10274E000650B36E05C0B2FFB180B2EF13F0065063
:10275E00B36E05C0B2FF1200020E516E010E526E24
:10276E00000E0001EC6F000EED6F00C1EEF001C126
:10277E00EFF0510EF06F000EF16FE9EC10F0120059
:10278E00B1A4CCEF13F0CEEF13F0D6EF13F0B1905F
:10279E000250B36E01C0B2FFB180DAEF13F00250F7
:1027AE00B36E01C0B2FF1200CDA4E0EF13F0E2EF62
:1027BE0013F0EAEF13F0CD900250CF6E01C0CEFFB2
:1027CE00CD80EEEF13F00250CF6E01C0CEFF12009F
:1027DE0005500702F3CF09F0F4CF0AF005500802B6
:1027EE00F3500A2606500702F3500A2609C005F0D8
:1027FE000AC006F0120098EC14F08AEC13F057ECB5
:10280E0014F0E5EC11F022EC14F002EC12F0C8EC2E
:10281E0012F0A7EC11F01200AB8896EC0CF0000948
:10282E00D8A41CEF14F01EEF14F014EF14F0AB98B4
:10283E004AEC0FF012007C0ECB6E000ECC6E9E9208
:10284E009D82360E056E290E066E72EC14F04E0E3B
:10285E00CA6E12000001F651D8A438EF14F03AEF08
:10286E0014F03EEF14F0010E576E010EF66F1200CB
:10287E000001F751D8A446EF14F048EF14F04BEFD7
:10288E0014F08A82010EF76F1200056E9EA852EFA9
:10289E0014F054EF14F04DEF14F005C0ADFF12001C
:1028AE00600ED36E000ED26E000E9B6E000E9A6EF0
:1028BE001200066EFE0E4CEC14F006504CEC14F0AA
:1028CE001200066E06504CEC14F0120005C0D0F04B
:1028DE0006C0D1F0120005C0CEF006C0CFF0120037
:1028EE0005C0D6F006C0D7F0120005C0D4F006C061
:1028FE00D5F0120005C0DCF006C0DDF0120005C0F8
:10290E00DEF006C0DFF0120005C0DAF006C0DBF024
:10291E0012000101020202020305056E05C0CCFF82
:0E292E001200D09E12001200120012001200C1
:020000040020DA
:08000000FFFFFFFFFFFFFFFF00
:020000040030CA
:0E00000015027F7CFF8991FF0FC00FE00F40BB
:00000001FF
