:020000040000FA
:04000000B7EF3FF027
:107F440007C001F008C002F0120007C005F008C025
:107F540006F0120007C003F008C004F01200BDECE4
:107F64003FF0B3EF3FF000EF00F0096A000EF86E47
:107F74000001B1EF3FF0CDEC3FF0C4EC3FF0E1EC99
:107F84003FF01200600ED36E000ED26E000E9B6E98
:107F9400000E9A6E1200000E896E000E8A6E000E9C
:107FA4008B6EC00E926E9368800E946E1F0E0F013E
:107FB4005D6F000E5C6F000E5B6FF18E1200080E99
:107FC400A76E900EAB6E240EAC6E080EAF6E020E52
:107FD4007D6E000E076E000E086EA7EC3FF0000EDB
:107FE400076E000E086EACEC3FF0000E076E000E3C
:0C7FF400086EA2EC3FF0000E096E1200B7
:020000040020DA
:08000000FFFFFFFFFFFFFFFF00
:020000040030CA
:0E00000015027F7CFF8991FF0FC00FE00F40BB
:00000001FF
