:020000040000FA
:0400000066EF00F0B7
:100008005B82FACF03F0FBCF04F0F2AA0EEF00F008
:1000180010EF00F019EF00F0F2A415EF00F017EF61
:1000280000F019EF00F0CDEC14F0F2AC1EEF00F088
:1000380020EF00F060EF00F09DA025EF00F027EF23
:1000480000F030EF00F09EA02CEF00F02EEF00F053
:1000580030EF00F025EC14F09DA235EF00F037EFFB
:1000680000F040EF00F09EA23CEF00F03EEF00F001
:1000780040EF00F077EC15F0A0A245EF00F047EF55
:1000880000F050EF00F0A1A24CEF00F04EEF00F0AE
:1000980050EF00F008EC14F0B6AE55EF00F057EF53
:1000A80000F060EF00F0B7AE5CEF00F05EEF00F03C
:1000B80060EF00F060EC15F004C0FBFF03C0FAFF2E
:0800C8005B92110018EF13F028
:100F000000202020202020504F534954494F4E5359
:100F100020202020200058203D2025303258202538
:100F20003032580059203D202530325820253032AB
:100F300058005A203D2025303258202530325800A4
:100F400020205F2D506C61742D5F00004BC0D9FFD5
:100F50004CC0DAFFDECFF6FFDDCFF7FF0800F5501B
:100F6000250AD8A4B6EF07F0B8EF07F04EEF09F066
:100F70004BC0D9FF4CC0DAFFDE2A000EDD22000E86
:100F80000001766F000E756F75C079F076C07AF04B
:100F900077697869000ECA6F000EC96F16EF08F006
:100FA00079814BC0D9FF4CC0DAFFDE2A000EDD226A
:100FB00016EF08F07983D1EF07F07985D1EF07F0CC
:100FC0007987D1EF07F07989D1EF07F0000ECA6F6A
:100FD000010EC96F16EF08F04BC0D9FF4CC0DAFF05
:100FE000DECFF6FFDDCFF7FF0800F5504F6E506AF9
:100FF0005050000AD8B4FFEF07F0E6EF07F04F506B
:10100000200AD8B4E0EF07F0030AD8B4E3EF07F002
:10101000080AD8B4DDEF07F0060AD8B4D0EF07F01D
:101020001D0AD8B4DAEF07F0E6EF07F0C951CA118C
:10103000D8B41DEF08F01FEF08F0ECEF07F079A12E
:1010400024EF08F026EF08F027EF08F079934BC063
:10105000D9FF4CC0DAFFDECFF6FFDDCFF7FF080087
:10106000F5502A0AD8A437EF08F039EF08F062EFFC
:1010700008F04BC0D9FF4CC0DAFFDE2A000EDD229B
:101080004DC0D9FF4EC0DAFFDFCF4FF0020EDE2693
:10109000DFCF50F0000EDD224FC0D9FF50C0DAFF85
:1010A000DECF75F0DDCF76F076BF5BEF08F059EF5D
:1010B00008F0A6EF08F07981756D761FD8B0762B11
:1010C000A6EF08F04BC0D9FF4CC0DAFFDECF0CF022
:1010D000DDCF0DF0B5EC0EF00CC075F00DC076F064
:1010E00079EF08F04BC0D9FF4CC0DAFFDE2A000EC2
:1010F000DD22D00E4F6EFF0E506E4BC0D9FF4CC09C
:10110000DAFFDECFF6FFDDCFF7FF0800F550516EB6
:10111000526A4F5051265050522252500AE10A0E44
:10112000515CD8A096EF08F099EF08F0010E9AEF05
:1011300008F0000E0001CB6FCC6BCB51CC11D8A4C2
:10114000A4EF08F0A6EF08F072EF08F04BC0D9FF4B
:101150004CC0DAFFDECFF6FFDDCFF7FF0800F55019
:10116000780AD8B4B6EF08F0B8EF08F0CAEF08F084
:101170004BC0D9FF4CC0DAFFDECFF6FFDDCFF7FF63
:101180000800F550580AD8A4C8EF08F0CAEF08F0D4
:1011900018EF09F04BC0D9FF4CC0DAFFDECFF6FFE5
:1011A000DDCFF7FF0800F5CFCDF04BC0D9FF4CC025
:1011B000DAFFDE2A000EDD224DC0D9FF4EC0DAFF75
:1011C000DFCF4FF0020EDE26DFCF50F0000EDD2223
:1011D0004FC0D9FF50C0DAFFDECF51F0DDCF52F063
:1011E00051C0C1F052C0C2F0C36BC46BC56BC66BBB
:1011F000C76BC86B49C022F04AC023F0C1C024F0BD
:10120000C2C025F0C3C026F0C4C027F0C5C028F076
:10121000C6C029F0C7C02AF0C8C02BF0CDC02CF042
:101220006AEC09F022C049F023C04AF069EF09F0E6
:101230004BC0D9FF4CC0DAFFDECFF6FFDDCFF7FFA2
:101240000800F550250AD8A428EF09F02AEF09F084
:1012500041EF09F04BC0D9FF4CC0DAFFDE2A000E87
:10126000DD22000E086E250E076E49C009F04AC047
:101270000AF06DEC12F0000E4A6E010E496E69EF35
:1012800009F04BC0D9FF4CC0DAFFDE2A000EDD2288
:10129000000E4A6E000E496E69EF09F04BC0D9FF8F
:1012A0004CC0DAFFDECFF6FFDDCFF7FF0800F550C8
:1012B000076E086A49C009F04AC00AF06DEC12F0E6
:1012C0004BC0D9FF4CC0DAFFDE2A000EDD223BEF17
:1012D00009F01200000178BF70EF09F072EF09F019
:1012E00073EF09F0799378BF80EF09F0785106E148
:1012F0007705D8B07EEF09F080EF09F086EF09F0AE
:10130000000E3A6E010E396E8AEF09F077C039F09F
:1013100078C03AF075C03BF076C03CF079A993EF05
:1013200009F095EF09F099EF09F0FE0E3B26FF0E4C
:101330003C2224C03DF025C03EF026C03FF027C02F
:1013400040F028C041F029C042F02AC043F02BC031
:1013500044F0000E466E1F0E456E000EC06F64EF27
:101360000AF04506D8A046060F0E3D14476E486A9F
:1013700048BEC4EF09F0485009E10A0E475CD8A006
:10138000C4EF09F0C6EF09F0CEEF09F0570E47247D
:10139000476E000E4820486ED4EF09F0300E472407
:1013A000476E000E4820486EBF0E2D6EFF0E2E6E4B
:1013B0002C502F6E306A2D502F262E503022305058
:1013C0000AE11A0E2F5CD8A0E8EF09F0EBEF09F064
:1013D000010EECEF09F0000E356E366A355036100E
:1013E000D8B4F5EF09F0F7EF09F027EF0AF09F0EF8
:1013F0002D6EFF0E2E6E200E47102F6E000E481021
:10140000306E2D502F262E50302230500AE11A0E09
:101410002F5CD8A00EEF0AF011EF0AF0010E12EFC8
:101420000AF0000E376E386A37503810D8B41BEF08
:101430000AF01DEF0AF027EF0AF047C00BF048C092
:101440000CF0E9EC12F00BC047F00CC048F0A10E14
:101450004524D96E000E4620DA6E47C0DFFF3906FC
:10146000D8A03A063B06D8A03C063DC02DF03EC0B1
:101470002EF03FC02FF040C030F041C031F042C0EC
:1014800032F043C033F044C034F0050E51EF0AF09F
:10149000D890343233323232313230322F322E322F
:1014A0002D32E82E48EF0AF02DC03DF02EC03EF060
:1014B0002FC03FF030C040F031C041F032C042F0A8
:1014C00033C043F034C044F046BE70EF0AF04650DB
:1014D00009E1020E455CD8A070EF0AF072EF0AF045
:1014E000A3EF0AF03D503E103F1040104110421053
:1014F00043104410D8A47FEF0AF081EF0AF0B1EF57
:1015000009F03ABE8EEF0AF03A5006E13904D8B03D
:101510008CEF0AF08EEF0AF0B1EF09F03CBE99EFC4
:101520000AF03C5008E13B04D8A099EF0AF09BEF89
:101530000AF0A3EF0AF0000179B3A1EF0AF0A3EFDC
:101540000AF0B1EF09F0000179A9A9EF0AF0ABEFB9
:101550000AF0C1EF0AF04506D8A04606A10E4524C0
:10156000D96E000E4620DA6E2CC0DFFF4506D8A0EB
:101570004606A10E4524D96E000E4620DA6E300EC6
:10158000DF6E22C017F023C018F0A10E4524196E9B
:10159000000E46201A6E3BC01BF03CC01CF060ECF5
:1015A00011F017C022F018C023F01200050E5A18CF
:1015B000D8B4DDEF0AF0DFEF0AF070EF0BF04BEF7D
:1015C0000BF08AB2E6EF0AF0E9EF0AF0010EEAEF5B
:1015D0000AF0000EFF0A016E01468A500118FD0B49
:1015E00001188A6E8A8470EF0BF08AB4FAEF0AF061
:1015F000FDEF0AF0010EFEEF0AF0000EFF0A016E89
:10160000014601468A500118FB0B01188A6E8A8236
:1016100070EF0BF000019F51D8B411EF0BF013EFF6
:101620000BF026EF0BF08AB218EF0BF01BEF0BF06C
:10163000010E1CEF0BF0000EFF0A016E01468A50EE
:101640000118FD0B01188A6E8F4B902B020E8F191B
:101650009011D8A42EEF0BF030EF0BF070EF0BF0E1
:10166000000E9F6F000EFB6F000E906F000E8F6FCD
:1016700070EF0BF08A828A9470EF0BF05850D8A468
:1016800044EF0BF046EF0BF047EF0BF08A9A8A928B
:101690008A9470EF0BF05A50016E026A0250000AF1
:1016A000D8B455EF0BF070EF0BF00150000AD8B42E
:1016B000E1EF0AF0010AD8B4F5EF0AF0030AD8B452
:1016C0000AEF0BF0010AD8B43EEF0BF0070AD8B4CA
:1016D0003AEF0BF0010AD8B470EF0BF070EF0BF09B
:1016E000030E5918D8B477EF0BF079EF0BF0F3EF46
:1016F0000BF0D6EF0BF00001FA51D8A482EF0BF0FB
:1017000084EF0BF088EF0BF08A828A94010EFA6F57
:101710008AB28DEF0BF090EF0BF0010E91EF0BF012
:10172000000EFF0A016E01468A500118FD0B0118D8
:101730008A6E8AB49EEF0BF0A1EF0BF0010EA2EFC0
:101740000BF0000EFF0A016E014601468A50011897
:10175000FB0B01188A6EF3EF0BF08AB2B2EF0BF0BD
:10176000B5EF0BF0010EB6EF0BF0000EFF0A016EA5
:1017700001468A500118FD0B01188A6E8A84F3EF26
:101780000BF08A828AB4C7EF0BF0CAEF0BF0010EA0
:10179000CBEF0BF0000EFF0A016E014601468A50A6
:1017A0000118FB0B01188A6EF3EF0BF05950016E14
:1017B000026A0250000AD8B4E0EF0BF0F3EF0BF02E
:1017C0000150000AD8B4ADEF0BF0010AD8B4C1EF54
:1017D0000BF0030AD8B47BEF0BF0010AD8B4F3EF97
:1017E0000BF0F3EF0BF01200E5EF0CF0000E576E6C
:1017F00069EC16F00001F905D8A401EF0CF003EF35
:101800000CF00CEF0CF081B608EF0CF00AEF0CF0C6
:101810000CEF0CF0000EF96F020EF919D8A413EFBB
:101820000CF015EF0CF00BEF0DF0020E5A6E010EDE
:10183000F96F000EFC6F000EFB6F000E066E000EBF
:10184000056EB8EC15F08A920BEF0DF0DBEC10F0A2
:10185000E806D8A42EEF0CF030EF0CF034EF0CF0CB
:10186000000E576E0BEF0DF0010E576E0BEF0DF0E3
:1018700081B83DEF0CF03FEF0CF04DEF0CF0000E97
:101880007E6F000E7D6F000E826F000E816F000E66
:10189000806F000E7F6F000E5A6E2EEC16F01F0E3A
:1018A00000017D25DE6F000E7E21DF6FDE51835D3E
:1018B000DF518459D8B05FEF0CF061EF0CF0C8EF46
:1018C0000CF0E10EDE6FFF0EDF6F7DC0E0F07EC03A
:1018D000E1F0DE51E027DF51E1238351E05D8451E7
:1018E000E159D8B076EF0CF078EF0CF0C8EF0CF0BF
:1018F0001F0E8125DE6F000E8221DF6FDE51875DB6
:10190000DF518859D8B087EF0CF089EF0CF0C8EFA1
:101910000CF0E10EDE6FFF0EDF6F81C0E0F082C0E1
:10192000E1F0DE51E027DF51E1238751E05D88518E
:10193000E159D8B09EEF0CF0A0EF0CF0C8EF0CF01E
:101940001F0E7F25DE6F000E8021DF6FDE51855D6B
:10195000DF518659D8B0AFEF0CF0B1EF0CF0C8EF03
:101960000CF0E10EDE6FFF0EDF6F7FC0E0F080C095
:10197000E1F0DE51E027DF51E1238551E05D865142
:10198000E159D8A0C6EF0CF0C8EF0CF00BEF0DF04A
:10199000040E5A6E8A8A0BEF0DF0DBEC10F0E806AD
:1019A000D8A4D5EF0CF0D7EF0CF034EF0CF030EFFB
:1019B0000CF081B8DEEF0CF0E0EF0CF00BEF0DF067
:1019C000000E5A6E8A9A0BEF0DF05A500001DE6F2E
:1019D000DF6BDF51000AD8B4F0EF0CF00BEF0DF025
:1019E000DE51000AD8B4F6EF0BF0010AD8B426EFA6
:1019F0000CF0030AD8B438EF0CF0010AD8B4CDEFDC
:101A00000CF0070AD8B4D9EF0CF0010AD8B40BEFE8
:101A10000DF00BEF0DF0120000017B4B7C2B7CBF17
:101A20001BEF0DF07C5109E1020E7B5DD8A01BEF8E
:101A30000DF01DEF0DF05FEF0DF0050E5A18D8B444
:101A400024EF0DF026EF0DF05FEF0DF0040E5A18A5
:101A5000D8B42DEF0DF02FEF0DF05FEF0DF05A041D
:101A6000D8B435EF0DF037EF0DF05FEF0DF0030E4A
:101A70005A18D8B43EEF0DF040EF0DF05FEF0DF0C7
:101A8000020E5A18D8A447EF0DF049EF0DF056EFAB
:101A90000DF0030E5A6E000E586E000E026E000E10
:101AA000016EF4EC15F08A8A58EF0DF0010E5A6EB3
:101AB000000E00017C6F000E7B6F9CEF0DF05A044E
:101AC000D8A465EF0DF067EF0DF073EF0DF057043C
:101AD000D8A46DEF0DF06FEF0DF073EF0DF0000E69
:101AE0005A6E9CEF0DF0030E5A18D8A47AEF0DF041
:101AF0007CEF0DF08AEF0DF05704D8A482EF0DF0C3
:101B000084EF0DF08AEF0DF0020E5A6E8A828A84FD
:101B10009CEF0DF05A04D8A490EF0DF092EF0DF069
:101B20009CEF0DF05750D8A498EF0DF09AEF0DF000
:101B30009CEF0DF058EF0DF07CBFA8EF0DF07C513D
:101B400009E1020E7B5DD8A0A8EF0DF0AAEF0DF021
:101B5000C3EF0DF0030E5918D8B4B1EF0DF0B3EF89
:101B60000DF0C3EF0DF05904D8B4B9EF0DF0BBEF91
:101B70000DF0C3EF0DF0010E596E000E7C6F000EDC
:101B80007B6FE3EF0DF05904D8A4C9EF0DF0CBEF54
:101B90000DF0D7EF0DF05704D8A4D1EF0DF0D3EF2F
:101BA0000DF0D7EF0DF0000E596EE3EF0DF0570476
:101BB000D8A4DDEF0DF0DFEF0DF0E3EF0DF0000E38
:101BC0007C6F000E7B6F120081B8E9EF0DF0EBEF38
:101BD0000DF097EF0EF0030E596E000E5A6E000EC8
:101BE0000001F86F000E076E000E086E000E3CEC50
:101BF00010F0000E076E000E086E050E3CEC10F0A3
:101C000097EF0EF0020E0001FA6F2EEC16F00001B5
:101C1000832907E1030E8419D8A411EF0EF013EF06
:101C20000EF0B4EF0EF0020E885DD8A01AEF0EF0A1
:101C30001CEF0EF0B4EF0EF0110E875D020E885906
:101C4000D8B025EF0EF027EF0EF0B4EF0EF0020E35
:101C5000865DD8A02EEF0EF030EF0EF0B4EF0EF050
:101C6000110E855D020E8659D8B039EF0EF03BEFAC
:101C70000EF0B4EF0EF0020E596EB4EF0EF0DBEC86
:101C800010F0E806D8A447EF0EF049EF0EF04DEF44
:101C90000EF0000E576EB4EF0EF0010E576EB4EF5B
:101CA0000EF0020E0001FA19D8A459EF0EF05BEF06
:101CB0000EF05DEF0EF0000EFA6F2EEC16F0000144
:101CC000832907E1030E8419D8A469EF0EF06BEFA6
:101CD0000EF093EF0EF0020E885DD8A072EF0EF0BA
:101CE00074EF0EF093EF0EF0110E875D020E88591F
:101CF000D8B07DEF0EF07FEF0EF093EF0EF0020EF6
:101D0000865DD8A086EF0EF088EF0EF093EF0EF010
:101D1000110E855D020E8659D8A091EF0EF093EF5B
:101D20000EF0B4EF0EF0000E596EB4EF0EF05950F5
:101D3000556E566A5650000AD8B4A1EF0EF0B4EFB3
:101D40000EF05550000AD8B402EF0EF0010AD8B4D4
:101D50003FEF0EF0030AD8B451EF0EF0010AD8B4E9
:101D6000B4EF0EF0B4EF0EF01200000E1A6E000E7B
:101D7000196E000E136E000E126EC1EF0EF00C4ABB
:101D80000D2A010E186E0CC0F6FF0DC0F7FF0800FB
:101D9000F550200AD8B4CFEF0EF0D1EF0EF0EEEFF1
:101DA0000EF0F70E0E6EFF0E0F6E0CC0F6FF0DC09C
:101DB000F7FF0800F550106E116A0E5010260F50F4
:101DC0001122115009E1050E105CD8A0EAEF0EF0C7
:101DD000ECEF0EF0EEEF0EF0000E186E18C014F0DF
:101DE000156A14501510D8A4F8EF0EF0FAEF0EF0A3
:101DF000BFEF0EF004EF0FF0000E136E010E126E27
:101E00000C4A0D2A39EF0FF00CC0F6FF0DC0F7FF9A
:101E10000800F5500E6E0F6A0F50000AD8B413EF89
:101E20000FF039EF0FF00E502B0AD8B400EF0FF07F
:101E3000060AD8B4FCEF0EF039EF0FF019C005F028
:101E40001AC006F0000E086E0A0E076E08EC16F0B7
:101E50000CC0F6FF0DC0F7FF0800F550055E000E40
:101E6000065A300E0524196E000E06201A6E00EF79
:101E70000FF0D00E0E6EFF0E0F6E0CC0F6FF0DC0F1
:101E8000F7FF0800F550106E116A0E5010260F5023
:101E9000112211500AE10A0E105CD8A052EF0FF087
:101EA00055EF0FF0010E56EF0FF0000E166E176A89
:101EB00016501710D8A45FEF0FF061EF0FF01EEF70
:101EC0000FF012501310D8A468EF0FF06AEF0FF064
:101ED00078EF0FF019C00EF01AC00FF00E1E0F1E93
:101EE0000E4A0F2A0EC00CF00FC00DF07CEF0FF061
:101EF00019C00CF01AC00DF01200000E0C6E000E8E
:101F00000B6E8AB286EF0FF089EF0FF0010E8AEFA9
:101F10000FF0000EFF0A056E05468A500518FD0BEE
:101F200005188A6E040E066E2C0E056EAC0EE82E99
:101F3000FED7052EFCD7062EFAD70B4A0C2A0CBE6C
:101F4000ABEF0FF00C5009E1020E0B5CD8A0ABEF29
:101F50000FF0ADEF0FF081EF0FF0070E066E580E89
:101F6000056E5A0EE82EFED7052EFCD7062EFAD7A0
:101F7000000E0E6E000E0D6E8AB4C1EF0FF0C4EFAE
:101F80000FF0010EC5EF0FF0000EFF0A056E0546BB
:101F900005468A500518FB0B05188A6E040E066E5E
:101FA0002C0E056EAC0EE82EFED7052EFCD7062EA5
:101FB000FAD70D4A0E2A0EBEE7EF0FF00E5009E1D8
:101FC000020E0D5CD8A0E7EF0FF0E9EF0FF0BCEFC9
:101FD0000FF0070E066E580E056E5A0EE82EFED74D
:101FE000052EFCD7062EFAD70001F851D8A4FBEF36
:101FF0000FF0FDEF0FF003EF10F0000E086E060E6D
:10200000076E07EF10F0000E086E0C0E076E000E44
:102010000A6E000E096E2CEF10F08ABA12EF10F063
:1020200015EF10F0010E16EF10F0000EFF0A056E0E
:10203000053A05468A500518DF0B05188A6E040E0E
:10204000066E2C0E056EAC0EE82EFED7052EFCD7C4
:10205000062EFAD7094A0A2A0750095C0A50800A54
:10206000056E0850800A0558D8A039EF10F03BEFF4
:1020700010F00DEF10F012000B6EA9EF10F0510EE2
:1020800097EC16F0DAEF10F0530E97EC16F00750BD
:1020900083EC16F0DAEF10F0410E97EC16F0DAEF61
:1020A00010F0420E97EC16F0DAEF10F0450E97ECB8
:1020B00016F072EF10F0085083EC16F0DAEF10F023
:1020C0000850400F83EC16F0DAEF10F00850140FB0
:1020D00083EC16F0DAEF10F00850540F83EC16F092
:1020E000DAEF10F00750096E0A6A0A50000AD8B4F5
:1020F0007CEF10F0DAEF10F00950000AD8B45BEF73
:1021000010F0010AD8B460EF10F0030AD8B466EFFB
:1021100010F0010AD8B46CEF10F0DAEF10F0460EB0
:1021200097EC16F0DAEF10F04B0E97EC16F0DAEFB2
:1021300010F04C0E97EC16F0DAEF10F0410E97EC21
:1021400016F0510E97EC16F0460E97EC16F0DAEFFB
:1021500010F00B50096E0A6A0A50000AD8B4B3EFA7
:1021600010F0DAEF10F00950000AD8B43FEF10F089
:10217000010AD8B456EF10F0030AD8B48FEF10F06C
:10218000010AD8B444EF10F0070AD8B44CEF10F0AD
:10219000010AD8B451EF10F0030AD8B494EF10F04C
:1021A000010AD8B499EF10F00F0AD8B49EEF10F0DE
:1021B000DAEF10F012009EAAE0EF10F0E2EF10F05C
:1021C000E9EF10F08EEC15F0056E05500001916FEF
:1021D000926B7E0E000191199211D8A4F2EF10F0CB
:1021E000F4EF10F05EEF11F0000E946F000E936F9D
:1021F000600E9325D96E000E9421DA6E8EEC15F0E8
:10220000DF6E0001934B942B94BF10EF11F09451AB
:1022100009E1130E935DD8A010EF11F012EF11F049
:10222000F8EF10F06C518E6F8D6B6E518C6F8B6B65
:1022300070518A6F896BF905D8A421EF11F023EF53
:1022400011F037EF11F06D518D25876F000E8E2143
:10225000886F6F518B25856F000E8C21866F7151B1
:102260008925836F000E8A21846F53EF11F0F95195
:10227000D8A43DEF11F03FEF11F053EF11F06D5185
:102280008D25816F000E8E21826F6F518B257F6FA0
:10229000000E8C21806F715189257D6F000E8A217F
:1022A0007E6F020EF96F000E7C6F000E7B6F000ECA
:1022B000926F000E916F010E5FEF11F0000E120091
:1022C000000179A166EF11F068EF11F072EF11F0E3
:1022D00019C010F01AC011F017C012F018C013F096
:1022E0006EEC13F01CBE77EF11F079EF11F07FEF79
:1022F00011F01BC020F01CC021F083EF11F0000E84
:10230000216E000E206E000E1F6E000E1E6E95EFE9
:1023100011F0000E086E200E076E17C009F018C0ED
:102320000AF06DEC12F01E4A1F2A20501E5C1F504E
:10233000800A1D6E2150800A1D58D8A0A2EF11F00E
:10234000A4EF11F089EF11F0000179B1AAEF11F0BB
:10235000ACEF11F0B6EF11F019C010F01AC011F087
:1023600017C012F018C013F06EEC13F019C005F08E
:102370001AC006F0B2EC14F020500524176E21505C
:102380000620186E1200000E076E000E086E080E72
:102390003CEC10F0010E0001D46F0F0ED56FCCECA9
:1023A00015F0010E076E000E086E010E3CEC10F0E9
:1023B000160E0001D46F0F0ED56F6CC0D6F0D76B20
:1023C0006DC0D8F0D96BCCEC15F0020E076E000E84
:1023D000086E010E3CEC10F0240E0001D46F0F0EBD
:1023E000D56F6EC0D6F0D76B6FC0D8F0D96BCCEC80
:1023F00015F0020E5918D8A400EF12F002EF12F0F7
:1024000009EF12F0400E0001D46F0F0ED56FCCEC27
:1024100015F0030E076E000E086E010E3CEC10F076
:10242000320E0001D46F0F0ED56F70C0D6F0D76B8F
:1024300071C0D8F0D96BCCEC15F012001BEC16F083
:10244000CEEC13F0180E056E1A0E066EA4EC16F004
:10245000B60E056E2C0E066EB8EC16F0AC0E056EC0
:10246000150E066EB3EC16F0EC0E056E2C0E066E15
:10247000A9EC16F081A63FEF12F042EF12F0010E28
:1024800043EF12F0000E0001F86F7DEC0FF0F28EBA
:10249000F28C0001F851D8B450EF12F052EF12F064
:1024A00063EF12F0000E596E000EFD6FE4EC0DF0BC
:1024B0000001F851D8A45FEF12F061EF12F056EF6F
:1024C00012F049EF12F0000E5A6E000EFE6FF4EC9F
:1024D0000BF067EF12F066EF00F009500A10D8B465
:1024E00074EF12F076EF12F07FEF12F009500A103D
:1024F000D8A47DEF12F07FEF12F084EF12F00750B6
:102500009FEC16F0B7EF12F020EE04F00950D92638
:102510000A50DA22DE50DE10D8B491EF12F093EFB9
:1025200012F0AEEF12F020EE04F00950D9260A5056
:10253000DA2210EE02F00950E1260A50E222DE50C3
:10254000E65CE650800A0F6EDE50800A0F58D8B065
:10255000ACEF12F0AEEF12F0B7EF12F020EE02F097
:102560000950D9260A50DA22DE2A000EDD22120096
:10257000D0C053F0D1C054F0000E0001746F000EB3
:10258000736FD6EF12F0CEC049F0CFC04AF0530EB1
:102590004B6E000E4C6ED2C04DF0D3C04EF0A6EC88
:1025A00007F04950000173274A50742353C0F6FFC7
:1025B00054C0F7FF0800F5500009D8A4E2EF12F06C
:1025C000E4EF12F0C3EF12F073C0CEF074C0CFF09E
:1025D00012009F0E0D6EFF0E0E6E0BC00FF00CC0A2
:1025E00010F00D500F260E50102210500AE11A0E56
:1025F0000F5CD8A0FEEF12F001EF13F0010E02EF16
:1026000013F0000E116E126A11501210D8B40BEFB5
:1026100013F00DEF13F013EF13F05F0E0B140B6EAE
:102620000C6A17EF13F00BC00BF00CC00CF012008B
:10263000980EF66E2D0EF76E000EF86E00EEF9F0A5
:1026400010EE06F00900F5CFEEFFE550E150FAE19B
:102650009E0EF66E2D0EF76E000EF86E00EE57F021
:1026600010EE04F00900F5CFEEFFE550E150FAE17D
:1026700000EE60F0610EEE6AE806FDE15B905B92B1
:10268000000EF86E00011EEF12F0010E0B6E200E10
:1026900005180610D8B44FEF13F051EF13F06AEF9E
:1026A00013F0F70E076EFF0E086E05C009F006C0A6
:1026B0000AF00750092608500A220A5009E1050EBF
:1026C000095CD8A066EF13F068EF13F06AEF13F01F
:1026D000000E0B6E0BC005F0066A1200000E166E9F
:1026E000000E156E7FEF13F014C007F0086A12C0D9
:1026F00009F013C00AF06DEC12F0154A162A1550B5
:102700001024D96E16501120DA6EDF50146E14505A
:10271000D8A48DEF13F08FEF13F074EF13F01200C5
:10272000080EA76E900EAB6E240EAC6E080EAF6E48
:10273000020E7D6E000E056E000E066EC2EC16F0E7
:10274000000E056E000E066EBDEC16F0000E056E56
:10275000000E066EC7EC16F0000E0001A06F12000E
:102760009F0E076EFF0E086E200E0510096E000EFC
:1027700006100A6E0750092608500A220A500AE17C
:102780001A0E095CD8A0C7EF13F0CAEF13F0010EC0
:10279000CBEF13F0000E056E066A1200000EB06E4D
:1027A0000B0EB36EDC0EB26EA192B250B3CF07F037
:1027B000086A07C008F0076A07100001E86F0850B0
:1027C000E96FA082A80E056E2D0E066EA9EC16F01C
:1027D000310EB16E1200000EAA6EE70ECF6E960E8D
:1027E000CE6E9E90CE50CFCF07F0086A07C008F09B
:1027F000076A07100001F06F0850F16F9D80AC0E62
:10280000056E2D0E066EB3EC16F0310ECD6E120075
:10281000A192E8C001F0E9C002F0E0EC15F000017F
:10282000994B9A2B9A5109E1320E995DD8A01BEF72
:1028300014F01DEF14F024EF14F000EC15F0000E6E
:1028400000019A6F000E996F12009E90F0C001F087
:10285000F1C002F0F4EC15F000019D4B9E2B9E514F
:1028600009E1190E9D5DD8A038EF14F03AEF14F08D
:1028700041EF14F030EC15F0000E00019E6F000ED9
:102880009D6F12009F0E076EFF0E086E05C009F0C7
:1028900006C00AF00750092608500A220A500AE129
:1028A0001A0E095CD8A057EF14F05AEF14F0010E7D
:1028B0005BEF14F0000E056E066A1200BF0E076E85
:1028C000FF0E086E05C009F006C00AF00750092681
:1028D00008500A220A500AE11A0E095CD8A073EFC8
:1028E00014F076EF14F0010E77EF14F0000E056E81
:1028F000066A1200D00E076EFF0E086E05C009F0C2
:1029000006C00AF00750092608500A220A500AE1B8
:102910000A0E095CD8A08FEF14F092EF14F0010EAC
:1029200093EF14F0000E056E066A1200D59C0B0E94
:10293000D76EDB0ED66ED650D7CF07F0086A07C029
:1029400008F0076A07100001EA6F0850EB6FF29475
:10295000F28AAE0E056E2D0E066EB8EC16F0930ED2
:10296000D56E120005C007F006C008F0BAEF14F0EB
:10297000054A062A05C0D9FF06C0DAFFDF50D8A4F1
:10298000C4EF14F0C6EF14F0B8EF14F00750055C74
:10299000056E08500658066E1200F2940001EB51C5
:1029A000D76EEAC0D6FF9B4B9C2B2C0E9B5D010E75
:1029B0009C59D8A0DEEF14F0E0EF14F0E7EF14F02C
:1029C00048EC15F0000E00019C6F000E9B6F12008A
:1029D0000001E251E311D8B4F0EF14F0F2EF14F07B
:1029E000FFEF14F002D8FFEF14F00500FA6EE25189
:1029F000FD6EE351FE6EF850FF6EFA5012001200A9
:102A00000001E651E711D8B408EF15F00AEF15F010
:102A100017EF15F002D817EF15F00500FA6EE65122
:102A2000FD6EE751FE6EF850FF6EFA501200120074
:102A30000001E451E511D8B420EF15F022EF15F0B4
:102A40002FEF15F002D82FEF15F00500FA6EE451C4
:102A5000FD6EE551FE6EF850FF6EFA501200120046
:102A60000001EE51EF11D8B438EF15F03AEF15F040
:102A700047EF15F002D847EF15F00500FA6EEE515A
:102A8000FD6EEF51FE6EF850FF6EFA50120012000C
:102A90000001EC51ED11D8B450EF15F052EF15F0E4
:102AA0005FEF15F002D85FEF15F00500FA6EEC51FC
:102AB000FD6EED51FE6EF850FF6EFA5012001200DE
:102AC000B79E0001954B962BF40E955D010E96591D
:102AD000D8A06DEF15F06FEF15F076EF15F0E8EC7C
:102AE00014F0000E0001966F000E956F12009E927A
:102AF0000001974B982BF40E975D010E9859D8A0C2
:102B000084EF15F086EF15F08DEF15F018EC15F049
:102B1000000E0001986F000E976F12009EAA93EFAF
:102B200015F095EF15F08EEF15F0000E0001A06F77
:102B3000ABA29DEF15F09FEF15F0A1EF15F0AB984C
:102B4000AB88AE501200000E896E070E8A6E000E22
:102B50008B6EEF0E926E980E936EBF0E946E1F0EDC
:102B60000F015D6F050E5C6F000E5B6FF18E120042
:102B7000B1A4BDEF15F0BFEF15F0C7EF15F0B190A0
:102B80000650B36E05C0B2FFB180CBEF15F0065012
:102B9000B36E05C0B2FF1200D60E0001DC6F000E4E
:102BA000DD6F000ECE6F000ECF6FD4C0D0F0D5C059
:102BB000D1F0DC0ED26F000ED36FB8EC12F0120021
:102BC000B1A4E5EF15F0E7EF15F0EFEF15F0B190D8
:102BD0000250B36E01C0B2FFB180F3EF15F00250A6
:102BE000B36E01C0B2FF1200CDA4F9EF15F0FBEFF8
:102BF00015F003EF16F0CD900250CF6E01C0CEFF5E
:102C0000CD8007EF16F00250CF6E01C0CEFF12004C
:102C100005500702F3CF09F0F4CF0AF0055008027F
:102C2000F3500A2606500702F3500A2609C005F0A1
:102C30000AC006F01200D1EC16F0A3EC15F08EECF1
:102C400016F0CEEC13F03DEC16F04CEC16F0EBEC7D
:102C500013F096EC14F090EC13F01200AB88DBEC60
:102C600010F00009D8B437EF16F039EF16F02FEF57
:102C700016F0AB98C3EC11F01200F90EA96E000E1D
:102C8000876EB79EB68EA60E056E2D0E066EA4EC50
:102C900016F0260E886E12007C0ECB6E000ECC6EE7
:102CA0009E929D82AA0E056E2D0E066EAEEC16F05B
:102CB0004E0ECA6E12000001FB51D8A462EF16F04E
:102CC00064EF16F068EF16F0010E9F6F010EFB6FB8
:102CD0001200AB88DBEC10F00009D8B472EF16F0EC
:102CE00074EF16F06AEF16F0AB9812000001FC5179
:102CF000D8A47DEF16F07FEF16F082EF16F08A82EF
:102D0000010EFC6F1200056E9EA889EF16F08BEF86
:102D100016F084EF16F005C0ADFF1200600ED36E02
:102D2000000ED26E000E9B6E000E9A6E1200066EA2
:102D3000FE0E83EC16F0065083EC16F01200066EC1
:102D4000065083EC16F0120005C0E2F006C0E3F076
:102D5000120005C0E6F006C0E7F0120005C0E4F07E
:102D600006C0E5F0120005C0EEF006C0EFF012005C
:102D700005C0ECF006C0EDF0120005C0F4F006C08E
:102D8000F5F0120005C0F6F006C0F7F0120005C01D
:102D9000F2F006C0F3F01200010202020305020283
:102DA0000305D09E12001200120012001200120041
:020000040020DA
:08000000FFFFFFFFFFFFFFFF00
:020000040030CA
:0E00000015027F7CFF8991FF0FC00FE00F40BB
:00000001FF
