:040000003AEF00F0E3
:100008005782FACF01F0FBCF02F0F2AA0EEF00F010
:1000180010EF00F01BEF00F0F2A415EF00F017EF5F
:1000280000F01BEF00F034EC18F034EF00F0F2AC05
:1000380020EF00F022EF00F034EF00F076AC27EF6D
:1000480000F029EF00F034EF00F077AC2EEF00F06D
:1000580030EF00F034EF00F0E6EC18F034EF00F089
:1000680002C0FBFF01C0FAFF579211008BEF18F096
:101000000053595354454D45204F4E0042555320EF
:051010004F4646000000
:101016000650800B0F6E06500624116E05AE16EFB5
:1010260008F018EF08F019EF08F011801150D8B445
:101036001FEF08F021EF08F036EF08F01128D8A4CA
:1010460027EF08F029EF08F031EF08F0000E036EE5
:10105600000E046E000E056E000E066E058E000E66
:10106600066E3EEF08F0000E036E000E046E000ED4
:10107600056E000E066E0A50800B106E0F5010188B
:10108600D8B448EF08F04AEF08F04BEF08F00F8CA1
:101096000A500A24106E09AE53EF08F055EF08F017
:1010A60056EF08F010801050D8B45CEF08F05EEFF1
:1010B60008F073EF08F01028D8A464EF08F066EF84
:1010C60008F06EEF08F0000E076E000E086E000EB8
:1010D600096E000E0A6E098E000E0A6E7BEF08F08E
:1010E600000E076E000E086E000E096E000E0A6EE8
:1010F6001150105CD8B082EF08F084EF08F0ABEF27
:1011060008F00FAC89EF08F08BEF08F08DEF08F0D0
:10111600800E0F1A11C012F010C011F012C010F09C
:1011260003C012F007C003F012C007F004C012F0AB
:1011360008C004F012C008F005C012F009C005F09E
:1011460012C009F006C012F00AC006F012C00AF07A
:10115600000E126E115010C00BF00C6A0B5E000EE2
:101166000C5A0CBEC0EF08F00C5009E11A0E0B5CCD
:10117600D8A0C0EF08F0C2EF08F0F9EF08F003506E
:10118600041005100610D8A4CBEF08F0CEEF08F037
:10119600010ECFEF08F0000E126E000E036E000E69
:1011A600046E000E056E000E066E10C011F002EF02
:1011B60009F012A0E1EF08F0E3EF08F0E9EF08F01C
:1011C600D89012300109126EEBEF08F0D890123267
:1011D60003A0F0EF08F0F2EF08F0F3EF08F0128E3C
:1011E60006340632053204320332112A1050115CDD
:1011F600D8A000EF09F002EF09F0DCEF08F00FBC11
:1012060007EF09F009EF09F049EF09F01150D8A4EA
:101216000FEF09F011EF09F01BEF09F0000E036E56
:10122600000E046E000E056E000E066E6AEF0AF0E2
:101236000750032608500422095005220A500622A8
:1012460006A028EF09F02AEF09F0D6EF09F012A060
:101256002FEF09F031EF09F037EF09F0D89012308F
:101266000109126E39EF09F0D890123203A03EEF51
:1012760009F040EF09F041EF09F0128E063406320C
:10128600053204320332112AD6EF09F00750035C07
:1012960008500458095005580650800A0B6E0A502B
:1012A600800A0B58D8B05AEF09F05CEF09F087EFC7
:1012B60009F00350075C0B6E045008580C6E05507D
:1012C60009580D6E06500A580E6EFF0E0B24036E5B
:1012D600FF0E0C20046EFF0E0D20056EFF0E0E2075
:1012E600066E800E0F1A126C1250D8A47DEF09F00C
:1012F6007FEF09F08FEF09F0010E0326000E04229E
:10130600052206228FEF09F00750035E0850045AA3
:101316000950055A0A50065A0350041005100610C3
:10132600D8A498EF09F09AEF09F0CFEF09F0125020
:10133600D8A4A0EF09F0A2EF09F0CFEF09F0000E54
:10134600036E000E046E000E056E000E066E6AEF4A
:101356000AF0D890033604360536063612AEB6EFD6
:1013660009F0B8EF09F0B9EF09F0038012A0BEEF5B
:1013760009F0C0EF09F0C4EF09F0D8801236C6EFC5
:1013860009F0D89012361150D8B4CCEF09F0CEEF50
:1013960009F0CFEF09F0110605AED4EF09F0D6EF4C
:1013A60009F0ACEF09F0000E106E12AEDDEF09F099
:1013B600DFEF09F0F7EF09F012C00BF07F0E0B1606
:1013C600D8B4E8EF09F0EAEF09F0EEEF09F0010E04
:1013D600106EF7EF09F003A0F3EF09F0F5EF09F04F
:1013E600F7EF09F0EAEF09F01050D8B4FDEF09F075
:1013F600FFEF09F02AEF0AF0010E0326000E042281
:101406000522062206A00AEF0AF00CEF0AF02AEFE0
:101416000AF003C00BF004C00CF005C00DF006C0C6
:101426000EF00E340E320D320C320B320BC003F0BE
:101436000CC004F00DC005F00EC006F01128D8B49B
:1014460027EF0AF029EF0AF02AEF0AF0112A1128ED
:10145600D8B430EF0AF032EF0AF03AEF0AF0115042
:10146600D8A438EF0AF03AEF0AF04CEF0AF0000E73
:10147600036E000E046E000E056E000E066E115011
:10148600D8A448EF0AF04AEF0AF04CEF0AF0000E33
:101496000F6E11A051EF0AF053EF0AF056EF0AF063
:1014A600058E57EF0AF0059ED8901130066E0FAEE6
:1014B6005FEF0AF061EF0AF062EF0AF0068E03C0F2
:1014C60003F004C004F005C005F006C006F01200E3
:1014D6002D50800B366E2D502D243C6E2CAE76EFA3
:1014E6000AF078EF0AF079EF0AF03C803C50D8B465
:1014F6007FEF0AF081EF0AF094EF0AF03C28D8A4B7
:1015060087EF0AF089EF0AF091EF0AF0000E2A6ED3
:10151600000E2B6E000E2C6E000E2D6E2C8E9CEF88
:101526000AF0000E2A6E000E2B6E000E2C6E000EB8
:101536002D6E3150800B361A31503124376E30AE55
:10154600A7EF0AF0A9EF0AF0AAEF0AF037803750A2
:10155600D8B4B0EF0AF0B2EF0AF0C5EF0AF03728B8
:10156600D8A4B8EF0AF0BAEF0AF0C2EF0AF0000EFC
:101576002E6E000E2F6E000E306E000E316E308E07
:10158600CDEF0AF0000E2E6E000E2F6E000E306E9E
:10159600000E316E3750D8B4D3EF0AF0D5EF0AF00B
:1015A600DDEF0AF03C50D8A4DBEF0AF0DDEF0AF0DD
:1015B600E7EF0AF0000E2A6E000E2B6E000E2C6E60
:1015C600000E2D6E7FEF0CF030502A02F3CF41F063
:1015D600F4CF42F04150386E396A3A6A3B6A42505B
:1015E6003D6E3E6A3F6A406A2F502B02F3CF41F0B0
:1015F600F4CF42F041503826000E39223A223B22DF
:1016060042503D26000E3E223F2240222E502C0202
:10161600F3CF41F0F4CF42F041503826000E392284
:101626003A223B2242503D26000E3E223F224022D5
:101636003AC03BF039C03AF038C039F0386A2E501B
:101646002B02F3CF41F0F4CF42F0415038264250FE
:101656003922000E3A22000E3B222F502A02F3CFE7
:1016660041F0F4CF42F04150382642503922000E64
:101676003A22000E3B223AC03BF039C03AF038C05D
:1016860039F0386A2E502A02F3CF41F0F4CF42F0F7
:101696004150382642503922000E3A22000E3B2293
:1016A60030502B02F3CF41F0F4CF42F041503D26AB
:1016B60042503E22000E3F22000E40222F502C02A6
:1016C600F3CF41F0F4CF42F041503D2642503E2246
:1016D600000E3F22000E402230502C02F3CF41F084
:1016E600F4CF42F04150326E4250336E346A356A5E
:1016F60034C035F033C034F032C033F0326A325081
:101706003D2633503E2234503F223550402238C0C9
:1017160032F039C033F03AC034F03BC035F0190E20
:101726009AEF0BF0D8903532343233323232E82E1B
:1017360095EF0BF032503D2633503E2234503F2277
:10174600355040223AC03BF039C03AF038C039F043
:10175600386A37503CC032F0336A3226000E3322E4
:10176600820E3224416EFF0E3320426ED0EF0BF014
:10177600D8903D363E363F3640363BAEC5EF0BF091
:10178600C7EF0BF0C8EF0BF03D80D89038363936EE
:101796003A363B364106D8A042063FAED5EF0BF0AF
:1017A600D7EF0BF0BBEF0BF0000E376E3BAEDEEF64
:1017B6000BF0E0EF0BF004EF0CF0FF0E3814326E76
:1017C600FF0E3914336EFF0E3A14346E7F0E3B143F
:1017D600356E3250331034103510D8B4F5EF0BF0A7
:1017E600F7EF0BF0FBEF0BF0010E376E04EF0CF08A
:1017F6003DA000EF0CF002EF0CF004EF0CF0F7EF59
:101806000BF03750D8B40AEF0CF00CEF0CF030EFB9
:101816000CF0010E3D26000E3E223F22402240A043
:1018260017EF0CF019EF0CF030EF0CF03DC032F072
:101836003EC033F03FC034F040C035F03534353269
:1018460034323332323232C03DF033C03EF034C02F
:101856003FF035C040F0414A422A42BE3BEF0CF011
:10186600425008E14128D8A03BEF0CF03DEF0CF0C8
:1018760047EF0CF0000E3D6E000E3E6E800E3F6E82
:101886007F0E406E75EF0CF042BE54EF0CF04250E6
:1018960006E14104D8B052EF0CF054EF0CF060EFC3
:1018A6000CF0000E3D6E000E3E6E000E3F6E000EFA
:1018B600406E000E366E75EF0CF041C03CF0FF0E28
:1018C6003D16FF0E3E167F0E3F16000E40163CA03C
:1018D6006FEF0CF071EF0CF072EF0CF03F8ED890BA
:1018E6003C30406E365040123DC02AF03EC02BF0D0
:1018F6003FC02CF040C02DF012001450800B216E1A
:1019060014501424286E13AE8BEF0CF08DEF0CF0F0
:101916008EEF0CF028802850D8B494EF0CF096EF98
:101926000CF0ABEF0CF02828D8A49CEF0CF09EEF3F
:101936000CF0A6EF0CF0000E116E000E126E000EEB
:10194600136E000E146E138E000E146EB3EF0CF0B1
:10195600000E116E000E126E000E136E000E146E47
:101966001850800B211A18501824296E17AEBEEF96
:101976000CF0C0EF0CF0C1EF0CF029802950D8B460
:10198600C7EF0CF0C9EF0CF0DEEF0CF02928D8A455
:10199600CFEF0CF0D1EF0CF0D9EF0CF0000E156E76
:1019A600000E166E000E176E000E186E178E000EC5
:1019B600186EE6EF0CF0000E156E000E166E000E99
:1019C600176E000E186E1550161017101810D8A4A2
:1019D600EFEF0CF0F1EF0CF009EF0DF0000E116EC9
:1019E600000E126E000E136E000E146E800E131291
:1019F6007F0E14122150141211C011F012C012F0F1
:101A060013C013F014C014F04CEF0EF02850D8A4F5
:101A16000FEF0DF011EF0DF01BEF0DF0000E116E34
:101A2600000E126E000E136E000E146E4CEF0EF0CA
:101A3600295028C019F01A6A195E000E1A5A7F0E2C
:101A46001924226E000E1A20236E11C01DF012C03A
:101A56001EF013C01FF014C020F0000E116E000E11
:101A6600126E000E136E000E146E000E246E000E23
:101A7600256E000E266E000E276E000E296E7CEF78
:101A86000DF02950D8B44AEF0DF04CEF0DF063EF8E
:101A96000DF0D8901D361E361F362036D8901136DA
:101AA60012361336143627AE5BEF0DF05DEF0DF0F0
:101AB6005EEF0DF01180D89024362536263627366F
:101AC60015501D5C16501E5817501F581850205898
:101AD600D8A070EF0DF072EF0DF07BEF0DF0278CB4
:101AE60015501D5E16501E5A17501F5A1850205A70
:101AF600292A190E296482EF0DF084EF0DF044EFC8
:101B06000DF01D501E101F102010D8B48DEF0DF0D3
:101B16008FEF0DF0A7EF0DF02480A7EF0DF0D89012
:101B2600113612361336143627AE9CEF0DF09EEFA3
:101B36000DF09FEF0DF01180D8902436253626360D
:101B460027362206D8A0230613AEACEF0DF0AEEF73
:101B56000DF092EF0DF0000E296E27AEB5EF0DF0E9
:101B6600B7EF0DF0DBEF0DF0FF0E2414196EFF0E2C
:101B760025141A6EFF0E26141B6E7F0E27141C6E7C
:101B860019501A101B101C10D8B4CCEF0DF0CEEF64
:101B96000DF0D2EF0DF0010E296EDBEF0DF011A066
:101BA600D7EF0DF0D9EF0DF0DBEF0DF0CEEF0DF026
:101BB6002950D8B4E1EF0DF0E3EF0DF007EF0EF08A
:101BC600010E1126000E12221322142214A0EEEF8B
:101BD6000DF0F0EF0DF007EF0EF011C019F012C086
:101BE6001AF013C01BF014C01CF01C341C321B323C
:101BF6001A32193219C011F01AC012F01BC013F0B4
:101C06001CC014F0224A232A23BE12EF0EF02350E2
:101C160008E12228D8A012EF0EF014EF0EF01FEF05
:101C26000EF0000E236E2268000E116E000E126E6C
:101C3600000E136E000E146E23BE2CEF0EF0235012
:101C460006E12204D8B02AEF0EF02CEF0EF03AEFA0
:101C56000EF0000E236E000E226E000E116E000EA8
:101C6600126E000E136E000E146E000E216E22C050
:101C760028F028A041EF0EF043EF0EF046EF0EF0ED
:101C8600138E47EF0EF0139ED8902830146EFDEF9A
:101C96000CF01200000E176E000E186E000E196E74
:101CA600000E1A6E0F0120B75BEF0EF05DEF0EF01F
:101CB600D7EF0EF020EE01F01550D9261650DA2295
:101CC600DECF03F0DECF04F0DECF05F0DECF06F088
:101CD60015C0D9FF16C0DAFFDF50076E170E086E63
:101CE600000E096E180E0A6E000E0B6E190E0C6EA3
:101CF600000E0D6E1A0E0E6E000E0F6ED9EC11F060
:101D060017C023FF18C024FF19C021FF1AC022FFE5
:101D160020EE05F01550D9261650DA22DF500F01B5
:101D2600256F20EE06F01550D9261650DA22DF5020
:101D3600266F20EE07F01550D9261650DA22DF500E
:101D4600276F20EE08F01550D9261650DA22DF50FC
:101D5600286F20EE09F01550D9261650DA22DF50EA
:101D6600296F20EE0AF01550D9261650DA22DF50D8
:101D76002A6F20EE0BF01550D9261650DA22DF50C6
:101D86002B6F20EE0CF01550D9261650DA22DF50B4
:101D96002C6F20EE0DF01550D9261650DA22DF50A2
:101DA6002D6F2087D9EF0FF010B7DCEF0EF0DEEFC6
:101DB6000EF058EF0FF020EE01F01550D926165010
:101DC600DA22DECF03F0DECF04F0DECF05F0DECF81
:101DD60006F015C0D9FF16C0DAFFDF50076E170EE2
:101DE600086E000E096E180E0A6E000E0B6E190EA6
:101DF6000C6E000E0D6E1A0E0E6E000E0F6ED9ECE6
:101E060011F017C013FF18C014FF19C011FF1AC034
:101E160012FF20EE05F01550D9261650DA22DF50B3
:101E26000F01156F20EE06F01550D9261650DA224E
:101E3600DF50166F20EE07F01550D9261650DA221D
:101E4600DF50176F20EE08F01550D9261650DA220B
:101E5600DF50186F20EE09F01550D9261650DA22F9
:101E6600DF50196F20EE0AF01550D9261650DA22E7
:101E7600DF501A6F20EE0BF01550D9261650DA22D5
:101E8600DF501B6F20EE0CF01550D9261650DA22C3
:101E9600DF501C6F20EE0DF01550D9261650DA22B1
:101EA600DF501D6F1087D5EF0EF000B75DEF0FF016
:101EB6005FEF0FF0D9EF0FF020EE01F01550D926A5
:101EC6001650DA22DECF03F0DECF04F0DECF05F0C7
:101ED600DECF06F015C0D9FF16C0DAFFDF50076E59
:101EE600170E086E000E096E180E0A6E000E0B6EA7
:101EF600190E0C6E000E0D6E1A0E0E6E000E0F6E83
:101F0600D9EC11F017C003FF18C004FF19C001FF78
:101F16001AC002FF20EE05F01550D9261650DA2217
:101F2600DF500F01056F20EE06F01550D92616502A
:101F3600DA22DF50066F20EE07F01550D92616502C
:101F4600DA22DF50076F20EE08F01550D92616501A
:101F5600DA22DF50086F20EE09F01550D926165008
:101F6600DA22DF50096F20EE0AF01550D9261650F6
:101F7600DA22DF500A6F20EE0BF01550D9261650E4
:101F8600DA22DF500B6F20EE0CF01550D9261650D2
:101F9600DA22DF500C6F20EE0DF01550D9261650C0
:101FA600DA22DF500D6F0087D5EF0EF0120060AE1B
:101FB600DFEF0FF0E1EF0FF06BEF10F062A6E6EF48
:101FC6000FF0E8EF0FF007EF10F016C0D9FF17C0BB
:101FD600DAFF020EDF6E64CF03F061CF04F062CF4A
:101FE60005F0635044EC13F020EE01F01650D926AC
:101FF6001750DA2203C0DEFF04C0DEFF05C0DEFF95
:1020060006C0DEFF20EF10F016C0D9FF17C0DAFFBA
:10201600010EDF6E62CF03F061502AEC17F020EE5E
:1020260001F01650D9261750DA2203C0DEFF04C08D
:10203600DEFF05C0DEFF06C0DEFF20EE05F016500F
:10204600D9261750DA2265CFDFFF20EE06F01650AC
:10205600D9261750DA2266CFDFFF20EE07F016509A
:10206600D9261750DA2267CFDFFF20EE08F0165088
:10207600D9261750DA2268CFDFFF20EE09F0165076
:10208600D9261750DA2269CFDFFF20EE0AF0165064
:10209600D9261750DA226ACFDFFF20EE0BF0165052
:1020A600D9261750DA226BCFDFFF20EE0CF0165040
:1020B600D9261750DA226CCFDFFF20EE0DF016502E
:1020C600D9261750DA226DCFDFFF609EFEEF10F0A3
:1020D6000F0130AF71EF10F073EF10F0FEEF10F05C
:1020E60032A778EF10F07AEF10F099EF10F016C0E3
:1020F600D9FF17C0DAFF020EDF6E34CF03F031CFFF
:1021060004F032CF05F0335144EC13F020EE01F029
:102116001650D9261750DA2203C0DEFF04C0DEFFB0
:1021260005C0DEFF06C0DEFFB2EF10F016C0D9FF15
:1021360017C0DAFF010EDF6E32CF03F031512AEC01
:1021460017F020EE01F01650D9261750DA2203C0F8
:10215600DEFF04C0DEFF05C0DEFF06C0DEFF20EEA8
:1021660005F01650D9261750DA2235CFDFFF20EEBC
:1021760006F01650D9261750DA2236CFDFFF20EEAA
:1021860007F01650D9261750DA2237CFDFFF20EE98
:1021960008F01650D9261750DA2238CFDFFF20EE86
:1021A60009F01650D9261750DA2239CFDFFF20EE74
:1021B6000AF01650D9261750DA223ACFDFFF20EE62
:1021C6000BF01650D9261750DA223BCFDFFF20EE50
:1021D6000CF01650D9261750DA223CCFDFFF20EE3E
:1021E6000DF01650D9261750DA223DCFDFFF0F012A
:1021F600309F69EF10F012000B6E0B50D8B406EF4B
:1022060011F008EF11F02AEF11F006BE0FEF11F0F2
:102216000DEF11F02AEF11F003C007F004C008F02B
:1022260005C009F006C00AF0071E081E091E0A1E90
:10223600072A000E082209220A2207C00DF008C04C
:102246000EF009C00FF00AC010F032EF11F003C013
:102256000DF004C00EF005C00FF006C010F00350DC
:10226600041005100610D8A43BEF11F03DEF11F055
:1022760047EF11F0000E036E000E046E000E056EA1
:10228600000E066ED8EF11F0960E0C6E51EF11F09F
:102296000C2AD89010320F320E320D32000E0D1469
:1022A600076E000E0E14086E000E0F14096EFE0E59
:1022B60010140A6E0750081009100A10D8A466EF09
:1022C60011F068EF11F04BEF11F076EF11F00C2AD8
:1022D600010E0D26000E0E220F221022D89010326B
:1022E6000F320E320D32000E0D14076E000E0E1454
:1022F600086E000E0F14096EFF0E10140A6E0750BA
:10230600081009100A10D8A48BEF11F08DEF11F008
:102316006AEF11F095EF11F00C06D8900D360E36D7
:102326000F3610360FBE9AEF11F09CEF11F0A4EFA6
:1023360011F0020E0C60A2EF11F0A4EF11F08FEF76
:1023460011F00CB0A9EF11F0ABEF11F0ACEF11F0FA
:102356000F9ED8900C320CC007F0086A096A0A6A08
:1023660007C00AF0096A086A076A07500D12085082
:102376000E1209500F120A5010120B50D8B4C6EFA5
:1023860011F0C8EF11F0D0EF11F006BECFEF11F04B
:10239600CDEF11F0D0EF11F0108E0DC003F00EC08E
:1023A60004F00FC005F010C006F01200020E071868
:1023B600D8A4E0EF11F0E2EF11F065EF12F00AC0D9
:1023C600D9FF0BC0DAFF03C0DFFF03C010F004C063
:1023D60011F005C012F006C013F011C010F012C0C3
:1023E60011F013C012F0136A10C003F011C004F00C
:1023F60012C005F013C006F008C0D9FF09C0DAFF05
:1024060003C0DFFF03C010F004C011F005C012F0D6
:1024160006C013F011C010F012C011F013C012F074
:10242600136A10C003F011C004F012C005F013C007
:1024360006F00350030B146E03C010F004C011F035
:1024460005C012F006C013F0030ED89010361136F0
:1024560012361336E82E28EF12F010C003F011C022
:1024660004F012C005F013C006F00350E00B14246C
:10247600146E1450080F146E1450EB0B0EC0D9FFD7
:102486000FC0DAFFDF6E03C010F004C011F005C004
:1024960012F006C013F011C010F012C011F013C0F4
:1024A60012F0136A10C003F011C004F012C005F058
:1024B60013C006F00CC0D9FF0DC0DAFF03C0DFFF62
:1024C60092EF12F008C0D9FF09C0DAFF000EDF6EE6
:1024D6000AC0D9FF0BC0DAFF000EDF6E03C010F092
:1024E60004C011F005C012F006C013F0050ED89016
:1024F6001036113612361336E82E7AEF12F010C067
:1025060003F011C004F012C005F013C006F00EC0AF
:10251600D9FF0FC0DAFF03C0DFFF46EF12F012004B
:10252600C4EC18F0D5EC18F0F28EF28C740E036E33
:10253600320E046E21EC19F04BEC18F0F90E0E0178
:10254600F86FE30EF96F040EE06F200EE16F010ED7
:102556001C6E100E1D6E9EEC18F066EC17F066EC05
:1025660017F000018451851186118711D8A4BEEF9A
:1025760012F0C0EF12F0CAEF12F08A9C8A9ECAEFE0
:1025860012F00C0E1C6E100E1D6E9EEC18F076EC02
:1025960018F00009D8A4D2EF12F0D4EF12F0C4EF6D
:1025A60012F066EC17F0000184058511861187117B
:1025B600D8A4E0EF12F0E2EF12F0B2EF12F0DCEC8A
:1025C60015F0040E4B184C10D8A4ECEF12F0EEEFF9
:1025D60012F003EF13F0410E0001AB6F000EAC6F6B
:1025E600000EAD6F000EAE6F020EAF6F4FC0B0F0B3
:1025F6005050B16FAA0E156E000E166E4DEC0EF011
:10260600060E4B184C10D8A40BEF13F00DEF13F079
:1026160022EF13F0420E0001AB6F000EAC6F000EFE
:10262600AD6F000EAE6F020EAF6F4DC0B0F04E50E4
:10263600B16FAA0E156E000E166E4DEC0EF00C0E56
:102646004B184C10D8A42AEF13F02CEF13F0B2EF6E
:1026560012F0E1EC13F0000E4C6E000E4B6E000112
:102666008451851186118711D8A43CEF13F03EEFF3
:1026760013F0B2EF12F08A9C8A9EB2EF12F03AEF94
:1026860000F00B6E000E126E000E136E000E146E2E
:10269600000E156E0550030B106E0538E842070B49
:1026A600116E0450076E086AD89007360836D8901F
:1026B60007360836D8900736083607C012F008C025
:1026C60013F0000E13BEFF0E146E156E1150122479
:1026D600126E000E1320136E000E1420146E000EE0
:1026E6001520156E12C007F013C008F014C009F0CB
:1026F60015C00AF0020ED8900736083609360A3693
:10270600E82E7EEF13F007C012F008C013F009C0E0
:1027160014F00AC015F010501224126E000E132089
:10272600136E000E1420146E000E1520156E12C0C6
:1027360008F013C009F014C00AF0076A07C012F0C7
:1027460008C013F009C014F00AC015F00B5012248B
:10275600126E000E1320136E000E1420146E000E5F
:102766001520156E12C008F013C009F014C00AF047
:10277600076A07C012F008C013F009C014F00AC0B7
:1027860015F003501224126E000E1320136E000E65
:102796001420146E000E1520156E12C00CF013C016
:1027A6000DF014C00EF015C00FF00CC003F00DC0F4
:1027B60004F00EC005F00FC006F0120088C013F03A
:1027C60089C014F08AC015F08BC016F08CC017F0C3
:1027D6008DC018F08EC019F08FC01AF0BDEC17F03E
:1027E60013C047F014C048F015C049F016C04AF0AF
:1027F60047C003F048C004F049C005F04AC006F0DF
:10280600000E076E000E086E000E096E3F0E0A6E71
:10281600EDEC14F0D8B012EF14F014EF14F031EF21
:1028260014F0000E036E000E046E000E056EBF0E51
:10283600066E47C007F048C008F049C009F04AC014
:102846000AF0EDEC14F0D8B02BEF14F02DEF14F0E5
:1028560031EF14F08A9C8A9E69EF14F0000E036E25
:10286600000E046E000E056E3F0E066E47C007F0A2
:1028760048C008F049C009F04AC00AF0EDEC14F06F
:10288600D8B048EF14F04AEF14F04EEF14F08A9CDB
:102896008A8E69EF14F047C003F048C004F049C0BF
:1028A60005F04AC006F0000E076E000E086E000E18
:1028B600096EBF0E0A6EEDEC14F0D8B065EF14F099
:1028C60067EF14F069EF14F08A9E8A8C12000534C3
:1028D60006340C6E0C50D8A473EF14F075EF14F098
:1028E6007FEF14F0000E036E000E046E000E056EF0
:1028F600000E066EECEF14F003C007F004C008F0FB
:1029060005C009F006C00AF0200E8FEF14F0D8902B
:102916000A32093208320732E82E8AEF14F00750DD
:102926000B6E058EFF0E0316FF0E0416FF0E051620
:10293600000E0616960E0C5E0CBEA6EF14F0A4EF63
:1029460014F0BCEF14F00C50800A970FD8B0AEEF1D
:1029560014F0B0EF14F0B2EF14F075EF14F0D89055
:1029660006320532043203320C3EB2EF14F0D4EFD5
:1029760014F01F0E0C64C2EF14F0C4EF14F0CCEF89
:1029860014F075EF14F0D890033604360536063683
:102996000C060C50D8A4D2EF14F0D4EF14F0C6EF06
:1029A60014F00B50D8B4DAEF14F0DCEF14F0E4EFC7
:1029B60014F0061E051E041E036C000E04220522DA
:1029C600062203C003F004C004F005C005F006C0EB
:1029D60006F01200000E03140B6E000E04140C6EAB
:1029E600800E05140D6E7F0E06140E6E0B500C1025
:1029F6000D100E10D8A402EF15F004EF15F00CEF31
:102A060015F0000E036E000E046E000E056E000E2D
:102A1600066E000E07140B6E000E08140C6E800E68
:102A260009140D6E7F0E0A140E6E0B500C100D104D
:102A36000E10D8A421EF15F023EF15F02BEF15F0AB
:102A4600000E076E000E086E000E096E000E0A6E6E
:102A560006AE30EF15F032EF15F03BEF15F0036CD4
:102A6600041ED8B0042A051ED8B0052A800E0656C4
:102A76000AAE40EF15F042EF15F04BEF15F0076C7C
:102A8600081ED8B0082A091ED8B0092A800E0A5690
:102A9600000E031A000E041A000E051A800E061AFE
:102AA600000E071A000E081A000E091A800E0A1ADE
:102AB6000750035C08500458095005580A50065838
:102AC600D8B068EF15F06AEF15F06DEF15F0D890F5
:102AD6006EEF15F0D8801200800E6F6E6E50E00B10
:102AE600800AD8A479EF15F07BEF15F071EF15F099
:102AF600000E726E200E706E000E0E01FA6F000E42
:102B0600FB6F000EF86F000EF96F000EFE6F000EE1
:102B1600FF6F000EFC6F000EFD6F000EE26F000EE1
:102B2600E36F000EE06F000EE16F000EE66F000E21
:102B3600E76F000EE46F000EE56F000EEA6F000E01
:102B4600EB6F000EE86F000EE96F000EEE6F000EE1
:102B5600EF6F000EEC6F000EED6F000EF26F000EC1
:102B6600F36F000EF06F000EF16F000EF66F000EA1
:102B7600F76F000EF46F000EF56F130E436FBF0E66
:102B8600446F070E456F800E036E320E046E35ECF1
:102B960019F0779C768C000E6F6E6ECF05F0E00E06
:102BA6000516D8A4D9EF15F0DBEF15F0D0EF15F028
:102BB6001200000EFFEC17F003C096F004C097F069
:102BC600010EFFEC17F003C094F004C095F096C018
:102BD60043F097C044F047EC16F043C08CF044C075
:102BE6008DF045C08EF046C08FF094C043F095C07E
:102BF60044F047EC16F043C088F044C089F045C065
:102C06008AF046C08BF08CC003F08DC004F08EC0F5
:102C160005F08FC006F06AEC14F003C04FF004C054
:102C260050F088C003F089C004F08AC005F08BC05C
:102C360006F06AEC14F003C04DF004C04EF04FC02D
:102C460003F050C004F0000E066E0A0E056EB1ECDD
:102C560018F003C04FF004C050F04F6C501ED8B0AF
:102C6600502A4DC003F04EC004F0000E066E0A0E48
:102C7600056EB1EC18F003C04DF004C04EF04D6C7B
:102C86004E1ED8B04E2A1200000E156EF00E166EAD
:102C96007F0E176E450E186E43C003F044C004F055
:102CA600056A066A000EFFEC10F003C011F004C0BE
:102CB60012F005C013F006C014F080EC0CF011C041
:102CC6002AF012C02BF013C02CF014C02DF0000E09
:102CD6002E6E000E2F6EFA0E306E430E316E6BECBA
:102CE6000AF02AC0C0F02BC0C1F02CC0C2F02DC023
:102CF600C3F0C0C003F0C1C004F0C2C005F0C3C039
:102D060006F0000E076E000E086E7A0E096EC30EF0
:102D16000A6E0BEC08F003C0C4F004C0C5F005C091
:102D2600C6F006C0C7F0C4C043F0C5C044F0C6C074
:102D360045F0C7C046F0120007500810D8B4A6EFF9
:102D460016F0A8EF16F0B1EF16F007500810D8A449
:102D5600AFEF16F0B1EF16F0B6EF16F005501CEC1B
:102D660019F0E9EF16F020EE09F00750D9260850C1
:102D7600DA22DE50DE10D8B4C3EF16F0C5EF16F037
:102D8600E0EF16F020EE09F00750D9260850DA22B7
:102D960010EE03F00750E1260850E222DE50E65C12
:102DA600E650800A0D6EDE50800A0D58D8B0DEEF70
:102DB60016F0E0EF16F0E9EF16F020EE03F00750FC
:102DC600D9260850DA22DE2A000EDD22120010C0B3
:102DD600D9FF11C0DAFFDECFF6FFDDCFF7FF08001F
:102DE600F550250AD8A4FAEF16F0FCEF16F015EF09
:102DF60017F010C0D9FF11C0DAFFDE2A000EDD225F
:102E0600000E0001916F000E906F90C053F0926912
:102E1600936910C0D9FF11C0DAFFDE2A000EDD2249
:102E260029EF17F010C0D9FF11C0DAFFDECFF6FF89
:102E3600DDCFF7FF0800F550056E066A0EC007F0F5
:102E46000FC008F09FEC16F00CEF17F01200096E99
:102E56000950076E086AD89007360836D8900736A4
:102E66000836D8900736083607C00EF008C00FF0AF
:102E7600000E0FBEFF0E106E116E03C007F0050E9A
:102E8600086ED8900732082E44EF17F007500E242C
:102E96000E6E000E0F200F6E000E1020106E000E2C
:102EA6001120116E0EC00AF00FC00BF010C00CF00E
:102EB60011C00DF00AC003F00BC004F00CC005F001
:102EC6000DC006F012009C0E166E000E176EDAECA0
:102ED6000FF09DC080F09EC081F09FC082F0A0C020
:102EE60083F00001A251846F856B866B876B110E90
:102EF6008019811182118311D8A484EF17F086EF0F
:102F060017F095EF17F08451851186118711D8A413
:102F16008FEF17F091EF17F095EF17F08A9C8A9EC6
:102F260095EF17F0120016C01AF017C01BF0AAEFA3
:102F360017F014C00EF015C00FF01A0E106E000E2A
:102F4600116E18C012F019C013F0EAEC16F01AC090
:102F5600F6FF1BC0F7FF0800F5500009D8A4B6EF2E
:102F660017F0B8EF17F09CEF17F0000E156E000E75
:102F7600146E1200000E171A000E181A000E191AF7
:102F8600800E1A1A13C003F014C004F015C005F021
:102F960016C006F017C007F018C008F019C009F0EF
:102FA6001AC00AF00BEC08F003C013F004C014F0CA
:102FB60005C015F006C016F01200080EA76E900E9A
:102FC600AB6E240EAC6E080EAF6E020E7D6E000E5A
:102FD600036E000E046E2BEC19F0000E036E000E4D
:102FE600046E26EC19F0000E036E000E046E30EC33
:102FF60019F0000E556E1200076E07C005F0054663
:103006000546C2500518830B0518C26EC280C282DF
:10301600C2B210EF18F012EF18F00BEF18F0C45010
:10302600066E056AC3500524036E000E0620046E64
:1030360012000001B851B911D8B424EF18F026EFE8
:1030460018F033EF18F002D833EF18F00500FA6ED7
:10305600B851FD6EB951FE6EF850FF6EFA5012006F
:103066001200F29456C0D6FF514A522A525009E134
:10307600180E515CD8A042EF18F044EF18F04AEF52
:1030860018F01CEC18F0000E526E000E516E120075
:10309600FE0E01EC19F0410E01EC19F0FE0E01ECEA
:1030A60019F0510E01EC19F0FE0E01EC19F0FE0EAE
:1030B60001EC19F0460E01EC19F01200000E896EB3
:1030C600000E8A6E000E8B6ECF0E926E3B0E936EC6
:1030D600BF0E946E1F0E0F015D6F070E5C6F000E24
:1030E6005B6FF18E1200000E036E60AE7DEF18F07E
:1030F6007FEF18F080EF18F0032A0F0130AF86EF4C
:1031060018F088EF18F089EF18F0032A0350120020
:1031160000EE60F0580EEE6AE806FDE100EE47F0BC
:103126000F0EEE6AE806FDE157905792000EF86E14
:10313600000193EF12F01E0E1E6E000E1F6E000EA3
:10314600146E000E156E1CC016F01DC017F01E0E74
:10315600186E000E196E96EC17F012000350050259
:10316600F3CF07F0F4CF08F003500602F350082619
:1031760004500502F350082607C003F008C004F007
:1031860012003DEC19F061EC18F00CEC19F015EC9E
:1031960019F0F6EC18F0D5EC18F0E0EC17F06FEC3F
:1031A60015F01200000ED76E3D0ED66E3D0E566E11
:1031B600F294F28A7E0E036E320E046E21EC19F042
:1031C600D70ED56E120002D8F4EF18F005000001F4
:1031D600FA6E9A51FD6E9B51FE6EF850FF6EFA50D4
:1031E6001200779C1200010EC26E300EC16EBE0E2A
:1031F600C06E000EC46E000EC36E1200036E9EA853
:1032060007EF19F009EF19F002EF19F003C0ADFF4F
:103216001200600ED36E000ED26E000E9B6E000E74
:103226009A6E1200000EBB6E000EBD6E000EBC6ED6
:103236001200046E045001EC19F0120003C0B8F03D
:1032460004C0B9F0120003C0BCF004C0BDF0120007
:1032560003C0BEF004C0BFF0120003C0BAF004C041
:10326600BBF0120003C09AF004C09BF012004B4A58
:0C3276004C2A1200D09E12001200120020
:020000040020DA
:08000000FFFFFFFFFFFFFFFF00
:020000040030CA
:0E00000015027F7CFF8991FF0FC00FE00F40BB
:00000001FF
