:040000003AEF00F0E3
:100008003682FACF03F0FBCF04F0F2AC0EEF00F02B
:1000180010EF00F034EF00F076AC15EF00F017EFBA
:1000280000F022EF00F077AC1CEF00F01EEF00F0BC
:1000380022EF00F0C5EC03F034EF00F09DA027EFAD
:1000480000F029EF00F034EF00F09EA02EEF00F052
:1000580030EF00F034EF00F06BEC03F034EF00F019
:1000680004C0FBFF03C0FAFF36921100D4EF03F07F
:10007800000E196E000E1A6E000E1B6E000E1C6E1E
:100088000F0120B74AEF00F04CEF00F0C6EF00F088
:1000980020EE01F01750D9261850DA22DECF05F0ED
:1000A800DECF06F0DECF07F0DECF08F017C0D9FFAD
:1000B80018C0DAFFDF50096E190E0A6E000E0B6EBB
:1000C8001A0E0C6E000E0D6E1B0E0E6E000E0F6ECD
:1000D8001C0E106E000E116EC9EC01F019C023FF42
:1000E8001AC024FF1BC021FF1CC022FF20EE05F010
:1000F8001750D9261850DA22DF500F01256F20EE4D
:1001080006F01750D9261850DA22DF50266F20EE55
:1001180007F01750D9261850DA22DF50276F20EE43
:1001280008F01750D9261850DA22DF50286F20EE31
:1001380009F01750D9261850DA22DF50296F20EE1F
:100148000AF01750D9261850DA22DF502A6F20EE0D
:100158000BF01750D9261850DA22DF502B6F20EEFB
:100168000CF01750D9261850DA22DF502C6F20EEE9
:100178000DF01750D9261850DA22DF502D6F20873E
:10018800C8EF01F010B7CBEF00F0CDEF00F047EF6C
:1001980001F020EE01F01750D9261850DA22DECFF0
:1001A80005F0DECF06F0DECF07F0DECF08F017C08F
:1001B800D9FF18C0DAFFDF50096E190E0A6E000E5B
:1001C8000B6E1A0E0C6E000E0D6E1B0E0E6E000ED0
:1001D8000F6E1C0E106E000E116EC9EC01F019C0E6
:1001E80013FF1AC014FF1BC011FF1CC012FF20EE22
:1001F80005F01750D9261850DA22DF500F01156F75
:1002080020EE06F01750D9261850DA22DF50166F64
:1002180020EE07F01750D9261850DA22DF50176F52
:1002280020EE08F01750D9261850DA22DF50186F40
:1002380020EE09F01750D9261850DA22DF50196F2E
:1002480020EE0AF01750D9261850DA22DF501A6F1C
:1002580020EE0BF01750D9261850DA22DF501B6F0A
:1002680020EE0CF01750D9261850DA22DF501C6FF8
:1002780020EE0DF01750D9261850DA22DF501D6FE6
:100288001087C4EF00F000B74CEF01F04EEF01F01B
:10029800C8EF01F020EE01F01750D9261850DA22E5
:1002A800DECF05F0DECF06F0DECF07F0DECF08F0B8
:1002B80017C0D9FF18C0DAFFDF50096E190E0A6E91
:1002C800000E0B6E1A0E0C6E000E0D6E1B0E0E6ECF
:1002D800000E0F6E1C0E106E000E116EC9EC01F0B0
:1002E80019C003FF1AC004FF1BC001FF1CC002FF96
:1002F80020EE05F01750D9261850DA22DF500F01EA
:10030800056F20EE06F01750D9261850DA22DF5074
:10031800066F20EE07F01750D9261850DA22DF5062
:10032800076F20EE08F01750D9261850DA22DF5050
:10033800086F20EE09F01750D9261850DA22DF503E
:10034800096F20EE0AF01750D9261850DA22DF502C
:100358000A6F20EE0BF01750D9261850DA22DF501A
:100368000B6F20EE0CF01750D9261850DA22DF5008
:100378000C6F20EE0DF01750D9261850DA22DF50F6
:100388000D6F0087C4EF00F01200020E0918D8A400
:10039800D0EF01F0D2EF01F055EF02F00CC0D9FF19
:1003A8000DC0DAFF05C0DFFF05C012F006C013F06C
:1003B80007C014F008C015F013C012F014C013F0F1
:1003C80015C014F0156A12C005F013C006F014C069
:1003D80007F015C008F00AC0D9FF0BC0DAFF05C046
:1003E800DFFF05C012F006C013F007C014F008C004
:1003F80015F013C012F014C013F015C014F0156AEC
:1004080012C005F013C006F014C007F015C008F0BC
:100418000550030B166E05C012F006C013F007C096
:1004280014F008C015F0030ED8901236133614369F
:100438001536E82E18EF02F012C005F013C006F0CA
:1004480014C007F015C008F00550E00B1624166E0E
:100458001650080F166E1650EB0B10C0D9FF11C0BE
:10046800DAFFDF6E05C012F006C013F007C014F003
:1004780008C015F013C012F014C013F015C014F022
:10048800156A12C005F013C006F014C007F015C0B5
:1004980008F00EC0D9FF0FC0DAFF05C0DFFF82EFFA
:1004A80002F00AC0D9FF0BC0DAFF000EDF6E0CC0E5
:1004B800D9FF0DC0DAFF000EDF6E05C012F006C0CE
:1004C80013F007C014F008C015F0050ED8901236C6
:1004D800133614361536E82E6AEF02F012C005F00E
:1004E80013C006F014C007F015C008F010C0D9FFFB
:1004F80011C0DAFF05C0DFFF36EF02F01200800EF0
:100508006F6E6E50E00B800AD8A48DEF02F08FEF6B
:1005180002F085EF02F0000E726E200E706E000E73
:100528000E01FA6F000EFB6F000EF86F000EF96FE8
:10053800000EFE6F000EFF6F000EFC6F000EFD6FC9
:10054800000EE26F000EE36F000EE06F000EE16F29
:10055800000EE66F000EE76F000EE46F000EE56F09
:10056800000EEA6F000EEB6F000EE86F000EE96FE9
:10057800000EEE6F000EEF6F000EEC6F000EED6FC9
:10058800000EF26F000EF36F000EF06F000EF16FA9
:10059800000EF66F000EF76F000EF46F000EF56F89
:1005A800130E436FBF0E446F070E456F0A0E056E9C
:1005B800080E066EFAEC03F0779C768C000E6F6ED0
:1005C8006ECF07F0E00E0716D8A4EDEF02F0EFEFBC
:1005D80002F0E4EF02F01200E1EC03F0FE0E056E0B
:1005E800070E066EF5EC03F0F28EF28C81A8FFEF91
:1005F80002F001EF03F005EF03F0010E226E1DEF8C
:1006080003F081AA0AEF03F00CEF03F010EF03F0F8
:10061800020E226E1DEF03F081AC15EF03F017EF09
:1006280003F01BEF03F0030E226E1DEF03F0000E24
:10063800226E2304D8A423EF03F025EF03F0FAEF8A
:1006480002F0540E256E000E266E000E276E000E68
:10065800286E020E296E22C02AF0000E236E240E88
:10066800176E000E186E3CEC00F089BA3EEF03F0EE
:1006780041EF03F0010E42EF03F0000EFF0A1D6E7A
:100688001D3A1D4689501D18DF0B1D18896EFAEF9B
:1006980002F03AEF00F0000EAA6E3C0ECF6EB00EDC
:1006A800CE6E9E90CE50CFCF07F0086A07C008F0F4
:1006B800076A0710346E0850356E9D80080E056E67
:1006C800080E066EF5EC03F0010ECD6E12009E903A
:1006D80034C001F035C002F0B1EC03F0204A212A01
:1006E800215009E1640E205CD8A07DEF03F07FEF74
:1006F80003F085EF03F086EC03F0000E216E000E88
:10070800206E120032503310D8B48DEF03F08FEF03
:1007180003F09CEF03F002D89CEF03F00500FA6E9B
:100728003250FD6E3350FE6EF850FF6EFA501200D4
:100738001200000E896E000E8A6E000E8B6ECF0EB0
:10074800926EFB0E936E94681F0E0F015D6F050E7F
:100758005C6F000E5B6FF18E1200CDA4B6EF03F054
:10076800B8EF03F0C0EF03F0CD900250CF6E01C098
:10077800CEFFCD80C4EF03F00250CF6E01C0CEFF94
:10078800120002D8D2EF03F00500FA6E1E50FD6E7B
:100798001F50FE6EF850FF6EFA501200779C120040
:1007A80000EE1EF0140EEE6AE806FDE13690369271
:1007B800000EF86E0001F0EF02F002EC04F09DEC80
:1007C80003F0ECEC03F04FEC03F083EC02F01200C2
:1007D800600ED36E000ED26E000E9B6E000E9A6EE7
:1007E800120005C032F006C033F0120005C01EF03A
:1007F80006C01FF01200010E236E1200D09E1200D8
:0408080012001200C8
:020000040020DA
:08000000FFFFFFFFFFFFFFFF00
:020000040030CA
:0E00000015027F7CFF8991FF0FC00FE00F40BB
:00000001FF
