:040000003AEF00F0E3
:100008005D82FACF01F0FBCF02F0F2AA0EEF00F00A
:1000180010EF00F01BEF00F0F2A415EF00F017EF5F
:1000280000F01BEF00F0C7EC0CF034EF00F0F2AC7E
:1000380020EF00F022EF00F034EF00F076AC27EF6D
:1000480000F029EF00F034EF00F077AC2EEF00F06D
:1000580030EF00F034EF00F03EEC0DF034EF00F03C
:1000680002C0FBFF01C0FAFF5D92110000EF0DF026
:1000780045C0D9FF46C0DAFFDECFF6FFDDCFF7FF78
:100088000800F550250AD8A44CEF00F04EEF00F018
:100098002BEF02F045C0D9FF46C0DAFFDE2A000E7A
:1000A800DD22000E00019D6F000E9C6F9CC0A4F025
:1000B8005B685C6845C0D9FF46C0DAFFDECFCCF08C
:1000C800DDCFCDF0CCC0F6FFCDC0F7FF0800F5CFEF
:1000D800CBF07BEF00F0CC4BCD2B9CEF00F0690E02
:1000E800CB6F9CEF00F0000ECB6F9CEF00F0CB5174
:1000F800496E4A6A4A50000AD8B485EF00F077EF93
:1001080000F04950640AD8B473EF00F00D0AD8B46F
:1001180073EF00F0050AD8B46FEF00F0190AD8B4ED
:1001280073EF00F00D0AD8B473EF00F077EF00F02A
:10013800CCC0F6FFCDC0F7FF0800F550640AD8B46C
:10014800A8EF00F0AAEF00F014EF01F0CCC0F6FF22
:10015800CDC0F7FF0800F550690AD8A4B6EF00F043
:10016800B8EF00F04FEF01F014EF01F047C0D9FFEE
:1001780048C0DAFFDFCF49F0020EDE26DFCF4AF0B3
:10018800000EDD2249C0D9FF4AC0DAFFDECFC3F036
:10019800DDCFC4F0000EC4BFFF0EC56FC66FC76FBA
:1001A800C86FC96FCA6F29EF01F047C0D9FF48C0AF
:1001B800DAFFDFCF49F0040EDE26DFCF4AF0000E6B
:1001C800DD2249C0D9FF4AC0DAFFDECF4BF0DECFCF
:1001D8004CF0DECF4DF0DECF4EF04BC04FF04CC0B0
:1001E80050F04DC051F04EC052F0536A52BE5368A1
:1001F80053C054F053C055F053C056F04FC0C3F02D
:1002080050C0C4F051C0C5F052C0C6F053C0C7F0CA
:1002180054C0C8F055C0C9F056C0CAF029EF01F063
:10022800CB51496E4A6A4A50000AD8B41EEF01F011
:1002380029EF01F04950690AD8B4BAEF00F0050A6D
:10024800D8B4D9EF00F029EF01F0010ECC25496EA2
:10025800000ECD214A6E45C0D9FF46C0DAFF49C01D
:10026800DEFF4AC0DDFF43C020F044C021F0C3C018
:1002780022F0C4C023F0C5C024F0C6C025F0C7C012
:1002880026F0C8C027F0C9C028F0CAC029F040EC41
:1002980002F03FEF02F0CCC0F6FFCDC0F7FF080038
:1002A800F550780AD8B45BEF01F05DEF01F0B3EFD9
:1002B80001F0CCC0F6FFCDC0F7FF0800F550750A75
:1002C800D8A469EF01F06BEF01F022EF02F0B3EF71
:1002D80001F047C0D9FF48C0DAFFDFCF49F0020E6E
:1002E800DE26DFCF4AF0000EDD2249C0D9FF4AC022
:1002F800DAFFDECF4BF0DDCF4CF04BC0C3F04CC083
:10030800C4F0C56BC66BC76BC86BC96BCA6BC8EF4B
:1003180001F047C0D9FF48C0DAFFDFCF49F0040E2B
:10032800DE26DFCF4AF0000EDD2249C0D9FF4AC0E1
:10033800DAFFDECF4BF0DECF4CF0DECF4DF0DECF74
:100348004EF04B50C36F4C50C46F4D50C56F4E505C
:10035800C66FC76BC86BC96BCA6BC8EF01F0CB51CE
:10036800496E4A6A4A50000AD8B4BDEF01F0C8EF96
:1003780001F04950690AD8B46DEF01F0050AD8B404
:100388008DEF01F0C8EF01F0010ECC25496E000E8B
:10039800CD214A6E45C0D9FF46C0DAFF49C0DEFF0D
:1003A8004AC0DDFF08EF02F043C020F044C021F04E
:1003B800C3C022F0C4C023F0C5C024F0C6C025F0D5
:1003C800C7C026F0C8C027F0C9C028F0CAC029F0A5
:1003D800A8EC04F03FEF02F043C020F044C021F045
:1003E800C3C022F0C4C023F0C5C024F0C6C025F0A5
:1003F800C7C026F0C8C027F0C9C028F0CAC029F075
:1004080063EC06F03FEF02F0CCC0F6FFCDC0F7FF7B
:100418000800F550496E4A6A4A50000AD8B417EFE6
:1004280002F022EF02F04950750AD8B4D8EF01F073
:100438000D0AD8B4F0EF01F022EF02F045C0D9FF61
:1004480046C0DAFFDE2A000EDD223FEF02F045C08B
:10045800D9FF46C0DAFFDECFF6FFDDCFF7FF080091
:10046800F550056E066A43C007F044C008F079EC01
:100478000BF022EF02F0120022C038F023C039F04E
:1004880024C03AF025C03BF026C03CF027C03DF020
:1004980028C03EF029C03FF03FBE55EF02F058EFAC
:1004A80002F0010E59EF02F0000E406E4050D8B431
:1004B80060EF02F062EF02F072EF02F03F1E3E1EA4
:1004C8003D1E3C1E3B1E3A1E391E386C000E39225A
:1004D8003A223B223C223D223E223F225CBE7FEF55
:1004E80002F05C5006E15B04D8B07DEF02F07FEFCC
:1004F80002F085EF02F0000E356E010E346E89EFC2
:1005080002F05BC034F05CC035F09CC036F09DC092
:1005180037F04050D8B493EF02F095EF02F0ACEF0B
:1005280002F03606D8A037064050D8A49EEF02F055
:10053800A0EF02F0A6EF02F0000E336E2B0E326E23
:10054800AAEF02F0000E336E2D0E326E32C040F06C
:10055800000E426E1F0E416E000E01011F6F31EF3B
:1005680003F04106D8A04206000E4124D96E010EC0
:100578004220DA6E38C003F039C004F03AC005F002
:100588003BC006F03CC007F03DC008F03EC009F093
:100598003FC00AF00A0E0B6E000E0C6E000E0D6EB8
:1005A800000E0E6E000E0F6E000E106E000E116E15
:1005B800000E126EF1EC07F003C02AF004C02BF015
:1005C80005C02CF006C02DF007C02EF008C02FF093
:1005D80009C030F00AC031F02AC015F02BC016F05F
:1005E800A7EC0CF01550300FDF6E3406D8A0350696
:1005F8003606D8A0370638C003F039C004F03AC030
:1006080005F03BC006F03CC007F03DC008F03EC016
:1006180009F03FC00AF00A0E0B6E000E0C6E000EB9
:100628000D6E000E0E6E000E0F6E000E106E000E98
:10063800116E000E126E2DEC07F003C038F004C0E6
:1006480039F005C03AF006C03BF007C03CF008C0DE
:100658003DF009C03EF00AC03FF042BE3CEF03F057
:10066800425008E14104D8A03CEF03F03EEF03F00C
:100678005AEF03F0385039103A103B103C103D1037
:100688003E103F10D8A44BEF03F04DEF03F0B5EF49
:1006980002F035BE5AEF03F0355006E13404D8B005
:1006A80058EF03F05AEF03F0B5EF02F04050D8B41A
:1006B80060EF03F062EF03F06DEF03F04106D8A09E
:1006C8004206000E4124D96E010E4220DA6E40C067
:1006D800DFFF20C015F021C016F0000E4124176E70
:1006E800010E4220186E36C019F037C01AF0C4EC5B
:1006F8000BF01200000E186E60AE85EF03F087EF66
:1007080003F013EF04F062A68CEF03F08EEF03F012
:10071800ADEF03F016C0D9FF17C0DAFF020EDF6E87
:1007280064CF03F061CF04F062CF05F06350A3EC0F
:1007380008F020EE01F01650D9261750DA2203C02F
:10074800DEFF04C0DEFF05C0DEFF06C0DEFFC6EF29
:1007580003F016C0D9FF17C0DAFF010EDF6E62CFB3
:1007680003F0615001EC0CF020EE01F01650D92690
:100778001750DA2203C0DEFF04C0DEFF05C0DEFF2B
:1007880006C0DEFF20EE05F01650D9261750DA22F3
:1007980065CFDFFF20EE06F01650D9261750DA2273
:1007A80066CFDFFF20EE07F01650D9261750DA2261
:1007B80067CFDFFF20EE08F01650D9261750DA224F
:1007C80068CFDFFF20EE09F01650D9261750DA223D
:1007D80069CFDFFF20EE0AF01650D9261750DA222B
:1007E8006ACFDFFF20EE0BF01650D9261750DA2219
:1007F8006BCFDFFF20EE0CF01650D9261750DA2207
:100808006CCFDFFF20EE0DF01650D9261750DA22F4
:100818006DCFDFFF609E010E186EA6EF04F00F018A
:1008280030AF19EF04F01BEF04F0A6EF04F032A785
:1008380020EF04F022EF04F041EF04F016C0D9FFD6
:1008480017C0DAFF020EDF6E34CF03F031CF04F0A9
:1008580032CF05F03351A3EC08F020EE01F016502A
:10086800D9261750DA2203C0DEFF04C0DEFF05C018
:10087800DEFF06C0DEFF5AEF04F016C0D9FF17C02E
:10088800DAFF010EDF6E32CF03F0315101EC0CF0CC
:1008980020EE01F01650D9261750DA2203C0DEFFE9
:1008A80004C0DEFF05C0DEFF06C0DEFF20EE05F057
:1008B8001650D9261750DA2235CFDFFF20EE06F082
:1008C8001650D9261750DA2236CFDFFF20EE07F070
:1008D8001650D9261750DA2237CFDFFF20EE08F05E
:1008E8001650D9261750DA2238CFDFFF20EE09F04C
:1008F8001650D9261750DA2239CFDFFF20EE0AF03A
:100908001650D9261750DA223ACFDFFF20EE0BF027
:100918001650D9261750DA223BCFDFFF20EE0CF015
:100928001650D9261750DA223CCFDFFF20EE0DF003
:100938001650D9261750DA223DCFDFFF0F01309F1E
:100948000FEF04F0185012005CBEB5EF04F05C50D5
:1009580006E15B04D8B0B3EF04F0B5EF04F0BBEFE9
:1009680004F0000E356E010E346EBFEF04F05BC06C
:1009780034F05CC035F09CC032F09DC033F022C02A
:1009880036F023C037F024C038F025C039F026C02F
:100998003AF027C03BF028C03CF029C03DF0000EDB
:1009A8003F6E1F0E3E6E000E01011F6F52EF05F0E5
:1009B8003E06D8A03F06000E3E24D96E010E3F2009
:1009C800DA6E36C003F037C004F038C005F039C01D
:1009D80006F03AC007F03BC008F03CC009F03DC043
:1009E8000AF00A0E0B6E000E0C6E000E0D6E000E55
:1009F8000E6E000E0F6E000E106E000E116E000EC1
:100A0800126E4BEC0AF003C02AF004C02BF005C0AC
:100A18002CF006C02DF007C02EF008C02FF009C03A
:100A280030F00AC031F02A50300FDF6E3406D8A0FB
:100A380035063206D8A0330636C003F037C004F0B6
:100A480038C005F039C006F03AC007F03BC008F0DE
:100A58003CC009F03DC00AF00A0E0B6E000E0C6E89
:100A6800000E0D6E000E0E6E000E0F6E000E106E54
:100A7800000E116E000E126ED3EC09F003C036F0B2
:100A880004C037F005C038F006C039F007C03AF0A6
:100A980008C03BF009C03CF00AC03DF03E503F1092
:100AA800D8B459EF05F05BEF05F077EF05F0365055
:100AB8003710381039103A103B103C103D10D8A4AC
:100AC80068EF05F06AEF05F0DCEF04F035BE77EF6C
:100AD80005F0355006E13404D8B075EF05F077EF2E
:100AE80005F0DCEF04F020C015F021C016F0000E70
:100AF8003E24176E010E3F20186E32C019F033C025
:100B08001AF0C4EC0BF01200B50E166E000E176E3C
:100B18007EEC03F00009D8B494EF05F096EF05F0E9
:100B280062EF06F0B6C098F0B7C099F0B8C09AF076
:100B3800B9C09BF0020E0001BA19D8A4A6EF05F0BF
:100B4800A8EF05F0BEEF05F0BD0ED46F7E0ED56F91
:100B580098C0D6F099C0D7F09AC0D8F09BC0D9F009
:100B6800BBC0DAF0DB6BBCC0DCF0DD6B2AEC0DF04F
:100B780009EF06F0060ED46F7F0ED56F98C0D6F039
:100B880099C0D7F09AC0D8F09BC0D9F0BBC0DAF0B2
:100B9800DB6B2AEC0DF009EF06F0BBC0ABF062EF9F
:100BA80006F0BBC0A9F062EF06F0BBC0A8F062EF88
:100BB80006F0BBC0B3F062EF06F0BBC0A7F062EF6F
:100BC80006F0BBC0B0F062EF06F0BBC0AFF062EF5A
:100BD80006F0BBC0B1F062EF06F0BBC0B2F062EF46
:100BE80006F0BBC0ADF062EF06F0BBC0ACF062EF40
:100BF80006F0BBC0AAF062EF06F0BBC0A6F062EF39
:100C080006F0BBC0A5F062EF06F098C0DEF099C010
:100C1800DFF09AC0E0F09BC0E1F00001E151000A6A
:100C2800D8B45BEF06F062EF06F0DF51000AD8B4E3
:100C380020EF06F062EF06F0DE51110AD8B4D1EFCA
:100C480005F0030AD8B4D5EF05F0010AD8B4D9EFF6
:100C580005F0320AD8B4DDEF05F0100AD8B4E1EF98
:100C680005F0030AD8B4E5EF05F0010AD8B4E9EFB6
:100C780005F0720AD8B401EF06F0030AD8B405EFFC
:100C880006F0130AD8B4EDEF05F0030AD8B4F1EF73
:100C980005F0010AD8B4F5EF05F0070AD8B4F9EF62
:100CA80005F0350AD8B4FDEF05F062EF06F0E05123
:100CB800000AD8B419EF06F062EF06F012005CBE25
:100CC80070EF06F05C5006E15B04D8B06EEF06F0FA
:100CD80070EF06F076EF06F0000E376E010E366EF6
:100CE8007AEF06F05BC036F05CC037F09CC032F09B
:100CF8009DC033F022C038F023C039F024C03AF048
:100D080025C03BF026C03CF027C03DF028C03EF08F
:100D180029C03FF0000E416E1F0E406E000E01010B
:100D28001F6FF2EF06F04006D8A0410638500F0BAF
:100D3800426E090E4264A3EF06F0A5EF06F0ADEF90
:100D480006F0570E4224346E356A000E3522B3EF92
:100D580006F0300E4224346E356A000E352234C057
:100D680042F0000E4024D96E010E4120DA6E42C0D6
:100D7800DFFF3606D8A037063206D8A0330638C0BB
:100D88002AF039C02BF03AC02CF03BC02DF03CC003
:100D98002EF03DC02FF03EC030F03FC031F0050EC0
:100DA800DFEF06F0D890313230322F322E322D322A
:100DB8002C322B322A32E82ED6EF06F02AC038F031
:100DC8002BC039F02CC03AF02DC03BF02EC03CF0BF
:100DD8002FC03DF030C03EF031C03FF041BEFEEFC5
:100DE80006F0415009E1020E405CD8A0FEEF06F083
:100DF80000EF07F01CEF07F0385039103A103B109D
:100E08003C103D103E103F10D8A40DEF07F00FEF37
:100E180007F097EF06F037BE1CEF07F0375006E1F2
:100E28003604D8B01AEF07F01CEF07F097EF06F07A
:100E380020C015F021C016F0000E4024176E010ED8
:100E48004120186E32C019F033C01AF0C4EC0BF010
:100E58001200000E146E12BE36EF07F034EF07F0E2
:100E680048EF07F0121E111E101E0F1E0E1E0D1E3B
:100E78000C1E0B6C000E0C220D220E220F221022CB
:100E880011221222010E146E0ABE4FEF07F04DEF29
:100E980007F061EF07F00A1E091E081E071E061E4E
:100EA800051E041E036C000E0422052206220722DA
:100EB800082209220A22010E141A20EE15F0070E44
:100EC800DE6AE806FDE20B500C100D100E100F1034
:100ED800101011101210D8B474EF07F076EF07F065
:100EE800C8EF07F0010E136E84EF07F0D8900B36A9
:100EF8000C360D360E360F36103611361236132ACA
:100F080012AE89EF07F08BEF07F07AEF07F0D89071
:100F1800153616361736183619361A361B361C3655
:100F28000B50035C0C5004580D5005580E500658D1
:100F38000F500758105008581150095812500A58A5
:100F4800D8A0A9EF07F0ABEF07F0BCEF07F00B5004
:100F5800035E0C50045A0D50055A0E50065A0F5095
:100F6800075A1050085A1150095A12500A5A158037
:100F7800D8901232113210320F320E320D320C323A
:100F88000B32132E8BEF07F01450D8B4CEEF07F0C6
:100F9800D0EF07F0E0EF07F01C1E1B1E1A1E191EEB
:100FA800181E171E161E156C000E16221722182260
:100FB80019221A221B221C2215C003F016C004F0A5
:100FC80017C005F018C006F019C007F01AC008F0DD
:100FD8001BC009F01CC00AF01200000E146E0ABEF5
:100FE800FAEF07F0F8EF07F00CEF08F00A1E091EF9
:100FF800081E071E061E051E041E036C000E042292
:10100800052206220722082209220A22010E146E4E
:1010180012BE13EF08F011EF08F023EF08F0121ECC
:10102800111E101E0F1E0E1E0D1E0C1E0B6C000E28
:101038000C220D220E220F221022112212220B50F6
:101048000C100D100E100F10101011101210D8B433
:1010580030EF08F032EF08F07AEF08F0010E136E67
:1010680040EF08F0D8900B360C360D360E360F369A
:10107800103611361236132A12AE45EF08F047EF34
:1010880008F036EF08F00B50035C0C5004580D5074
:1010980005580E5006580F50075810500858115050
:1010A800095812500A58D8A05CEF08F05EEF08F013
:1010B8006EEF08F00B50035E0C50045A0D50055AA1
:1010C8000E50065A0F50075A1050085A1150095A14
:1010D80012500A5AD8901232113210320F320E3290
:1010E8000D320C320B32132E47EF08F01450D8B4DF
:1010F80080EF08F082EF08F092EF08F00A1E091E50
:10110800081E071E061E051E041E036C000E042280
:10111800052206220722082209220A2203C003F018
:1011280004C004F005C005F006C006F007C007F0CB
:1011380008C008F009C009F00AC00AF012000B6ED6
:10114800000E126E000E136E000E146E000E156E59
:101158000550030B106E0538E842070B116E04505A
:10116800076E086AD89007360836D89007360836CA
:10117800D8900736083607C012F008C013F0000EE2
:1011880013BEFF0E146E156E11501224126E000E4F
:101198001320136E000E1420146E000E1520156E09
:1011A80012C007F013C008F014C009F015C00AF007
:1011B800020ED8900736083609360A36E82EDDEFD3
:1011C80008F007C012F008C013F009C014F00AC0F4
:1011D80015F010501224126E000E1320136E000E1C
:1011E8001420146E000E1520156E12C008F013C0DE
:1011F80009F014C00AF0076A07C012F008C013F01B
:1012080009C014F00AC015F00B501224126E000E1B
:101218001320136E000E1420146E000E1520156E88
:1012280012C008F013C009F014C00AF0076A07C01A
:1012380012F008C013F009C014F00AC015F00350EA
:101248001224126E000E1320136E000E1420146E5A
:10125800000E1520156E12C00CF013C00DF014C04E
:101268000EF015C00FF00CC003F00DC004F00EC056
:1012780005F00FC006F01200F10E0001D46F7E0ECB
:10128800D56FABC0D6F0D76B2AEC0DF0660E000117
:10129800D46F7F0ED56FA9C0D6F0D76B2AEC0DF0AE
:1012A800790E0001D46F7F0ED56FA8C0D6F0D76B2A
:1012B8002AEC0DF0EB0E0001D46F7F0ED56FB3C092
:1012C800D6F0D76B2AEC0DF01A0E0001D46F7F0E02
:1012D800D56FA751D66FD76BD6BFD7072AEC0DF0BD
:1012E800D80E0001D46F7F0ED56FAFC0D6F0D76B84
:1012F8002AEC0DF0530E0001D46F7F0ED56FB0C0ED
:10130800D6F0D76B2AEC0DF0400E0001D46F7F0E9B
:10131800D56FA651D66FD76BD6BFD7072AEC0DF07D
:101328002D0E0001D46F7F0ED56FA551D66FD76BE8
:10133800D6BFD7072AEC0DF0C50E0001D46F7F0E7B
:10134800D56FB1C0D6F0D76B2AEC0DF0B20E000104
:10135800D46F7F0ED56FB2C0D6F0D76B2AEC0DF0E4
:101368009F0E0001D46F7F0ED56FADC0D6F0D76B3E
:101378002AEC0DF08C0E0001D46F7F0ED56FACC037
:10138800D6F0D76B2AEC0DF0DA0E0001D46F7E0E82
:10139800D56FAAC0D6F0D76B2AEC0DF0120020EE5C
:1013A80013F0070EDE6AE806FDE20B500C100D1074
:1013B8000E100F10101011101210D8B4E6EF09F02B
:1013C800E8EF09F03AEF0AF0010E1B6EF6EF09F0AC
:1013D800D8900B360C360D360E360F3610361136C1
:1013E80012361B2A12AEFBEF09F0FDEF09F0ECEF05
:1013F80009F0D890133614361536163617361836BF
:1014080019361A360B50035C0C5004580D50055809
:101418000E5006580F5007581050085811500958C8
:1014280012500A58D8A01BEF0AF01DEF0AF02EEF51
:101438000AF00B50035E0C50045A0D50055A0E501A
:10144800065A0F50075A1050085A1150095A12508C
:101458000A5A1380D8901232113210320F320E32DB
:101468000D320C320B321B2EFDEF09F013C003F0C6
:1014780014C004F015C005F016C006F017C007F038
:1014880018C008F019C009F01AC00AF012000B5071
:101498000C100D100E100F10101011101210D8B4DF
:1014A80058EF0AF05AEF0AF0A2EF0AF0010E136E95
:1014B80068EF0AF0D8900B360C360D360E360F361C
:1014C800103611361236132A12AE6DEF0AF06FEF8E
:1014D8000AF05EEF0AF00B50035C0C5004580D50F4
:1014E80005580E5006580F500758105008581150FC
:1014F800095812500A58D8A084EF0AF086EF0AF06B
:1015080096EF0AF00B50035E0C50045A0D50055A22
:101518000E50065A0F50075A1050085A1150095ABF
:1015280012500A5AD8901232113210320F320E323B
:101538000D320C320B32132E6FEF0AF003C003F09A
:1015480004C004F005C005F006C006F007C007F0A7
:1015580008C008F009C009F00AC00AF01200800E9D
:101568006F6E6E50E00B800AD8A4BDEF0AF0BFEF93
:101578000AF0B5EF0AF0000E726E200E706E0E01C2
:10158800FA69FB69F869E30EF96FFE69FF69FC699E
:10159800E30EFD6F000EE26F000EE36F400EE06F8A
:1015A800000EE16F000EE66F000EE76F000EE46FAD
:1015B800000EE56F000EEA6F000EEB6F000EE86F8D
:1015C800000EE96F000EEE6F000EEF6F000EEC6F6D
:1015D800000EED6F000EF26F000EF36F000EF06F4D
:1015E800000EF16F000EF66F000EF76F000EF46F2D
:1015F800000EF56F310E436FA80E446F010E456F54
:101608002C0E036E1B0E046E89EC0DF0779C768C05
:10161800000E6F6E6ECF05F0E00E0516D8A417EF1A
:101628000BF019EF0BF00EEF0BF012004EEC0DF073
:10163800F28EF28CDE0E036E1A0E046E75EC0DF04F
:10164800600E606E010E0001656F210E616F000E65
:10165800626F000E636F000E646F010E736F110EE0
:101668006F6F000E706F000E716F000E726F010EBB
:10167800816F540E7D6F000E7E6F000E7F6F000E1F
:10168800806F040E8F6F440E8B6F000E8C6F000EF0
:101698008D6F000E8E6F88EC05F00001A005A1117A
:1016A800D8A459EF0BF05BEF0BF065EF0BF0000ED1
:1016B800A16F000EA06F010E746F010E826F010EF4
:1016C800666F640E9E199F11D8A46DEF0BF06FEF33
:1016D8000BF04FEF0BF0000E9F6F000E9E6F40EC6B
:1016E80009F04FEF0BF03AEF00F007500810D8B4AC
:1016F80080EF0BF082EF0BF08BEF0BF00750081028
:10170800D8A489EF0BF08BEF0BF090EF0BF005509E
:101718008EEC0DF0C3EF0BF020EE09F00750D92640
:101728000850DA22DE50DE10D8B49DEF0BF09FEFA0
:101738000BF0BAEF0BF020EE09F00750D92608504D
:10174800DA2210EE03F00750E1260850E222DE50BC
:10175800E65CE650800A0D6EDE50800A0D58D8B05F
:10176800B8EF0BF0BAEF0BF0C3EF0BF020EE03F07D
:101778000750D9260850DA22DE2A000EDD22120090
:101788001ABEC9EF0BF0CBEF0BF0D1EF0BF019C07D
:101798001EF01AC01FF0D5EF0BF0000E1F6E000EE2
:1017A8001E6E000E1D6E000E1C6EE7EF0BF0000E95
:1017B800066E200E056E15C007F016C008F079EC0D
:1017C8000BF01C4A1D2A1E501C5C1D50800A1B6E03
:1017D8001F50800A1B58D8A0F4EF0BF0F6EF0BF05F
:1017E800DBEF0BF017C00EF018C00FF015C010F0AB
:1017F80016C011F065EC0CF01200096E0950076E66
:10180800086AD89007360836D89007360836D89030
:101818000736083607C00EF008C00FF0000E0FBEDE
:10182800FF0E106E116E03C007F0050E086ED890FB
:101838000732082E1BEF0CF007500E240E6E000E18
:101848000F200F6E000E1020106E000E1120116E6A
:101858000EC00AF00FC00BF010C00CF011C00DF054
:101868000AC003F00BC004F00CC005F00DC006F070
:101878001200D0C057F0D1C058F051EF0CF0CEC0D4
:1018880043F0CFC044F0570E456E000E466ED2C0EE
:1018980047F0D3C048F03CEC00F057C0F6FF58C002
:1018A800F7FF0800F5500009D8A45DEF0CF05FEFD2
:1018B8000CF043EF0CF0000E0001CF6F000ECE6F5E
:1018C8001200000E146E000E136E76EF0CF012C0AC
:1018D80005F0066A10C007F011C008F079EC0BF0AB
:1018E800134A142A13500E24D96E14500F20DA6E9E
:1018F800DF50126E1250D8A484EF0CF086EF0CF073
:101908006BEF0CF01200080EA76E900EAB6E240E53
:10191800AC6E2A0EAF6E000E7D6E000E036E000ECA
:10192800046E7FEC0DF0000E036E000E046E7AEC70
:101938000DF0000E036E000E046E84EC0DF0000E28
:101948000001B46F120016BEB4EF0CF0165006E199
:101958001504D8B0B2EF0CF0B4EF0CF0C2EF0CF0F5
:1019680015C017F016C018F0171E181E174A182AA7
:1019780017C015F018C016F0C6EF0CF015C015F01A
:1019880016C016F01200F2940001E951D76EE8C0B3
:10199800D6FFEA51EB11D8B4D4EF0CF0D6EF0CF027
:1019A800E3EF0CF002D8E3EF0CF00500FA6EEA5111
:1019B800FD6EEB51FE6EF850FF6EFA5012001200E9
:1019C800D59C0B0ED76EDB0ED66ED650D7CF05F052
:1019D800066A05C006F0056A05100001E86F0650A2
:1019E800E96FF294F28A2A0E036E1B0E046E75ECF0
:1019F8000DF0910ED56E120001EE00F0200EEE6A89
:101A0800E806FDE100EE60F0630EEE6AE806FDE12F
:101A18005C6A5B6A5D905D92000EF86E00011AEFD9
:101A28000BF0000E896E000E8A6E000E8B6EEF0EA4
:101A3800926EFB0E936EBF0E946E1F0E0F015D6FBC
:101A4800070E5C6F000E5B6FF18E1200D60E596E9A
:101A5800000E5A6E000E0001CE6F000ECF6FD4C07C
:101A6800D0F0D5C0D1F0590ED26F000ED36F3DEC37
:101A78000CF0120002D84CEF0DF005000001FA6ED0
:101A8800A251FD6EA351FE6EF850FF6EFA5012007F
:101A9800779C120093EC0DF015EC0DF066EC0DF050
:101AA800E4EC0CF087EC0CF0B3EC0AF01200036ED7
:101AB8009EA861EF0DF063EF0DF05CEF0DF003C031
:101AC800ADFF1200600ED36E000ED26E000E9B6E3C
:101AD800000E9A6E12000001A04BA12B9E4B9F2B6B
:101AE800120003C0EAF004C0EBF0120003C0E4F0F7
:101AF80004C0E5F0120003C0E6F004C0E7F01200ED
:101B080003C0E2F004C0E3F0120003C0A2F004C076
:101B1800A3F01200046E04505BEC0DF01200D09E8E
:061B280012001200120081
:107EBC00000A0D2049443A256C78204461746130E5
:107ECC0020257820446174613120257820000A0D2A
:107EDC00204C756D20427269736520202020257816
:107EEC000A0D0A0D000A0D0A0D2044656D617272AF
:107EFC00652020202020202578000A0D2049443AB6
:107F0C00256C7820446174613020257820000A0D9E
:107F1C002056697465737365202020202020256904
:107F2C00000A0D20436F6E7369676E652054202024
:107F3C00202569000A0D2054656D70657261747599
:107F4C00726520202569000A0D20436F6D6D616EEE
:107F5C00646520202020202575000A0D20436C65C7
:107F6C00652020202020202020202578000A0D20AC
:107F7C005665726F75696C6C652020202025780021
:107F8C000A0D204C756D69657265732045202020A3
:107F9C002578000A0D204C756D6965726573204952
:107FAC002020202578000A0D20436C69676E6F74C1
:107FBC00616E742044202578000A0D20436C69679B
:107FCC006E6F74616E742047202578000A0D204472
:107FDC006961676E6F737469717565202578000A25
:107FEC000D205472616E736D697373696F6E202509
:037FFC007800000A
:020000040020DA
:08000000FFFFFFFFFFFFFFFF00
:020000040030CA
:0E00000015027F7CFF8991FF0FC00FE00F40BB
:00000001FF
