:040000002EEF1EF0D1
:10100000000A0D202D2D2D2D2054656D7065726107
:1010100074757265203D202566202D2D2D2D200A0A
:101020000D000A0D202D2D2D2D205265736973742E
:10103000616E636520203D202566202D2D2D2D20FD
:10104000000A0D202D2D2D2D2054656E73696F6EB5
:1010500020726573203D202566202D2D2D2D20002A
:101060000A0D202D2D2D2D205245534554202D2D78
:0F1070002D2D200A0D00696E66006E616E000066
:10108000000E00018A6F62C08DF063C08EF064C0F4
:101090008FF065C090F090BF52EF08F050EF08F06D
:1010A00066EF08F0010E8A6F8DC001F08EC002F06D
:1010B0008FC003F090C004F013EC1FF001C08DF05E
:1010C00002C08EF003C08FF004C090F0000E00014B
:1010D0008C6F000E8B6FD6C07AF0D7C07BF08A5130
:1010E000D8B475EF08F077EF08F08BEF08F08A516D
:1010F000D8A47DEF08F07FEF08F085EF08F0000E30
:10110000706F2B0E6F6F89EF08F0000E706F2D0E51
:101110006F6F6FC08AF08DC001F08EC002F08FC07B
:1011200003F090C004F04EEC1CF001040210D8A4AF
:101130009CEF08F09EEF08F0D1EF08F000018A5113
:10114000D8B4A5EF08F0A7EF08F0B0EF08F08AC018
:1011500000F17A07D8A07B07000E8C6F010E8B6F11
:10116000000E8B25016E010E8C21026E760E036E31
:10117000100E046E97EC1EF00001FD0E7A27FF0E94
:101180007B2360C013F061C014F0000E156E010ED9
:10119000166E7AC017F07BC018F06DEC1DF04FEFA3
:1011A0000DF08DC001F08EC002F08FC003F090C032
:1011B00004F04EEC1CF001500210D8A4E2EF08F04D
:1011C000E4EF08F017EF09F000018A51D8B4EBEF13
:1011D00008F0EDEF08F0F6EF08F08AC000F17A07AA
:1011E000D8A07B07000E8C6F010E8B6F000E8B2535
:1011F000016E010E8C21026E7A0E036E100E046ECB
:1012000097EC1EF00001FD0E7A27FF0E7B2360C0D5
:1012100013F061C014F0000E156E010E166E7AC048
:1012200017F07BC018F06DEC1DF04FEF0DF0000EC5
:101230000001916F000E926F800E936F3F0E946FBE
:10124000000E796F000E786F8DC001F08EC002F035
:101250008FC003F090C004F0000E056E000E066E05
:10126000000E076E000E086ECDEC1CF0D8B03BEF00
:1012700009F03DEF09F01CEF0AF04AEF09F07CC0DD
:1012800091F07DC092F07EC093F07FC094F0000199
:10129000784B792B91C019F092C01AF093C01BF0D3
:1012A00094C01CF0000E1D6E000E1E6E200E1F6EF0
:1012B000410E206E0CEC12F019C07CF01AC07DF0CB
:1012C0001BC07EF01CC07FF000017C518D5D016E63
:1012D0007D518E59026E7E518F59036E7F51905908
:1012E000046EAAEC1DF004BE81EF09F00450031057
:1012F000021009E1020E015CD8A081EF09F083EF32
:1013000009F03FEF09F07CC032F07DC033F07EC0C1
:1013100034F07FC035F08DC036F08EC037F08FC00E
:1013200038F090C039F0CCEC1BF0D8A09AEF09F05F
:101330009CEF09F03FEF09F0000191518D5D016EC6
:1013400092518E59026E93518F59036E9451905958
:10135000046EAAEC1DF004BEBBEF09F004500310AC
:10136000021007E1020E015CD8B0B9EF09F0BBEF43
:1013700009F003EF0AF091C08DF092C08EF093C097
:101380008FF094C090F01CEF0AF091C032F092C040
:1013900033F093C034F094C035F0000E366E000E7A
:1013A000376E200E386E410E396E21EC14F032C0CB
:1013B00091F033C092F034C093F035C094F0000146
:1013C0007807D8A0790791518D5D016E92518E59A1
:1013D000026E93518F59036E94519059046EAAEC8A
:1013E0001DF004BE01EF0AF004500310021007E1E3
:1013F000020E015CD8B0FFEF09F001EF0AF003EF35
:101400000AF0BBEF09F08DC032F08EC033F08FC010
:1014100034F090C035F091C036F092C037F093C0F0
:1014200038F094C039F0CCEC1BF0D8A01AEF0AF0D9
:101430001CEF0AF0C5EF09F066C072F072C073F0DD
:101440000001D9BF26EF0AF028EF0AF02EEF0AF0CC
:10145000D8C06BF0D9C06CF032EF0AF0000E6C6FA0
:10146000060E6B6F6BC076F06CC077F0764B772B07
:10147000660E7319D8A43FEF0AF041EF0AF061EF4E
:101480000AF079BF48EF0AF046EF0AF054EF0AF08D
:10149000000E916F000E926F800E936F3F0E946F4F
:1014A000000E796F000E786F670E7219D8B45BEF7B
:1014B0000AF05DEF0AF061EF0AF078517627795172
:1014C0007723000E816F000E806F8DC082F08EC07A
:1014D00083F08FC084F090C085F091C07CF092C002
:1014E0007DF093C07EF094C07FF0F2EF0AF082C0EE
:1014F00032F083C033F084C034F085C035F091C041
:1015000036F092C037F093C038F094C039F021EC37
:1015100014F032C04BF033C04CF034C04DF035C045
:101520004EF086EC18F04BC086F04CC087F04DC0F2
:1015300088F04EC089F086C001F087C002F088C0F4
:1015400003F089C004F049EC1BF001C074F002C044
:1015500075F082C011F083C012F084C013F085C012
:1015600014F086C01DF087C01EF088C01FF089C02F
:1015700020F091C019F092C01AF093C01BF094C0F3
:101580001CF00CEC12F019C015F01AC016F01BC0BC
:1015900017F01CC018F052EC1EF011C082F012C0FF
:1015A00083F013C084F014C085F091C032F092C073
:1015B00033F093C034F094C035F0000E366E000E58
:1015C000376E200E386E410E396E21EC14F032C0A9
:1015D00091F033C092F034C093F035C094F0000124
:1015E000804B812B7651805D8151800A676F7751E6
:1015F000800A6759D8A0FFEF0AF001EF0BF077EFF0
:101600000AF091C019F092C01AF093C01BF094C078
:101610001CF0000E1D6E000E1E6EA00E1F6E400E02
:10162000206E0CEC12F019C086F01AC087F01BC0B7
:1016300088F01CC089F082C032F083C033F084C0CF
:1016400034F085C035F086C036F087C037F088C0EA
:1016500038F089C039F0CCEC1BF0D8B032EF0BF089
:1016600034EF0BF03FEF0BF0000E0001866F000E21
:10167000876F000E886F000E896F68EF0BF082C0D5
:1016800001F083C002F084C003F085C004F086C07E
:1016900005F087C006F088C007F089C008F0CDECDF
:1016A0001CF0D8A056EF0BF058EF0BF068EF0BF0E2
:1016B000000174B15EEF0BF060EF0BF068EF0BF020
:1016C000000E866F000E876F000E886F000E896F08
:1016D0008DC001F08EC002F08FC003F090C004F006
:1016E00086C005F087C006F088C007F089C008F002
:1016F00050EC0DF001C082F002C083F003C084F012
:1017000004C085F082C032F083C033F084C034F06E
:1017100085C035F0000E1D6E000E1E6E200E1F6E71
:10172000410E206E7CC019F07DC01AF07EC01BF007
:101730007FC01CF00CEC12F019C036F01AC037F064
:101740001BC038F01CC039F0CCEC1BF0D8A0ABEFBC
:101750000BF0ADEF0BF0D6EF0BF00001784B792BCF
:101760007CC019F07DC01AF07EC01BF07FC01CF059
:10177000000E1D6E000E1E6E200E1F6E410E206E9E
:101780000CEC12F019C07CF01AC07DF01BC07EF08A
:101790001CC07FF0660E00017319D8A4D2EF0BF0C5
:1017A000D4EF0BF0D6EF0BF0764B772B7CC091F09B
:1017B0007DC092F07EC093F07FC094F078C069F055
:1017C00079C06AF0000E0001716F000E6E6F000E9E
:1017D0006D6F000E816F000E806FD4EF0CF082C031
:1017E00032F083C033F084C034F085C035F091C04E
:1017F00036F092C037F093C038F094C039F021EC45
:1018000014F032C04BF033C04CF034C04DF035C052
:101810004EF086EC18F04BC086F04CC087F04DC0FF
:1018200088F04EC089F086C001F087C002F088C001
:1018300003F089C004F049EC1BF002BE2BEF0CF062
:10184000025007E10A0E015CD8B029EF0CF02BEF33
:101850000CF03BEF0CF086C001F087C002F088C0AE
:1018600003F089C004F049EC1BF001C074F002C021
:1018700075F040EF0CF0000E0001756F090E746FEB
:1018800000017151D8A447EF0CF049EF0CF071EF53
:101890000CF06ABF50EF0CF04EEF0CF071EF0CF053
:1018A000000E8B25D96E010E8C21DA6E2E0EDF6EA6
:1018B0008B4B8C2B7A07D8A07B07010E716F71EFD1
:1018C0000CF0000E8B25D96E010E8C21DA6E300ED5
:1018D000DF6E8B4B8C2B7A07D8A07B076D07D8A0C7
:1018E0006E076D516E11D8A478EF0CF07AEF0CF002
:1018F00061EF0CF0000E8B25D96E010E8C21DA6E93
:101900007451300FDF6E8B4B8C2B7A07D8A07B077E
:1019100082C011F083C012F084C013F085C014F0AF
:1019200086C01DF087C01EF088C01FF089C020F05F
:1019300091C019F092C01AF093C01BF094C01CF033
:101940000CEC12F019C015F01AC016F01BC017F0FD
:101950001CC018F052EC1EF011C082F012C083F0CF
:1019600013C084F014C085F091C032F092C033F0FF
:1019700093C034F094C035F0000E366E000E376E12
:10198000200E386E410E396E21EC14F032C091F009
:1019900033C092F034C093F035C094F00001690771
:1019A000D8A06A07804B812B7651805D8151800AD7
:1019B000676F7751800A6759D8B0E1EF0CF0E3EF19
:1019C0000CF0F1EF0CF08CBFEFEF0CF08C5109E153
:1019D0004B0E8B5DD8A0EFEF0CF0F1EF0CF0EFEFBA
:1019E0000BF0000E816F4F0E806F000E8025D96EB8
:1019F000010E8121DA6E000EDF6E000E676F010EA0
:101A0000686F8B51675F8C51685B80516725016EF1
:101A100081516821026E000E036E010E046E8BC0B0
:101A200005F08CC006F006EC1EF000018B51805DC5
:101A30008B6F8C5181598C6F8A51D8A422EF0DF095
:101A400025EF0DF0010E26EF0DF0000E806F816B7B
:101A50008A51D8B42EEF0DF030EF0DF03BEF0DF0C2
:101A60008B07D8A08C07000E8B25D96E010E8C2118
:101A7000DA6E8AC0DFFF80517A5F81517B5B60C084
:101A800013F061C014F0000E8B25156E010E8C2131
:101A9000166E7AC017F07BC018F06DEC1DF01200C6
:101AA0000450800B0D6E045004240F6E03AE5BEFE8
:101AB0000DF05DEF0DF05EEF0DF00F800F50D8B41C
:101AC00064EF0DF066EF0DF07BEF0DF00F28D8A45A
:101AD0006CEF0DF06EEF0DF076EF0DF0000E016E75
:101AE000000E026E000E036E000E046E038E000EDA
:101AF000046E83EF0DF0000E016E000E026E000EFC
:101B0000036E000E046E0850800B0E6E0D500E1802
:101B1000D8B48DEF0DF08FEF0DF090EF0DF00D8C30
:101B2000085008240E6E07AE98EF0DF09AEF0DF0F6
:101B30009BEF0DF00E800E50D8B4A1EF0DF0A3EF87
:101B40000DF0B8EF0DF00E28D8A4A9EF0DF0ABEF13
:101B50000DF0B3EF0DF0000E056E000E066E000ED8
:101B6000076E000E086E078E000E086EC0EF0DF0B7
:101B7000000E056E000E066E000E076E000E086E5B
:101B80000F500E5CD8B0C7EF0DF0C9EF0DF0F0EFBD
:101B90000DF00DACCEEF0DF0D0EF0DF0D2EF0DF05B
:101BA000800E0D1A0FC010F00EC00FF010C00EF016
:101BB00001C010F005C001F010C005F002C010F027
:101BC00006C002F010C006F003C010F007C003F01A
:101BD00010C007F004C010F008C004F010C008F0F6
:101BE000000E106E0F500EC009F00A6A095E000E5A
:101BF0000A5A0ABE05EF0EF00A5009E11A0E095CF6
:101C0000D8A005EF0EF007EF0EF03EEF0EF00150FA
:101C1000021003100410D8A410EF0EF013EF0EF012
:101C2000010E14EF0EF0000E106E000E016E000E8D
:101C3000026E000E036E000E046E0EC00FF047EF32
:101C40000EF010A026EF0EF028EF0EF02EEF0EF0A3
:101C5000D89010300109106E30EF0EF0D89010328D
:101C600001A035EF0EF037EF0EF038EF0EF0108ECA
:101C7000043404320332023201320F2A0E500F5C58
:101C8000D8A045EF0EF047EF0EF021EF0EF00DBC9F
:101C90004CEF0EF04EEF0EF08EEF0EF00F50D8A47A
:101CA00054EF0EF056EF0EF060EF0EF0000E016EE6
:101CB000000E026E000E036E000E046EAFEF0FF00A
:101CC0000550012606500222075003220850042224
:101CD00004A06DEF0EF06FEF0EF01BEF0FF010A0F1
:101CE00074EF0EF076EF0EF07CEF0EF0D89010301F
:101CF0000109106E7EEF0EF0D890103201A083EF34
:101D00000EF085EF0EF086EF0EF0108E04340432E4
:101D10000332023201320F2A1BEF0FF00550015C33
:101D200006500258075003580450800A096E0850A4
:101D3000800A0958D8B09FEF0EF0A1EF0EF0CCEF5B
:101D40000EF00150055C096E025006580A6E0350F1
:101D500007580B6E045008580C6EFF0E0924016ED4
:101D6000FF0E0A20026EFF0E0B20036EFF0E0C20EA
:101D7000046E800E0D1A106C1050D8A4C2EF0EF035
:101D8000C4EF0EF0D4EF0EF0010E0126000E022279
:101D900003220422D4EF0EF00550015E0650025AD1
:101DA0000750035A0850045A01500210031004103F
:101DB000D8A4DDEF0EF0DFEF0EF014EF0FF01050AF
:101DC000D8A4E5EF0EF0E7EF0EF014EF0FF0000EE1
:101DD000016E000E026E000E036E000E046EAFEF79
:101DE0000FF0D890013602360336043610AEFBEF02
:101DF0000EF0FDEF0EF0FEEF0EF0018010A003EFED
:101E00000FF005EF0FF009EF0FF0D88010360BEF51
:101E10000FF0D89010360F50D8B411EF0FF013EF29
:101E20000FF014EF0FF00F0603AE19EF0FF01BEFDA
:101E30000FF0F1EF0EF0000E0E6E10AE22EF0FF06D
:101E400024EF0FF03CEF0FF010C009F07F0E0916E1
:101E5000D8B42DEF0FF02FEF0FF033EF0FF0010E8E
:101E60000E6E3CEF0FF001A038EF0FF03AEF0FF0DD
:101E70003CEF0FF02FEF0FF00E50D8B442EF0FF001
:101E800044EF0FF06FEF0FF0010E0126000E02225B
:101E90000322042204A04FEF0FF051EF0FF06FEF79
:101EA0000FF001C009F002C00AF003C00BF004C03B
:101EB0000CF00C340C320B320A32093209C001F03A
:101EC0000AC002F00BC003F00CC004F00F28D8B415
:101ED0006CEF0FF06EEF0FF06FEF0FF00F2A0F287F
:101EE000D8B475EF0FF077EF0FF07FEF0FF00F50D2
:101EF000D8A47DEF0FF07FEF0FF091EF0FF0000E01
:101F0000016E000E026E000E036E000E046E0F5086
:101F1000D8A48DEF0FF08FEF0FF091EF0FF0000EC0
:101F20000D6E0FA096EF0FF098EF0FF09BEF0FF0F4
:101F3000038E9CEF0FF0039ED8900F30046E0DAE11
:101F4000A4EF0FF0A6EF0FF0A7EF0FF0048E01C083
:101F500001F002C002F003C003F004C004F012005C
:101F6000B89EA042000048C26666A142000044C27A
:101F70003333A242000040C20000A34200003CC232
:101F8000AEC7A342000038C27B94A442000034C212
:101F90004861A542000030C2F628A64200002CC2CB
:101FA000C3F5A642000028C271BDA742000024C2AA
:101FB0003D8AA842000020C20A57A94200001CC264
:101FC000B81EAA42000018C285EBAA42000014C243
:101FD00033B3AB42000010C20080AC4200000CC220
:101FE000AE47AD42000008C27B14AE42000004C2FE
:101FF00029DCAE42000000C2F6A8AF420000F8C1E2
:10200000A470B0420000F0C1713DB1420000E8C1CF
:102010001F05B2420000E0C1CDCCB2420000D8C1E1
:102020009A99B3420000D0C14861B4420000C8C1CF
:10203000142EB5420000C0C1C3F5B5420000B8C1BE
:1020400071BDB6420000B0C13D8AB7420000A8C1D0
:10205000EC51B8420000A0C19A19B942000098C1E1
:1020600066E6B942000090C114AEBA42000088C1D1
:10207000C375BB42000080C1713DBC42000070C10D
:102080003D0ABD42000060C1ECD1BD42000050C11C
:102090009A99BE42000040C14861BF42000030C171
:1020A000142EC042000020C1C3F5C042000010C180
:1020B00071BDC142000000C11F85C2420000E0C0E6
:1020C000CD4CC3420000C0C07B14C4420000A0C07D
:1020D00048E1C442000080C0F6A8C542000040C0EC
:1020E000A470C642000000C05238C742000080BF42
:1020F0000000C84200000000AEC7C8420000803F98
:102100005C8FC942000000400A57CA4200004040AC
:10211000B81ECB420000804066E6CB420000A040E3
:1021200014AECC420000C040C375CD420000E04078
:10213000713DCE42000000411F05CF42000010411A
:10214000CDCCCF42000020417B94D04200003041F2
:10215000295CD14200004041D723D24200005041C7
:1021600085EBD2420000604133B3D342000070419E
:10217000E17AD442000080418F42D542000088417C
:102180003D0AD64200009041CDCCD6420000984195
:102190007B94D7420000A041295CD8420000A841AE
:1021A000D723D9420000B04185EBD9420000B841A5
:1021B00033B3DA420000C041C375DB420000C841BE
:1021C000713DDC420000D0411F05DD420000D841D6
:1021D000CDCCDD420000E0417B94DE420000E841CE
:1021E0000A57DF420000F041B81EE0420000F8410B
:1021F00066E6E04200000042F6A8E1420000044228
:10220000A470E242000008425238E34200000C424F
:102210000000E442000010428FC2E4420000144279
:102220003D8AE54200001842CD4CE64200001C42C7
:102230007B14E7420000204229DCE74200002442F0
:10224000B89EE842000028426666E94200002C423F
:10225000F628EA4200003042A4F0EA42000034428C
:1022600052B8EB4200003842E17AEC4200003C42B6
:102270008F42ED42000040421F05EE420000444202
:10228000CDCCEE42000048425C8FEF4200004C4251
:102290000A57F042000050429A19F142000054429D
:1022A00048E1F14200005842D7A3F24200005C42EC
:1022B000856BF34200006042142EF4420000644239
:1022C000A4F0F4420000684252B8F54200006C42AB
:1022D000E17AF642000070428F42F74200007442F9
:1022E0001F05F84200007842AEC7F84200007C4269
:1022F0005C8FF94200008042EC51FA4200008242B9
:102300007B14FB420000844229DCFB420000864231
:10231000B89EFC42000088424861FD4200008A42AB
:10232000F628FE4200008C4285EBFE4200008E4201
:1023300014AEFF4200009042523800430000924227
:10234000299C00430000944271FD00430000964226
:10235000B85E01430000984200C0014300009A4269
:102360004821024300009C421F85024300009E4218
:1023700066E602430000A042AE4703430000A242CB
:10238000F6A803430000A4423D0A04430000A6420D
:10239000856B04430000A842CDCC04430000AA4250
:1023A000142E05430000AC42EC9105430000AE4200
:1023B00033F305430000B0427B5406430000B242B1
:1023C000C3B506430000B4420A1707430000B642F3
:1023D000527807430000B8429AD907430000BA4236
:1023E000E13A08430000BC42299C08430000BE4279
:1023F00071FD08430000C042B85E09430000C242BC
:1024000000C009430000C44248210A430000C642FC
:102410008F820A430000C8421C50800B256E1C505E
:102420001C242B6E1BAE17EF12F019EF12F01AEFEF
:1024300012F02B802B50D8B420EF12F022EF12F0C4
:1024400035EF12F02B28D8A428EF12F02AEF12F063
:1024500032EF12F0000E196E000E1A6E000E1B6E97
:10246000000E1C6E1B8E3DEF12F0000E196E000E5A
:102470001A6E000E1B6E000E1C6E2050800B251A6B
:10248000205020242A6E1FAE48EF12F04AEF12F0BF
:102490004BEF12F02A802A50D8B451EF12F053EFCC
:1024A00012F066EF12F02A28D8A459EF12F05BEF71
:1024B00012F063EF12F0000E1D6E000E1E6E000E85
:1024C0001F6E000E206E1F8E6EEF12F0000E1D6E3E
:1024D000000E1E6E000E1F6E000E206E2A50D8B425
:1024E00074EF12F076EF12F07EEF12F02B50D8A4BA
:1024F0007CEF12F07EEF12F088EF12F0000E196EF2
:10250000000E1A6E000E1B6E000E1C6E20EF14F0F3
:102510001F501902F3CF30F0F4CF31F03050266E57
:10252000276A286A296A31502C6E2D6A2E6A2F6A12
:102530001E501A02F3CF30F0F4CF31F0305026267F
:10254000000E27222822292231502C26000E2D226F
:102550002E222F221D501B02F3CF30F0F4CF31F08A
:1025600030502626000E27222822292231502C26E0
:10257000000E2D222E222F2228C029F027C028F05D
:1025800026C027F0266A1D501A02F3CF30F0F4CF90
:1025900031F03050262631502722000E2822000E1E
:1025A00029221E501902F3CF30F0F4CF31F0305011
:1025B000262631502722000E2822000E292228C06C
:1025C00029F027C028F026C027F0266A1D501902DE
:1025D000F3CF30F0F4CF31F030502626315027229F
:1025E000000E2822000E29221F501A02F3CF30F0CD
:1025F000F4CF31F030502C2631502D22000E2E22F7
:10260000000E2F221E501B02F3CF30F0F4CF31F01A
:1026100030502C2631502D22000E2E22000E2F225B
:102620001F501B02F3CF30F0F4CF31F03050216E49
:102630003150226E236A246A23C024F022C023F082
:1026400021C022F0216A21502C2622502D22235015
:102650002E2224502F2226C021F027C022F028C08D
:1026600023F029C024F0190E3BEF13F0D890243248
:10267000233222322132E82E36EF13F021502C265D
:1026800022502D2223502E2224502F2228C029F000
:1026900027C028F026C027F0266A2A502BC021F038
:1026A000226A2126000E2222820E2124306EFF0E85
:1026B0002220316E71EF13F0D8902C362D362E3645
:1026C0002F3629AE66EF13F068EF13F069EF13F0C1
:1026D0002C80D89026362736283629363006D8A0C2
:1026E00031062EAE76EF13F078EF13F05CEF13F0B7
:1026F000000E2A6E29AE7FEF13F081EF13F0A5EFE5
:1027000013F0FF0E2614216EFF0E2714226EFF0E0B
:102710002814236E7F0E2914246E215022102310BA
:102720002410D8B496EF13F098EF13F09CEF13F049
:10273000010E2A6EA5EF13F02CA0A1EF13F0A3EF6A
:1027400013F0A5EF13F098EF13F02A50D8B4ABEFC5
:1027500013F0ADEF13F0D1EF13F0010E2C26000EA5
:102760002D222E222F222FA0B8EF13F0BAEF13F054
:10277000D1EF13F02CC021F02DC022F02EC023F099
:102780002FC024F02434243223322232213221C0BB
:102790002CF022C02DF023C02EF024C02FF0304AA0
:1027A000312A31BEDCEF13F0315008E13028D8A0D7
:1027B000DCEF13F0DEEF13F0E8EF13F0000E2C6EF9
:1027C000000E2D6E800E2E6E7F0E2F6E16EF14F003
:1027D00031BEF5EF13F0315006E13004D8B0F3EF1D
:1027E00013F0F5EF13F001EF14F0000E2C6E000E55
:1027F0002D6E000E2E6E000E2F6E000E256E16EF43
:1028000014F030C02BF0FF0E2C16FF0E2D167F0E8D
:102810002E16000E2F162BA010EF14F012EF14F04E
:1028200013EF14F02E8ED8902B302F6E25502F12D0
:102830002CC019F02DC01AF02EC01BF02FC01CF0B8
:1028400012003550800B426E35503524496E34AE3F
:102850002CEF14F02EEF14F02FEF14F049804950B4
:10286000D8B435EF14F037EF14F04CEF14F04928DA
:10287000D8A43DEF14F03FEF14F047EF14F0000E32
:10288000326E000E336E000E346E000E356E348ED6
:10289000000E356E54EF14F0000E326E000E336EE3
:1028A000000E346E000E356E3950800B421A3950CE
:1028B00039244A6E38AE5FEF14F061EF14F062EF26
:1028C00014F04A804A50D8B468EF14F06AEF14F05C
:1028D0007FEF14F04A28D8A470EF14F072EF14F0D0
:1028E0007AEF14F0000E366E000E376E000E386E62
:1028F000000E396E388E000E396E87EF14F0000E20
:10290000366E000E376E000E386E000E396E365081
:10291000371038103910D8A490EF14F092EF14F05B
:10292000AAEF14F0000E326E000E336E000E346EFD
:10293000000E356E800E34127F0E35124250351265
:1029400032C032F033C033F034C034F035C035F02B
:10295000EDEF15F04950D8A4B0EF14F0B2EF14F039
:10296000BCEF14F0000E326E000E336E000E346EAB
:10297000000E356EEDEF15F04A5049C03AF03B6A53
:102980003A5E000E3B5A7F0E3A24436E000E3B2007
:10299000446E32C03EF033C03FF034C040F035C02A
:1029A00041F0000E326E000E336E000E346E000EDB
:1029B000356E000E456E000E466E000E476E000E20
:1029C000486E000E4A6E1DEF15F04A50D8B4EBEF7A
:1029D00014F0EDEF14F004EF15F0D8903E363F36CA
:1029E00040364136D890323633363436353648AEF6
:1029F000FCEF14F0FEEF14F0FFEF14F03280D890EB
:102A0000453646364736483636503E5C37503F5896
:102A10003850405839504158D8A011EF15F013EFF5
:102A200015F01CEF15F0488C36503E5E37503F5A7B
:102A30003850405A3950415A4A2A190E4A6423EFF5
:102A400015F025EF15F0E5EF14F03E503F10401063
:102A50004110D8B42EEF15F030EF15F048EF15F017
:102A6000458048EF15F0D890323633363436353657
:102A700048AE3DEF15F03FEF15F040EF15F0328016
:102A8000D89045364636473648364306D8A04406E1
:102A900034AE4DEF15F04FEF15F033EF15F0000E9B
:102AA0004A6E48AE56EF15F058EF15F07CEF15F072
:102AB000FF0E45143A6EFF0E46143B6EFF0E471490
:102AC0003C6E7F0E48143D6E3A503B103C103D105A
:102AD000D8B46DEF15F06FEF15F073EF15F0010E30
:102AE0004A6E7CEF15F032A078EF15F07AEF15F012
:102AF0007CEF15F06FEF15F04A50D8B482EF15F067
:102B000084EF15F0A8EF15F0010E3226000E3322E7
:102B10003422352235A08FEF15F091EF15F0A8EF94
:102B200015F032C03AF033C03BF034C03CF035C051
:102B30003DF03D343D323C323B323A323AC032F025
:102B40003BC033F03CC034F03DC035F0434A442A2A
:102B500044BEB3EF15F0445008E14328D8A0B3EFCA
:102B600015F0B5EF15F0C0EF15F0000E446E436898
:102B7000000E326E000E336E000E346E000E356E97
:102B800044BECDEF15F0445006E14304D8B0CBEF7E
:102B900015F0CDEF15F0DBEF15F0000E446E000ED2
:102BA000436E000E326E000E336E000E346E000E59
:102BB000356E000E426E43C049F049A0E2EF15F0B9
:102BC000E4EF15F0E7EF15F0348EE8EF15F0349EE2
:102BD000D8904930356E9EEF14F01200000E0001BF
:102BE000696F000E686FF8EF15F00001684B692BF4
:102BF0004F50685D6951800A516E5050800A51589B
:102C0000D8B005EF16F007EF16F033EF16F068C0F6
:102C100051F069C052F0D89051365236D8905136A2
:102C20005236D89051365236500E5124D96E010E7C
:102C30005220DA6EDECF32F0DECF33F0DECF34F06A
:102C4000DECF35F04BC036F04CC037F04DC038F019
:102C50004EC039F0CCEC1BF0D8A031EF16F033EFBA
:102C600016F0F5EF15F04F500001681907E15050CC
:102C70006919D8A43EEF16F040EF16F05DEF16F09C
:102C800068C051F069C052F0D89051365236D89091
:102C900051365236D890513652364C0E5124D96E98
:102CA000010E5220DA6EDECF4BF0DECF4CF0DECFDD
:102CB0004DF0DECF4EF079EF17F068516911D8A4CE
:102CC00064EF16F066EF16F083EF16F068C051F06F
:102CD00069C052F0D89051365236D890513652369B
:102CE000D89051365236540E5124D96E010E5220CE
:102CF000DA6EDECF4BF0DECF4CF0DECF4DF0DECF24
:102D00004EF079EF17F068C051F069C052F0D890DA
:102D100051365236D89051365236D89051365236B6
:102D20004C0E5124D96E010E5220DA6EDECF15F012
:102D3000DECF16F0DECF17F0DECF18F068C053F00C
:102D400069C054F0D89053365436D8905336543620
:102D5000D89053365436540E5324D96E010E542055
:102D6000DA6EDECF11F0DECF12F0DECF13F0DECF61
:102D700014F052EC1EF011C032F012C033F013C048
:102D800034F014C035F068C055F069C056F0D890E2
:102D900055365636D89055365636D890553656361E
:102DA000480E5524D96E010E5620DA6EDECF15F08E
:102DB000DECF16F0DECF17F0DECF18F068C057F088
:102DC00069C058F0D89057365836D890573658368C
:102DD000D89057365836500E5724D96E010E5820C9
:102DE000DA6EDECF11F0DECF12F0DECF13F0DECFE1
:102DF00014F052EC1EF011C036F012C037F013C0C0
:102E000038F014C039F021EC14F032C060F033C057
:102E100061F034C062F035C063F060C01DF061C085
:102E20001EF062C01FF063C020F068C051F069C09E
:102E300052F0D89051365236D89051365236D890FA
:102E400051365236500E5124D96E010E5220DA6E90
:102E5000DECF15F0DECF16F0DECF17F0DECF18F0A4
:102E60004BC011F04CC012F04DC013F04EC014F026
:102E700052EC1EF011C019F012C01AF013C01BF072
:102E800014C01CF00CEC12F019C064F01AC065F00C
:102E90001BC066F01CC067F064C001F065C002F0A2
:102EA00066C003F067C004F068C051F069C052F01A
:102EB000D89051365236D89051365236D890513635
:102EC0005236540E5124D96E010E5220DA6EDECFE6
:102ED00005F0DECF06F0DECF07F0DECF08F050ECD5
:102EE0000DF001C04BF002C04CF003C04DF004C027
:102EF0004EF0120097C0D9FF98C0DAFFDECFF6FF80
:102F0000DDCFF7FF0800F550250AD8A48AEF17F0A7
:102F10008CEF17F071EF18F097C0D9FF98C0DAFF67
:102F2000DE2A000EDD22000E0001D76F000ED66FE4
:102F3000D6C0DCF0D869D96997C0D9FF98C0DAFF4C
:102F4000DECFA6F0DDCFA7F0A6C0F6FFA7C0F7FF43
:102F50000800F5CFA5F0B9EF17F0A64BA72BD2EFDD
:102F600017F06C0EA56FD2EF17F0000EA56FD2EF21
:102F700017F0A5519B6F9C6B9C51000AD8B4C3EF0E
:102F800017F0B5EF17F09B514C0AD8B4ADEF17F01E
:102F90002A0AD8B4B1EF17F00A0AD8B4ADEF17F087
:102FA000B5EF17F0A6C0F6FFA7C0F7FF0800F55071
:102FB000660AD8A4DEEF17F0E0EF17F068EF18F01C
:102FC00016EF18F099C0D9FF9AC0DAFFDFCF9BF057
:102FD000040EDE26DFCF9CF0000EDD229BC0D9FF61
:102FE0009CC0DAFFDECF9DF0DECF9EF0DECF9FF0FB
:102FF000DECFA0F02BEF18F099C0D9FF9AC0DAFF0E
:10300000DFCF9BF0040EDE26DFCF9CF0000EDD222A
:103010009BC0D9FF9CC0DAFFDECF9DF0DECF9EF0D3
:10302000DECF9FF0DECFA0F02BEF18F0A5519B6F05
:103030009C6B9C51000AD8B420EF18F02BEF18F0CD
:103040009B514C0AD8B4FCEF17F0200AD8B4E2EF39
:1030500017F02BEF18F0010EA6259B6F000EA7218D
:103060009C6F97C0D9FF98C0DAFF9BC0DEFF9CC061
:10307000DDFF52EF18F095C060F096C061F09DC082
:1030800062F09EC063F09FC064F0A0C065F0A6C06F
:10309000F6FFA7C0F7FF0800F5CF66F040EC08F098
:1030A00085EF18F0A6C0F6FFA7C0F7FF0800F5509F
:1030B0009B6F9C6B9C51000AD8B461EF18F068EFCD
:1030C00018F09B51660AD8B43BEF18F068EF18F07F
:1030D00097C0D9FF98C0DAFFDE2A000EDD2285EF07
:1030E00018F097C0D9FF98C0DAFFDECFF6FFDDCF2A
:1030F000F7FF0800F550036E046A95C005F096C00E
:1031000006F022EC1DF068EF18F01200BAC05BF078
:10311000BBC05CF0BCC05DF0BDC05EF04BC05BF0FE
:103120004CC05CF04DC05DF04EC05EF0810E4F6E45
:10313000FF0E506E5BC051F05CC052F05DC053F0AA
:103140005EC054F0180EAAEF18F0D89054325332E3
:1031500052325132E82EA5EF18F051504F24596EDB
:10316000000E50205A6E5ABEBFEF18F05A5009E1B7
:10317000170E595CD8A0BFEF18F0C1EF18F0CBEFD5
:1031800018F04BC04BF04CC04CF04DC04DF04EC051
:103190004EF08EEF19F05ABED0EF18F0D2EF18F0C3
:1031A00042EF19F059C04FF0FF0E506EFF0E516EF6
:1031B0007F0E526E000E536E4F66E1EF18F0E9EF8E
:1031C00018F0533453325232513250324F2EDCEF1A
:1031D00018F050C055F051C056F052C057F053C0CF
:1031E00058F055505B144F6E56505C14506E57504B
:1031F0005D14516E58505E14526E4F505010511065
:103200005210D8A406EF19F008EF19F00AEF19F0E0
:10321000C1EF18F05BC04FF05CC050F05DC051F0E2
:103220005EC052F0200E1AEF19F0D890523251328F
:1032300050324F32E82E15EF19F04F505010511008
:103240005210D8B426EF19F028EF19F030EF19F02A
:1032500055505B2656505C2257505D2258505E22D6
:10326000551C4F6E561C506E571C516E581C526E9A
:103270004F505B1650505C1651505D1652505E1602
:1032800086EF19F05BC04FF05CC050F05DC051F0AC
:103290005EC052F0200E52EF19F0D89052325132E7
:1032A00050324F32E82E4DEF19F04F505010511060
:1032B0005210D8A45EEF19F060EF19F06AEF19F020
:1032C000000E5B6E000E5C6E000E5D6E000E5E6E9C
:1032D00086EF19F0D8905B344F6E5C34506E5D34DD
:1032E000516E5E34526E4F50501051105210D8B47F
:1032F0007CEF19F07EEF19F086EF19F0000E5B6E8F
:10330000000E5C6E800E5D6EBF0E5E6E5BC04BF09D
:103310005CC04CF05DC04DF05EC04EF01200000E7F
:10332000F6EC1EF001C0DEF002C0DFF0070E000177
:10333000B96F580EB86F590EE82EFED7B82FFCD7CC
:10334000B92FFAD700D0000E1D6E000E1E6E000EB3
:103350001F6E400E206EDEC001F0DFC002F0036A77
:10336000046A000E6FEC1AF001C019F002C01AF0E6
:1033700003C01BF004C01CF00CEC12F019C032F0BA
:103380001AC033F01BC034F01CC035F0000E366E8E
:10339000F00E376E7F0E386E450E396E21EC14F04C
:1033A00032C0C6F033C0C7F034C0C8F035C0C9F071
:1033B000000E056E000E066E400E076E400E086E83
:1033C000C6C001F0C7C002F0C8C003F0C9C004F015
:1033D00050EC0DF001C032F002C033F003C034F005
:1033E00004C035F0B80E366E1E0E376E070E386EFE
:1033F000420E396E21EC14F032C0D2F033C0D3F05B
:1034000034C0D4F035C0D5F0D2C032F0D3C033F0E0
:10341000D4C034F0D5C035F06F0E366E120E376E54
:10342000830E386E3A0E396E21EC14F032C0CEF0B5
:1034300033C0CFF034C0D0F035C0D1F0CEC04BF0A7
:10344000CFC04CF0D0C04DF0D1C04EF0000E506E49
:10345000970E4F6EEEEC15F04BC0C2F04CC0C3F0AF
:103460004DC0C4F04EC0C5F0410E0001B06F100E4B
:10347000B16FD2C0B2F0D3C0B3F0D4C0B4F0D5C0F5
:10348000B5F044EC1FF0220E0001B06F100EB16FCA
:10349000CEC0B2F0CFC0B3F0D0C0B4F0D1C0B5F060
:1034A00044EC1FF0010E0001B06F100EB16FC2C0EE
:1034B000B2F0C3C0B3F0C4C0B4F0C5C0B5F044ECC2
:1034C0001FF0100E0001B96F390EB86F0D0EE82E07
:1034D000FED7B82FFCD7B92FFAD700D01200096E4B
:1034E0000950D8B476EF1AF078EF1AF09AEF1AF084
:1034F00004BE7FEF1AF07DEF1AF09AEF1AF001C0C8
:1035000005F002C006F003C007F004C008F0051E75
:10351000061E071E081E052A000E06220722082284
:1035200005C00BF006C00CF007C00DF008C00EF08F
:10353000A2EF1AF001C00BF002C00CF003C00DF0B6
:1035400004C00EF00150021003100410D8A4ABEF19
:103550001AF0ADEF1AF0B7EF1AF0000E016E000E80
:10356000026E000E036E000E046E48EF1BF0960E06
:103570000A6EC1EF1AF00A2AD8900E320D320C32C0
:103580000B32000E0B14056E000E0C14066E000EAE
:103590000D14076EFE0E0E14086E0550061007106F
:1035A0000810D8A4D6EF1AF0D8EF1AF0BBEF1AF033
:1035B000E6EF1AF00A2A010E0B26000E0C220D224D
:1035C0000E22D8900E320D320C320B32000E0B143C
:1035D000056E000E0C14066E000E0D14076EFF0E25
:1035E0000E14086E0550061007100810D8A4FBEF43
:1035F0001AF0FDEF1AF0DAEF1AF005EF1BF00A06E9
:10360000D8900B360C360D360E360DBE0AEF1BF079
:103610000CEF1BF014EF1BF0020E0A6012EF1BF010
:1036200014EF1BF0FFEF1AF00AB019EF1BF01BEFBD
:103630001BF01CEF1BF00D9ED8900A320AC005F05B
:10364000066A076A086A05C008F0076A066A056A1A
:1036500005500B1206500C1207500D1208500E1296
:103660000950D8B436EF1BF038EF1BF040EF1BF0D9
:1036700004BE3FEF1BF03DEF1BF040EF1BF00E8E42
:103680000BC001F00CC002F00DC003F00EC004F03E
:103690001200033404340A6E0A50D8A452EF1BF00F
:1036A00054EF1BF05EEF1BF0000E016E000E026E79
:1036B000000E036E000E046ECBEF1BF001C005F090
:1036C00002C006F003C007F004C008F0200E6EEF41
:1036D0001BF0D8900832073206320532E82E69EF27
:1036E0001BF00550096E038EFF0E0116FF0E021629
:1036F000FF0E0316000E0416960E0A5E0ABE85EF34
:103700001BF083EF1BF09BEF1BF00A50800A970F12
:10371000D8B08DEF1BF08FEF1BF091EF1BF054EF43
:103720001BF0D89004320332023201320A3E91EF8C
:103730001BF0B3EF1BF01F0E0A64A1EF1BF0A3EF09
:103740001BF0ABEF1BF054EF1BF0D89001360236A4
:10375000033604360A060A50D8A4B1EF1BF0B3EFC3
:103760001BF0A5EF1BF00950D8B4B9EF1BF0BBEF6D
:103770001BF0C3EF1BF0041E031E021E016C000EA3
:1037800002220322042201C001F002C002F003C0A1
:1037900003F004C004F01200000E32143A6E000E62
:1037A00033143B6E800E34143C6E7F0E35143D6E28
:1037B0003A503B103C103D10D8A4E1EF1BF0E3EF72
:1037C0001BF0EBEF1BF0000E326E000E336E000E9E
:1037D000346E000E356E000E36143A6E000E37143D
:1037E0003B6E800E38143C6E7F0E39143D6E3A509D
:1037F0003B103C103D10D8A400EF1CF002EF1CF071
:103800000AEF1CF0000E366E000E376E000E386E9A
:10381000000E396E35AE0FEF1CF011EF1CF01AEFF1
:103820001CF0326C331ED8B0332A341ED8B0342A80
:10383000800E355639AE1FEF1CF021EF1CF02AEF39
:103840001CF0366C371ED8B0372A381ED8B0382A4C
:10385000800E3956000E321A000E331A000E341A3A
:10386000800E351A000E361A000E371A000E381A5E
:10387000800E391A3650325C37503358385034582D
:1038800039503558D8B047EF1CF049EF1CF04CEFD9
:103890001CF0D8904DEF1CF0D8801200BEC00BF089
:1038A000BFC00CF0C0C00DF0C1C00EF001C00BF0E5
:1038B00002C00CF003C00DF004C00EF00BC005F008
:1038C0000CC006F00DC007F00EC008F0180E6EEF29
:1038D0001CF0D8900832073206320532E82E69EF24
:1038E0001CF00550096E0A6A09500A10D8A47BEF33
:1038F0001CF07DEF1CF09DEF1CF0D8900B34056E92
:103900000C34066E0D34076E0E34086E055006102A
:1039100007100810D8A48FEF1CF091EF1CF097EF60
:103920001CF0000E026E020E016ECCEF1CF0000EB9
:10393000026E030E016ECCEF1CF009280A10D8A409
:10394000A4EF1CF0A6EF1CF0C8EF1CF00BC005F0B4
:103950000CC006F00DC007F00EC008F0090ED8909C
:103960000536063607360836E82EAFEF1CF0055050
:10397000061007100810D8B4C0EF1CF0C3EF1CF0FD
:10398000010EC4EF1CF0000E016E026ACCEF1CF0B9
:10399000000E026E040E016E1200000E0114096E7C
:1039A000000E02140A6E800E03140B6E7F0E0414B8
:1039B0000C6E09500A100B100C10D8A4E2EF1CF08A
:1039C000E4EF1CF0ECEF1CF0000E016E000E026E36
:1039D000000E036E000E046E000E0514096E000E3C
:1039E00006140A6E800E07140B6E7F0E08140C6E00
:1039F00009500A100B100C10D8A401EF1DF003EFB2
:103A00001DF00BEF1DF0000E056E000E066E000E91
:103A1000076E000E086E055001180FE106500218DF
:103A20000CE10750031809E108500418D8B41BEF43
:103A30001DF01DEF1DF020EF1DF0D89021EF1DF0BF
:103A4000D880120005500610D8B429EF1DF02BEFD6
:103A50001DF034EF1DF005500610D8A432EF1DF014
:103A600034EF1DF039EF1DF0035091EC1FF06CEFB7
:103A70001DF020EE09F00550D9260650DA22DE505E
:103A8000DE10D8B446EF1DF048EF1DF063EF1DF0D7
:103A900020EE09F00550D9260650DA2210EE03F088
:103AA0000550E1260650E222DE50E65CE650800A30
:103AB0000B6EDE50800A0B58D8B061EF1DF063EF3B
:103AC0001DF06CEF1DF020EE03F00550D9260650D6
:103AD000DA22DE2A000EDD22120018BE72EF1DF07F
:103AE00074EF1DF07AEF1DF017C01CF018C01DF028
:103AF0007EEF1DF0000E1D6E000E1C6E000E1B6E84
:103B0000000E1A6E90EF1DF0000E046E200E036E74
:103B100013C005F014C006F022EC1DF01A4A1B2A4F
:103B20001C501A5C1B50800A196E1D50800A1958CF
:103B3000D8A09DEF1DF09FEF1DF084EF1DF015C084
:103B40000CF016C00DF013C00EF014C00FF075ECA1
:103B50001EF0120004BEB9EF1DF004500310021055
:103B600006E10104D8B0B7EF1DF0B9EF1DF0D4EFB6
:103B70001DF001C005F002C006F003C007F004C04C
:103B800008F0051E061E071E081E052A000E062246
:103B90000722082205C001F006C002F007C003F0AA
:103BA00008C004F0DCEF1DF001C001F002C002F01B
:103BB00003C003F004C004F01200AAC0AEF0ABC012
:103BC000AFF0F2EF1DF0A8C095F0A9C096F0AE0ED0
:103BD0000001976F000E986FACC099F0ADC09AF0DD
:103BE0007AEC17F0AEC0F6FFAFC0F7FF0800F55053
:103BF0000009D8A4FEEF1DF000EF1EF0E3EF1DF06A
:103C0000000E0001A96F000EA86F120003C009F09A
:103C100004C00AF001C007F002C008F020EF1EF057
:103C200009C0D9FF0AC0DAFFDF500B6E094A0A2A21
:103C300007C0D9FF08C0DAFF0BC0DFFF074A082A18
:103C40000506D8A00606052806E10628D8A42BEF0D
:103C50001EF02DEF1EF010EF1EF01200600EF66E3B
:103C60001F0EF76E000EF86E01EE50F014EEB8F075
:103C70000900F5CFEEFFE550E150FAE1E250F8E13E
:103C800001EE00F0500EEE6AE806FDE100EEBAF03B
:103C9000240EEE6AE806FDE15F6A000EF86E000190
:103CA00058EF1FF0000E151A000E161A000E171A04
:103CB000800E181A11C001F012C002F013C003F0F8
:103CC00014C004F015C005F016C006F017C007F0C8
:103CD00018C008F050EC0DF001C011F002C012F055
:103CE00003C013F004C014F01200000E126E000E98
:103CF000116E86EF1EF010C003F0046A0EC005F0CE
:103D00000FC006F022EC1DF0114A122A11500C24AB
:103D1000D96E12500D20DA6EDF50106E1050D8A4FC
:103D200094EF1EF096EF1EF07BEF1EF0120003C022
:103D300005F004C006F001C007F002C008F005C09D
:103D4000F6FF06C0F7FF054A062A07C0D9FF08C0DC
:103D5000DAFF074A082A0800F5CFDFFFDF50D8A4B2
:103D6000B4EF1EF0B6EF1EF09FEF1EF01200080E2B
:103D7000A76E900EAB6E240EAC6E080EAF6E020EE8
:103D80007D6E000E016E000E026EAAEC1FF0000E9A
:103D9000016E000E026EA5EC1FF0000E016E000E0B
:103DA000026EAFEC1FF0000E0001DD6F1200080E76
:103DB000B96E900EA66E260EBA6E080E7B6E020EBF
:103DC0007C6E000E016E000E026E9BEC1FF0000E6A
:103DD000016E000E026E96EC1FF0000E016E000EDA
:103DE000026EA0EC1FF0000E5F6E1200056E05C0A3
:103DF00003F003460346C2500318830B0318C26E38
:103E0000C280C282C2B207EF1FF009EF1FF002EFBB
:103E10001FF0C450046E036AC3500324016E000EE9
:103E20000420026E12000150021003100410D8B4D6
:103E30001CEF1FF01EEF1FF026EF1FF0000E011AFF
:103E4000000E021A000E031A800E041A01C001F0BF
:103E500002C002F003C003F004C004F01200000E20
:103E6000896E000E8A6E000E8B6EEF0E926EBF0E84
:103E7000936EBF0E946E1F0E0F015D6F070E5C6F89
:103E8000000E5B6FF18E1200B20E0001B66F000ED5
:103E9000B76F000EA86F000EA96FB0C0AAF0B1C036
:103EA000ABF0B60EAC6F000EAD6FDDEC1DF0120086
:103EB00072EC1FF0600E0001B06F100EB16F44EC99
:103EC0001FF08FEC19F061EF1FF000EF00F0016EB2
:103ED0009EA86DEF1FF06FEF1FF068EF1FF001C09D
:103EE000ADFF12002FEC1FF088EC1FF07DEC1FF0EF
:103EF000B7EC1EF0D7EC1EF01200010EC26E080ED9
:103F0000C16E800EC06E000EC46E000EC36E120035
:103F1000600ED36E000ED26E000E9B6E000E9A6E77
:103F20001200026E025067EC1FF0120001C0E8F0B0
:103F300002C0E9F0120001C0EAF002C0EBF012008A
:103F400001C0E6F002C0E7F0120001C0E2F002C0DA
:103F5000E3F0120001C0E4F002C0E5F0120001C07D
:083F6000E0F002C0E1F01200E4
:020000040020DA
:08000000FFFFFFFFFFFFFFFF00
:020000040030CA
:0E00000015027F7CFF8991FF0FC00FE00F40BB
:00000001FF
